:020000040000FA
:100000000A128A11F32FF40074080F39F1007108F5
:10001000F2007408F039F1007108F3008312031341
:1000200008157308F10004300310F10CFF3E031DA6
:10003000142871080A168A1532240A128A118312AA
:1000400003138815881172080A168A1532240A12B9
:100050008A11831203138815881108008312031371
:10006000D1006E305102031C3628372844293F3016
:10007000A7000030A6000030A5000030A4006430C6
:10008000F6000030F7005108C200C3014208F80032
:100090004308F9000A168A157D250A128A11760886
:1000A00083120313C40001300310C40DFF3E031D6F
:1000B00054280310440D7D3E84000A168A110A203C
:1000C0000A128A11C5000A168A110A200A128A1118
:1000D000C6000A168A110A200A128A11C7000A16D7
:1000E0008A110A200A128A11C8004808AB00470882
:1000F000AA004608A9004508A8000A128A159F24EC
:100100000A128A11831203132708D0002608CF0091
:100110002508CE002408CD000A30F6000030F70094
:100120005108C200C3014208F2004308F3006430E2
:10013000F0000030F1000A168A15C4240A128A1150
:100140007108F9007008F8000A168A157D250A1250
:100150008A11760883120313C40001300310C40D02
:10016000FF3E031DAE280310440D593E84000A16BD
:100170008A110A200A128A11C5000A168A110A2059
:100180000A128A11C6000A168A110A200A128A1156
:10019000C7000A168A110A200A128A11C8004808E4
:1001A000A7004708A6004608A5004508A400500877
:1001B000AB004F08AA004E08A9004D08A8000A127B
:1001C0008A159F240A128A11831203132708CC0070
:1001D0002608CB002508CA002408C9000A30F00010
:1001E0000030F1005108C200C3014208F200430888
:1001F000F3000A168A15C4240A128A1170088312A1
:100200000313C40001300310C40DFF3E031D032976
:100210000310440D353E84000A168A110A200A1282
:100220008A11C5000A168A110A200A128A11C6000C
:100230000A168A110A200A128A11C7000A168A11A0
:100240000A200A128A11C8004808A7004708A60019
:100250004608A5004508A4004C08AB004B08AA00BE
:100260004A08A9004908A8000A128A159F240A1200
:100270008A11831203132708C1002608C00025082D
:10028000BF002408BE00382A0B305102031C492944
:100290004A29F5293F30A7000030A6000030A5000C
:1002A0000030A4000A30F6000030F7005108C20008
:1002B000C3014208F8004308F9000A168A157D2593
:1002C0000A128A11760883120313C4000130031046
:1002D000C40DFF3E031D67290310440D593E8400E1
:1002E0000A168A110A200A128A11C5000A168A11F2
:1002F0000A200A128A11C6000A168A110A200A1256
:100300008A11C7000A168A110A200A128A11C80027
:100310004808AB004708AA004608A9004508A800FD
:100320000A128A159F240A128A11831203132708BE
:10033000D0002608CF002508CE002408CD000A30C2
:10034000F0000030F1005108C200C3014208F20081
:100350004308F3000A168A15C4240A128A11700889
:1003600083120313C40001300310C40DFF3E031DAC
:10037000B4290310440D353E84000A168A110A2060
:100380000A128A11C5000A168A110A200A128A1155
:10039000C6000A168A110A200A128A11C7000A1614
:1003A0008A110A200A128A11C8004808A7004708C3
:1003B000A6004608A5004508A4005008AB004F0859
:1003C000AA004E08A9004D08A8000A128A159F2409
:1003D0000A128A11831203132708C1002608C000DD
:1003E0002508BF002408BE00382A3F30A70000308F
:1003F000A6000030A5000030A4005108C200013062
:100400000310C20DFF3E031D002A0310420D353EAE
:1004100084000A168A110A200A128A11C3000A16D9
:100420008A110A200A128A11C4000A168A110A20A7
:100430000A128A11C5000A168A110A200A128A11A4
:10044000C6004608AB004508AA004408A9004308B6
:10045000A8000A128A159F240A128A118312031314
:100460002708C1002608C0002508BF002408BE00D8
:10047000080083160313BD00A130A5002508AE00B7
:10048000DC2F253042060319462A472A532A420800
:10049000A5003D0884002508831380000130A500D5
:1004A0002508BD07DC2FAF01B001582A3015722A8C
:1004B0000130A007FF30200784000A168A110A20A5
:1004C0000A128A11C200A500A6012608003A0319E3
:1004D0006A2ADC2F2508003A0319EE2F663A031921
:1004E000562ADC2F00302F05A50007303005A60066
:1004F0002508260403197D2A7E2AC82F0630B1005C
:100500000030B2002E08840083130008BE00840A65
:100510000008BF00840A0008C000840A0008C10067
:100520000430A5002508AE074108F3004008F2009A
:100530003F08F1003E08F0000030F7000030F60000
:100540000030F5000030F4000A168A11C4200A12A7
:100550008A110318AC2AAD2ACA2A8316031341084C
:10056000F3004008F2003F08F1003E08F0000A16D0
:100570008A11B9200A128A11730883160313C10065
:100580007208C0007108BF007008BE000330AF04DD
:100590000030B00483160313B701B8014108F3001B
:1005A0004008F2003F08F1003E08F0000030F7007C
:1005B0000030F6000030F5000030F4000A168A150D
:1005C000C1250A128A110318E62AE72AD72B03103D
:1005D00083160313400D410D823EB700FF30031810
:1005E0000030B800FF30B7070318B80AFF30B8076B
:1005F0000330F0000030F1003808F3003708F20053
:100600000A168A1578240A128A11710883160313B0
:10061000B8007008B7000A30F7000030F80038085A
:10062000FA003708F9000A168A151B270A128A11E0
:10063000780883160313B8007708B700B81F212B7A
:10064000222B282BFF30B7070318B80AFF30B80752
:100650003703FF3A0A128A1540210A128A118312BF
:100660000313410883160313BC00831203134008CD
:1006700083160313BB00831203133F08831603136F
:10068000BA00831203133E0883160313B90041080E
:1006900083120313A7008316031340088312031366
:1006A000A600831603133F0883120313A5008316C5
:1006B00003133E0883120313A400831603133C089C
:1006C00083120313AB00831603133B088312031337
:1006D000AA00831603133A0883120313A900831692
:1006E0000313390883120313A8000A128A159F24E2
:1006F0000A128A1183120313270883160313BC00FE
:1007000083120313260883160313BB0083120313FB
:10071000250883160313BA008312031324088316D3
:100720000313B9003C08F3003B08F2003A08F1005B
:100730003908F0003F30F7008030F6000030F50057
:100740000030F4000A168A11C4200A128A11031814
:10075000AA2BAB2BB42BFF3083160313B707031858
:10076000B80AFF30B807D72B831603133C08F300F1
:100770003B08F2003A08F1003908F0004130F70078
:100780002030F6000030F5000030F4000A168A111F
:10079000C4200A128A11031CCE2BCF2BD72B013079
:1007A00083160313B7070318B80A0030B8070630DA
:1007B0000A128A112E200A128A1183120313410889
:1007C000D5004008D4003F08D3003E08D20083166D
:1007D0000313410883120313D9008316031340083F
:1007E00083120313D800831603133F0883120313E5
:1007F000D700831603133E0883120313D6000A168C
:100800008A1178250A128A11831203135508831658
:100810000313C10083120313540883160313C0008B
:1008200083120313530883160313BF0083120313A9
:10083000520883160313BE003808803AFF00803048
:100840007F02031D252C0A3037020318282C292C7F
:100850007A2C831603134108F3004008F2003F0886
:10086000F1003E08F0000030F7000030F6000030E4
:10087000F5000030F4000A168A15C1250A128A1103
:100880000318432C442CEC2C8316031341088312C9
:100890000313D40083160313400883120313D300F9
:1008A000831603133F0883120313D2008316031326
:1008B0003E0883120313D1000A168A1584270A12F0
:1008C0008A11831203135408530452045104031D64
:1008D0006A2C6B2CEC2C831603133808803AFF002B
:1008E00080307F02031D762C02303702031C792CE6
:1008F0007A2CEC2C831603133C08F3003B08F2001F
:100900003A08F1003908F0004030F7008930F6006D
:100910007030F5005F30F4000A168A11C4200A1204
:100920008A110318942C952C9E2CF73083160313F0
:10093000B7070318B80AFF30B807A62CF83083169B
:100940000313B7070318B80AFF30B80737080A12AD
:100950008A1540210A128A11831203134108831653
:100960000313BC0083120313400883160313BB0058
:10097000831203133F0883160313BA008312031371
:100980003E0883160313B9004108F3004008F20043
:100990003F08F1003E08F0003C08F7003B08F60075
:1009A0003A08F5003908F4000A168A11DD220A1205
:1009B0008A11730883160313B6007208B500710814
:1009C000B4007008B3000030C1000030C000003037
:1009D000BF000030BE00702D831603134108831240
:1009E0000313D40083160313400883120313D300A8
:1009F000831603133F0883120313D20083160313D5
:100A00003E0883120313D1000A168A1584270A129E
:100A10008A1183120313540883160313B60083123A
:100A20000313530883160313B500831203135208EC
:100A300083160313B40083120313510883160313A0
:100A4000B3003608F3003508F2003408F10033082B
:100A5000F00000300A168A1166210A128A11730802
:100A600083120313E9007208E8007108E7007008B8
:100A7000E60083160313410883120313ED00831667
:100A80000313400883120313EC00831603133F087B
:100A900083120313EB00831603133E088312031320
:100AA000EA000A168A1554240A128A1183120313C3
:100AB000690883160313C1008312031368088316A1
:100AC0000313C00083120313670883160313BF00C8
:100AD00083120313660883160313BE00B701B8011F
:100AE000C201C20A4208A50001300310A50DFF3E55
:100AF000031D752D0310250D693E84000A168A1109
:100B00000A200A128A11A6000A168A110A200A125D
:100B10008A11A7000A168A110A200A128A11A8004F
:100B20000A168A110A200A128A11A9002908360217
:100B3000031DA42D28083502031DA42D2708340207
:100B4000031DA42D260833020318A72DA82DA92DB7
:100B5000B32D0130A5002508C2070A304206031D47
:100B6000B22DB32D722D03302F05A50000303005B6
:100B7000A600250826040319BE2DBF2D312E2D30C9
:100B8000A5003D0884002508831380000130A500DE
:100B90002508BD07312E4208A50001300310A50D20
:100BA000FF3E031DCE2D0310250D693E84000A165D
:100BB0008A110A200A128A11F0000A168A110A20E4
:100BC0000A128A11F1000A168A110A200A128A11E1
:100BD000F2000A168A110A200A128A11F300360856
:100BE000F7003508F6003408F5003308F4000A165B
:100BF0008A15B5260A128A11730883160313BC00DE
:100C00007208BB007108BA007008B9000030F30028
:100C10000030F2000030F1000A30F0003C08F7002C
:100C20003B08F6003A08F5003908F4000A168A1560
:100C300061260A128A11730883160313BC00720816
:100C4000BB007108BA007008B9003908303EA50031
:100C50003D0884002508831380000130A500250885
:100C6000BD070130C202420A031D372E382ECB2D9C
:100C70004C2E303083160313A5003D088400250850
:100C8000831380000130A5002508BD07FF30B7079A
:100C90000318B80AFF30B8073808803AFF008030E0
:100CA0007F02031D552E013037020318582E592E8E
:100CB000392E831603133208803AFF0080307F02FA
:100CC000031D642E09303102031C672E682E6F2E1F
:100CD000083083160313A5002508C200752E83165D
:100CE00003133108A5002508C2004208A500A6018B
:100CF0002508B1022608031CB203B20242080319F8
:100D0000822E832E8E2E2E30A5003D0884002508CD
:100D1000831380000130A5002508BD0742080A1290
:100D20008A1540210A128A1183120313410883167F
:100D30000313AD0083120313400883160313AC00A2
:100D4000831203133F0883160313AB0083120313AC
:100D50003E0883160313AA002D0883120313AB0069
:100D6000831603132C0883120313AA00831603139C
:100D70002B0883120313A900831603132A08831276
:100D80000313A80083160313410883120313A7005B
:100D900083160313400883120313A600831603135C
:100DA0003F0883120313A500831603133E08831222
:100DB0000313A4000A128A159F240A128A118312AF
:100DC00003132708D4002608D3002508D2002408DE
:100DD000D1000A168A1584270A128A118312031376
:100DE000540883160313B6008312031353088316A3
:100DF0000313B50083120313520883160313B400C0
:100E000083120313510883160313B300A82F42085B
:100E1000A50001300310A50DFF3E031D0A2F03108E
:100E2000250D693E84000A168A110A200A128A11C9
:100E3000F0000A168A110A200A128A11F1000A1615
:100E40008A110A200A128A11F2000A168A110A204F
:100E50000A128A11F3003608F7003508F600340844
:100E6000F5003308F4000A168A15B5260A128A110D
:100E7000730883160313BC007208BB007108BA0024
:100E80007008B9000030F3000030F2000030F100CB
:100E90000A30F0003C08F7003B08F6003A08F5007D
:100EA0003908F4000A168A1561260A128A11730895
:100EB00083160313BC007208BB007108BA007008E7
:100EC000B9003908303EA5003D0884002508831389
:100ED00080000130A5002508BD074208A5000130AB
:100EE0000310A50DFF3E031D702F0310250D693E55
:100EF00084000A168A110A200A128A11F0000A16C2
:100F00008A110A200A128A11F1000A168A110A208F
:100F10000A128A11F2000A168A110A200A128A118C
:100F2000F3003608F7003508F6003408F5003308FA
:100F3000F4000A168A1561260A128A1173088316AC
:100F40000313B6007208B5007108B4007008B3004E
:100F50000130C202420A031DAE2FAF2F072FC12F4F
:100F60003030A5003D08840025088313800001303F
:100F7000A5002508BD07FF30B1070318B20AFF30EE
:100F8000B20731083204031DC62FC72FB02FDC2F44
:100F900003302F05A50000303005A60025082604E3
:100FA0000319D32FD42FDC2F2D30A5003D0884004A
:100FB0002508831380004E2A0130A007FF30200748
:100FC00084000A168A110A200A128A11A50025082F
:100FD000C2004208031DED2FEE2F412A3D08840078
:100FE0008313800108008313C7308400DD300A12A8
:100FF0008A1502200A128A1183010A168A15172CF3
:1010040064008001840A04060319003404060328DA
:10101400F601F31F0E280F281628F209F309F20A25
:101024000319F30AF601F60AF11F19281A281F28D2
:10103400F009F109F00A0319F10A7008710403199F
:10104400242825285428F501F50A332801300310F3
:10105400F00DF10DFF3E031D29280130F400740842
:10106400F507F11F36283728282871087302031D55
:101074003D2870087202031C402841284728700844
:10108400F2027108031CF303F30201300310F10CA4
:10109400F00CFF3E031D48280130F502031D5328C0
:1010A4005428372876080319582859285E28F20945
:1010B400F309F20A0319F30A7308F1007208F00045
:1010C400080083160313C301C4010A168A15EE230C
:1010D4000A128A15013083160313C3070318C40ABE
:1010E4000030C4074408803AFF0080307F02031DAB
:1010F4007D2803304302031C80288128672883123B
:1011040003139F149F188728882884281E08831691
:101114000313CC001E08CB00443083120313C10018
:101124007F30C000C030BF000030BE004030A70098
:10113400A030A6000030A5000030A40083160313DD
:101144004B08F0004C08F100F201F30100300A16DC
:101154008A1166210A128A15730883120313AB00DD
:101164007208AA007108A9007008A8000A128A155A
:101174009F240A128A15831203132708C500260820
:10118400C4002508C3002408C2000A168A119B2340
:101194000A128A1583120313410883160313CA0023
:1011A40083120313400883160313C9008312031325
:1011B4003F0883160313C800831203133E088316E3
:1011C4000313C700A03083120313EE006E088316C6
:1011D4000313A0004A08A4004908A3004808A20079
:1011E4004708A100CD300A128A1139220A128A1541
:1011F4000A168A15D0230A128A15F201F20A01305E
:101204000A168A150F260A128A159130F5008030C5
:10121400F6000A168A153B250A128A15F201F20A0B
:1012240002300A168A150F260A128A15CD30F500E7
:101234000030F6000A168A153B250A128A15831611
:101244000313C501C6010A168A15EE230A128A156C
:10125400013083160313C5070318C60A0030C607F6
:101264004608803AFF0080307F02031D3B29653029
:101274004502031C3E293F29252908008312031334
:10128400D000D01F46294729F42AD009D00A500893
:10129400803A123E031C4F295029382A0A30F7009D
:1012A4000030F8005008F200F301F21BF30364303D
:1012B400F0000030F1000A128A150A200A128A1579
:1012C4007108FA007008F9000A168A151B270A1219
:1012D4008A15770883120313C20001300310C20D6C
:1012E400FF3E031D70290310420D593E84000A1667
:1012F4008A110A200A128A15C3000A168A110A20C2
:101304000A128A15C4000A168A110A200A128A15BA
:10131400C5000A168A110A200A128A15C600460850
:10132400A7004508A6004408A5004308A4006430AB
:10133400F7000030F8005008F900FA01F91BFA032D
:101344000A168A151B270A128A15770883120313B3
:10135400C70001300310C70DFF3E031DAC29031065
:10136400470D7D3E84000A168A110A200A128A1546
:10137400C8000A168A110A200A128A15C9000A1618
:101384008A110A200A128A15CA000A168A110A202A
:101394000A128A15CB004B08AB004A08AA00490878
:1013A400A9004808A8000A128A159F240A128A155F
:1013B400831203132708CF002608CE002508CD008A
:1013C4002408CC000A30F0000030F1005008F2008C
:1013D400F301F21BF3030A128A150A200A128A1572
:1013E400700883120313C20001300310C20DFF3EC4
:1013F400031DF7290310420D353E84000A168A1195
:101404000A200A128A15C3000A168A110A200A122F
:101414008A15C4000A168A110A200A128A15C50000
:101424000A168A110A200A128A15C6004608A7005D
:101434004508A6004408A5004308A4004F08AB00D3
:101444004E08AA004D08A9004C08A8000A128A15E3
:101454009F240A128A15831203132708C100260841
:10146400C0002508BF002408BE009E2C5008803A06
:10147400753E031C3E2A3F2AC72A0A30F00000307A
:10148400F1005008F200F301F21BF3030A128A156B
:101494000A200A128A15700883120313C20001304D
:1014A4000310C20DFF3E031D522A0310420D353EA8
:1014B40084000A168A110A200A128A15C3000A1621
:1014C4008A110A200A128A15C4000A168A110A20EF
:1014D4000A128A15C5000A168A110A200A128A15E8
:1014E400C6004608A7004508A6004408A50043080E
:1014F400A4000A30F7000030F8005008F900FA019F
:10150400F91BFA030A168A151B270A128A1577088B
:1015140083120313C70001300310C70DFF3E031DE0
:101524008E2A0310470D593E84000A168A110A2098
:101534000A128A15C8000A168A110A200A128A1584
:10154400C9000A168A110A200A128A15CA000A1644
:101554008A110A200A128A15CB004B08AB004A08EC
:10156400AA004908A9004808A8000A128A159F245D
:101574000A128A15831203132708C1002608C00023
:101584002508BF002408BE009E2C5008C20001306C
:101594000310C20DFF3E031DCA2A0310420D353E3F
:1015A40084000A168A110A200A128A15C3000A1630
:1015B4008A110A200A128A15C4000A168A110A20FE
:1015C4000A128A15C5000A168A110A200A128A15F7
:1015D400C6004608C1004508C0004408BF004308CF
:1015E400BE009E2C5008803A123E031CFA2AFB2AA5
:1015F400E32B0A30F7000030F8005008F200F30142
:10160400F21BF3036430F0000030F1000A128A1573
:101614000A200A128A157108FA007008F9000A16DD
:101624008A151B270A128A15770883120313C2002E
:1016340001300310C20DFF3E031D1B2B0310420D8E
:10164400253E84000A168A110A200A128A15C3004C
:101654000A168A110A200A128A15C4000A168A1167
:101664000A200A128A15C5000A168A110A200A12CB
:101674008A15C6004608A7004508A6004408A50028
:101684004308A4006430F7000030F8005008F90063
:10169400FA01F91BFA030A168A151B270A128A157E
:1016A400770883120313C70001300310C70DFF3EF0
:1016B400031D572B0310470D493E84000A168A1157
:1016C4000A200A128A15C8000A168A110A200A1268
:1016D4008A15C9000A168A110A200A128A15CA0034
:1016E4000A168A110A200A128A15CB004B08AB008D
:1016F4004A08AA004908A9004808A8000A128A153D
:101704009F240A128A15831203132708CF00260880
:10171400CE002508CD002408CC000A30F0000030AB
:10172400F1005008F200F301F21BF3030A128A15C8
:101734000A200A128A15700883120313C2000130AA
:101744000310C20DFF3E031DA22B0310420D013EE8
:1017540084000A168A110A200A128A15C3000A167E
:101764008A110A200A128A15C4000A168A110A204C
:101774000A128A15C5000A168A110A200A128A1545
:10178400C6004608A7004508A6004408A50043086B
:10179400A4004F08AB004E08AA004D08A9004C084D
:1017A400A8000A128A159F240A128A1583120313A9
:1017B4002708C1002608C0002508BF002408BE0071
:1017C4009E2C5008803A753E031CE92BEA2B722CA0
:1017D4000A30F0000030F1005008F200F301F21B6F
:1017E400F3030A128A150A200A128A157008831252
:1017F4000313C20001300310C20DFF3E031DFD2B75
:101804000310420D013E84000A168A110A200A12AE
:101814008A15C3000A168A110A200A128A15C400FE
:101824000A168A110A200A128A15C5000A168A1194
:101834000A200A128A15C6004608A7004508A60011
:101844004408A5004308A4000A30F7000030F8005B
:101854005008F900FA01F91BFA030A168A151B2726
:101864000A128A15770883120313C7000130031084
:10187400C70DFF3E031D392C0310470D253E840080
:101884000A168A110A200A128A15C8000A168A1131
:101894000A200A128A15C9000A168A110A200A1295
:1018A4008A15CA000A168A110A200A128A15CB0060
:1018B4004B08AB004A08AA004908A9004808A80038
:1018C4000A128A159F240A128A1583120313270801
:1018D400C1002608C0002508BF002408BE009E2CB5
:1018E4005008C20001300310C20DFF3E031D752CC9
:1018F4000310420D013E84000A168A110A200A12BE
:101904008A15C3000A168A110A200A128A15C4000D
:101914000A168A110A200A128A15C5000A168A11A3
:101924000A200A128A15C6004608C1004508C000EC
:101934004408BF004308BE000800831203132708AD
:101944008039AC002C08B1002708AC002C07AD008E
:101954002D08B700A61FAF2CB02CB12C37143708B4
:101964000319B52CB62CC52C370A031DBA2CBB2C75
:10197400C32C0030A7000030A6000030A5000030C2
:10198400A400A617CD2C0030A7000030A60000301C
:10199400A5000030A4002B088039AC002C08B10647
:1019A4002B08AC002C07AD002D08B600AA1FDB2CB9
:1019B400DC2CDD2C361436080319E12CE22CF12C36
:1019C400360A031DE62CE72CEF2C0030AB00003068
:1019D400AA000030A9000030A800AA17F92C003092
:1019E400AB000030AA000030A9000030A80036087F
:1019F4000319FD2CFE2C032D3708031D022D032D86
:101A04000C2D0030A7000030A6000030A5000030E7
:101A1400A400FF2F2408AC002C08F0002A080A16A2
:101A24008A159D240A128A15710883120313BD00B6
:101A34007008BC003C08AC00AD01AE01AF012F083A
:101A4400B5002E08B4002D08B3002C08B2003D08E0
:101A5400AC00AD01AE01AF012F08BB002E08BA00E7
:101A64002D08B9002C08B8002508AC002C08F0009B
:101A740029080A168A159D240A128A1571088312E8
:101A84000313BD007008BC003C08AC00AD01AE01FE
:101A9400AF012C08B2072D0803110318013E0319E6
:101AA400542DB3072E0803110318013E03195B2DAF
:101AB400B4072F0803110318013E0319622DB5075B
:101AC4003D08AC00AD01AE01AF012C08B8072D08EC
:101AD40003110318013E0319702DB9072E080311D1
:101AE4000318013E0319772DBA072F0803110318B1
:101AF400013E03197E2DBB072608AC002C08F0001C
:101B040028080A168A159D240A128A157108831258
:101B14000313BD007008BC003C08AC00AD01AE016D
:101B2400AF012C08B2072D0803110318013E031955
:101B34009C2DB3072E0803110318013E0319A32D8E
:101B4400B4072F0803110318013E0319AA2DB50782
:101B54003D08AC00AD01AE01AF012C08B8072D085B
:101B640003110318013E0319B82DB9072E080311F8
:101B74000318013E0319BF2DBA072F0803110318D8
:101B8400013E0319C62DBB070830AC000310B20D8B
:101B9400B30DB40DB50DAC0BC82D2508AC002C0845
:101BA400F00028080A168A159D240A128A1571085D
:101BB40083120313BD007008BC003C08AC003D0850
:101BC400AD00AE01AF012C08B2072D0803110318B4
:101BD400013E0319EE2DB3072E0803110318013E2D
:101BE4000319F52DB4072F0803110318013E031937
:101BF400FC2DB5072408AC002C08F00029080A16AF
:101C04008A159D240A128A15710883120313BD00D4
:101C14007008BC003C08AC003D08AD00AE01AF014B
:101C24002C08B2072D0803110318013E03191B2EBB
:101C3400B3072E0803110318013E0319222EB4071B
:101C44002F0803110318013E0319292EB507083084
:101C5400AC000310B20DB30DB40DB50DAC0B2B2EAF
:101C64002408AC002C08F00028080A168A159D24C4
:101C74000A128A15710883120313BD007008BC0090
:101C84003C08AC003D08AD00AE01AF012C08B20722
:101C94002D0803110318013E0319512EB3072E0812
:101CA40003110318013E0319582EB4072F0803111A
:101CB4000318013E03195F2EB5072508AC002C0854
:101CC400F0002A080A168A159D240A128A1571083A
:101CD40083120313BD007008BC003C08AC003D082F
:101CE400AD00AE01AF012C08B8072D08031103188D
:101CF400013E03197E2EB9072E0803110318013E75
:101D04000319852EBA072F0803110318013E03197E
:101D14008C2EBB072608AC002C08F00029080A16F4
:101D24008A159D240A128A15710883120313BD00B3
:101D34007008BC003C08AC003D08AD00AE01AF012A
:101D44002C08B8072D0803110318013E0319AB2E04
:101D5400B9072E0803110318013E0319B22EBA075E
:101D64002F0803110318013E0319B92EBB072608D7
:101D7400AC002C08F0002A080A168A159D240A12C1
:101D84008A15710883120313BD007008BC003C0857
:101D9400AC003D08AD00AE01AF0108300310AC0D3E
:101DA400AD0DAE0DAF0DFF3E031DD02E2C08B807B0
:101DB4002D0803110318013E0319E12EB9072E085B
:101DC40003110318013E0319E82EBA072F08031163
:101DD4000318013E0319EF2EBB073208AC00330889
:101DE400AD003408AE003508AF0018300310AF0C56
:101DF400AE0CAD0CAC0CFF3E031DF82E2C08B8073E
:101E04002D0803110318013E0319092FB9072E08E1
:101E140003110318013E0319102FBA072F080311E9
:101E24000318013E0319172FBB070830AC00031039
:101E3400B20DB30DB40DB50DAC0B192F3708360721
:101E4400AC00AD01AD0D2C08823EBC002D0803187A
:101E5400013EFF3EBD004B2F0130AC000310B80D16
:101E6400B90DBA0DBB0DAC0B302FB51F3A2F3B2F5C
:101E74003C2F38140130AC000310B20DB30DB40D77
:101E8400B50DAC0B3E2FFF30BC070318BD0AFF3065
:101E9400BD07BA1F4E2F4F2F2E2FB601B51F532F3C
:101EA400542F702FFF303205AC00FF303305AD00E6
:101EB400FF303405AE007F303505AF002F082E0407
:101EC4002D042C040319672F682F6B2FB601B60A53
:101ED400702F381C6E2F6F2F702F682F3608031940
:101EE400742F752FA62F0130B80700300318013066
:101EF400B907003003180130BA0700300318013065
:101F0400BB073B1C862F872FA62F3808AC00390847
:101F1400AD003A08AE003B08AF000130B0002F0D11
:101F2400AF0CAE0CAD0CAC0CB00B912F2F08BB005A
:101F34002E08BA002D08B9002C08B8000130BC07DF
:101F44000318BD0A0030BD073D08803AFF00803009
:101F54007F02031DAF2FFF303C02031CB22FB32FAF
:101F6400BE2F7F3083120313BB008030BA000030D1
:101F7400B9000030B800F32F831203133D08803AF0
:101F8400FF0080307F02031DC92F01303C0203187B
:101F9400CC2FCD2FD92F003083120313BB00003078
:101FA400BA000030B9000030B800B101F32F831239
:101FB40003133C08AC002C08B700FF30B805FF3011
:101FC400B9057F30BA050030BB05371CEA2FEB2F6B
:101FD400EC2FBA173708AC0003102C0CAD002D08F9
:101FE400BB003108AC002C08BB043B08A7003A082E
:101FF400A6003908A5003808A4000800FF1B0A2819
:1020040083137F1883170008840A0319FF0A080042
:1020140010308A000408840A820700340034003433
:1020240080343F34003400342034413400340034EC
:10203400C8344234003400347A34443400344034F4
:102044001C34463400345034C3344734003424340C
:10205400743449348034963418344B342034BC34CA
:10206400BE344C3428346B346E344E34F934023478
:1020740015345034EC347834AD346034CA34F2342A
:10208400493471340034003480343F34CD34CC349A
:10209400CC343D340A34D73423343C346F341234D2
:1020A40083343A341734B734D1343834AC34C53487
:1020B40027343734BD343734863435349534BF341B
:1020C400D63433347734CC342B3432345F347034F4
:1020D40089343034FF34E634DB342E340834E534C8
:1020E4003C341E3460344234A2340D3401340034A0
:1020F400003400340A3400340034003464340034CE
:1021040000340034E8340334003400341034273409
:1021140000340034A0348634013400344034423472
:102124000F34003480349634983400340034E1346D
:10213400F53405340034CA349A343B3456346F349D
:102144006C34743461346A34653420346D346534E9
:102154006434693464346F34003425346634203490
:0C21640076346F346C34743473340034FF
:1021720073087204710470040319C028C128C328AB
:102182008030F306080000307005F8000030710559
:10219200F90080307205FA007F307305FB007B087E
:1021A2007A0479047804031DD728D828E02800305F
:1021B200F3000030F2000030F1000030F000003097
:1021C2007405F80000307505F90080307605FA00D4
:1021D2007F307705FB007B087A0479047804031DBD
:1021E200F328F428FC280030F7000030F600003015
:1021F200F5000030F400F31FFF28002924290030E5
:10220200F8000030F9000030FA008030FB0070085E
:10221200F8027108031C710F0F291029F9027208C4
:10222200031C720F15291629FA027308031C730F77
:102232001B291C29FB027B08F3007A08F2007908AB
:10224200F1007808F000F71F272928294C290030CF
:10225200F8000030F9000030FA008030FB0074080A
:10226200F8027508031C750F37293829F902760818
:10227200031C760F3D293E29FA027708031C770FCB
:1022820043294429FB027B08F7007A08F600790803
:10229200F5007808F4008030F3068030F7067708FE
:1022A2007302031D5E2976087202031D5E297508FA
:1022B2007102031D5E2974087002031861296229E4
:1022C20064290310652903140800F800780803192B
:1022D2006B296C298029F31F6F29702980297009C5
:1022E200FA007109FB007209FC007309FD00FA0A89
:1022F2000319FB0A0319FC0A0319FD0A882973084A
:10230200FD007208FC007108FB007008FA007308F7
:10231200720471047004031D8F29902999290030D9
:10232200F3000030F2000030F1000030F0001F2A0C
:102332009630F4007408F900AB290130F4007408F7
:10234200F90701300310FD0CFC0CFB0CFA0CFF3EEC
:10235200031DA329FE307D05031DB029B1299E2945
:10236200CD290130F4007408F9070130FA07003072
:1023720003180130FB07003003180130FC0700305E
:1023820003180130FD0701300310FD0CFC0CFB0C9F
:10239200FA0CFF3E031DC529FF307D05031DD2291E
:1023A200D329B229DF290130F9020130F4000310E8
:1023B200FA0DFB0DFC0DFD0DF40BD829FC1BE229D7
:1023C200E329E929023079020318E829E929D42905
:1023D2007918EC29ED29F529FF30FA05FF30FB05C4
:1023E2007F30FC05FF30FD050310F90C7908F4007D
:1023F200F501F601F70118300310F40DF50DF60D95
:10240200F70DFF3E031DFD297408FA047508FB044D
:102412007608FC047708FD0478080319112A122AA9
:10242200172AF31F152A162A172AFD177D08F3000B
:102432007C08F2007B08F1007A08F00008007008BE
:10244200F8007108F9007208FA000310790D7A0D8C
:10245200FB007B0883120313A5002508031D322A03
:10246200332A3C2A0030F3000030F2000030F10041
:102472000030F000DC2A7408F8007508F9007608CC
:10248200FA000310790D7A0DFB007B08A4002408E2
:10249200031D4C2A4D2A4E2A332AF117FF30F0052C
:1024A200FF30F1050030F205F517FF30F405FF307B
:1024B200F5050030F6050030A3000030A200003020
:1024C200A1000030A0007F30A50298302407F80058
:1024D2007808A5021830F8007808A4000130F80046
:1024E2000310A00DA10DA20DA30DF80B712A760801
:1024F2007202031D822A75087102031D822A740862
:102502007002031C852A862A912A7408F002750833
:10251200031C750FF1027608031C760AF2022014DE
:1025220001300310F00DF10DF20DFF3E031D922A52
:102532000130A402031D9E2A9F2A6F2AA51FA22AE8
:10254200A32ABD2A2508803A973E0318A92AAA2A57
:10255200AB2A332A01300310A30CA20CA10CA00C4D
:10256200FF3E031DAC2A0130F8007808A507031DC1
:10257200BB2ABC2AAB2AD42A18302502031CC22A41
:10258200C32ACF2A332A0130F8000310A00DA10D6F
:10259200A20DA30DF80BC62A0130A5022508031DC2
:1025A200D32AD42AC42A2308F3002208F2002108DD
:1025B200F1002008F00008000310720D730DF800FE
:1025C200780883120313A5002508031DE92AEA2AC5
:1025D200F32A0030F3000030F2000030F100003046
:1025E200F0009A2B0310760D770DF8007808A400FE
:1025F2002408031DFD2AFE2AFF2AEA2AF217FF30C9
:10260200F005FF30F105FF30F2050030F305F61753
:10261200FF30F405FF30F505FF30F6050030F70511
:102622000030A3000030A2000030A1000030A00062
:102632007F30A502A0302407F8007808A5022030D8
:10264200F8007808A4000130F8000310A00DA10DD5
:10265200A20DA30DF80B262B77087302031D3B2B4B
:1026620076087202031D3B2B75087102031D3B2B7A
:1026720074087002031C3E2B3F2B4E2B7408F00291
:102682007508031C750FF1027608031C760FF2021F
:102692007708031C770FF30220140130F8000310AF
:1026A200F00DF10DF20DF30DF80B502B0130A402D9
:1026B200031D5C2B5D2B242BA51F602B612B7B2B19
:1026C2002508803A9F3E0318672B682B692BEA2A5C
:1026D20001300310A30CA20CA10CA00CFF3E031DA1
:1026E2006A2B0130F8007808A507031D792B7A2B95
:1026F200692B922B20302502031C802B812B8D2BE2
:10270200EA2A0130F8000310A00DA10DA20DA30DBD
:10271200F80B842B0130A5022508031D912B922B67
:10272200822B2308F3002208F2002108F10020087E
:10273200F00008008312031345088039C6004608DA
:10274200CF004508C6004607C7004708D600C41F89
:10275200AB2BAC2BAD2B561456080319B12BB22B55
:10276200C22B560A031DB62BB72BBF2B0030C50058
:102772000030C4000030C3000030C200C417C501DD
:10278200CA2B0030C5000030C4000030C300003046
:10279200C20041088039C6004608CF064108C6007B
:1027A2004607C7004708D700C01FD82BD92BDA2B02
:1027B200571457080319DE2BDF2BEF2B570A031D83
:1027C200E32BE42BEC2B0030C1000030C0000030C2
:1027D200BF000030BE00C017C101F72B0030C1009E
:1027E2000030C0000030BF000030BE00410840048D
:1027F2003F043E04031DFE2BFF2B182C0030C500A6
:102802000030C4000030C3000030C2008030C40475
:102812007F30C5044F08C6004608C5044508C100FC
:102822004408C0004308BF004208BE00772D560886
:10283200031D1C2C1D2C262C0030C1000030C000B2
:102842000030BF000030BE00772D5608C600C70119
:102852004708C90057084602C800031CC9034808B4
:102862007F3ED00049080318013E003ED1004508D2
:10287200CE004408CD004308CC004208CB00003013
:10288200C5000030C4000030C3000030C200003078
:10289200D5000030D4000030D3000030D200D70180
:1028A2009C2C57080319562C572C772C0130C60044
:1028B2000310CB0DCC0DCD0DCE0DC60B592C013016
:1028C200C6000310C20DC30DC40DC50DC60B622C8C
:1028D200D51F6C2C6D2C6E2C42140130C6000310D7
:1028E200D20DD30DD40DD50DC60B702C41084E025E
:1028F200031D852C40084D02031D852C3F084C0208
:10290200031D852C3E084B02031C882C892C982C15
:1029120055173E08CB023F08031C3F0FCC0240086C
:10292200031C400FCD024108031C410FCE020130AF
:10293200C6004608D7071A305702031CA12CA22C46
:10294200522C4E084D044C044B040319A92CAA2CFA
:10295200C92C5214C92C0130C6000310C20DC30D7C
:10296200C40DC50DC60BAE2CD51FB82CB92CBA2C74
:1029720042140130C6000310D20DD30DD40DD50D73
:10298200C60BBC2CFF30D0070318D10AFF30D10789
:10299200C41FCC2CCD2CAC2CD701D51FD12CD22CC2
:1029A200EE2CFF305205C600FF305305C700FF3042
:1029B2005405C8007F305505C9004908480447043A
:1029C20046040319E52CE62CE92CD701D70AEE2C94
:1029D200421CEC2CED2CEE2CE62C57080319F22CA1
:1029E200F32C242D0130C207003003180130C30735
:1029F200003003180130C407003003180130C50746
:102A0200451C042D052D242D4208C6004308C7008D
:102A12004408C8004508C9000130CA00490DC90C64
:102A2200C80CC70CC60CCA0B0F2D4908C5004808B4
:102A3200C4004708C3004608C2000130D00703188B
:102A4200D10A0030D1075108803AFF0080307F025E
:102A5200031D2D2DFF305002031C302D312D3F2D33
:102A6200FF3083120313D0000030D1000030C500C4
:102A72000030C4000030C3000030C20083120313D0
:102A82005108803AFF0080307F02031D4A2D013039
:102A9200500203184D2D4E2D5B2D83120313D001CE
:102AA200D1010030C5000030C4000030C300003046
:102AB200C200CF01831203135008C6004608D60095
:102AC200561C642D652D672DC4176B2D7F30C600F3
:102AD2004608C4055608C6000310460CC70047083E
:102AE200C5004F08C6004608C5040F2C0800831213
:102AF200031355088039DA005A08E2005508DA0053
:102B02005A07DB005B08E400D41F882D892D8A2D2B
:102B12006414640803198E2D8F2D9F2D640A031DE2
:102B2200932D942D9C2D0030D5000030D400003020
:102B3200D3000030D200D417D501A72D0030D50024
:102B42000030D4000030D3000030D2005908803960
:102B5200DA005A08E300630862060319B12DB22DA8
:102B6200B32D62175908DA005A07DB005B08E3004D
:102B7200D81FBC2DBD2DBE2D631463080319C22DB1
:102B8200C32DD32D630A031DC72DC82DD02D0030B0
:102B9200D9000030D8000030D7000030D600D81756
:102BA200D901DB2D0030D9000030D8000030D70029
:102BB2000030D600640863020318E02DE12D252EB3
:102BC200621FE42DE52DE92D8030DA005A08E20675
:102BD2006408DA005A08E5006308DA005A08E400DB
:102BE2006508DA005A08E3005208DA005A08E500DC
:102BF2005608DA005A08D2006508DA005A08D600E8
:102C02005308DA005A08E5005708DA005A08D300D8
:102C12006508DA005A08D7005408DA005A08E500B5
:102C22005808DA005A08D4006508DA005A08D800B1
:102C32005508DA005A08E5005908DA005A08D500A2
:102C42006508DA005A08D900E5016308DA00DB01F9
:102C52005B08DD0064085A02DC00031CDD035D082A
:102C6200803AFF0080307F02031D392E1A305C0249
:102C7200031C3C2E3D2E7A2E831203135508540456
:102C820053045204031D462E482E0130492E0030B3
:102C9200DA005A08E5000030D5000030D4000030D8
:102CA200D3000030D2006308DA005A08E400822E12
:102CB200651C5C2E5D2E662E6508DA0003105A0C28
:102CC2000138DB005B08E500682E0310E50C521C9E
:102CD2006B2E6C2E6D2EE5170130DA00550DD50CDA
:102CE200D40CD30CD20CDA0B6F2E0130DA005A0856
:102CF200E4078312031363086402031C812E822EED
:102D0200592E621B852E862ED12E6408031D8A2E13
:102D12008B2E942E0030D5000030D4000030D3002A
:102D22000030D200FF2F5608D207570803110318AC
:102D3200013E03199D2ED307580803110318013EC3
:102D42000319A42ED407590803110318013E0319CD
:102D5200AB2ED507551CAE2EAF2E852F651CB22E7D
:102D6200B32EBC2E6508DA0003105A0C0138DB00C2
:102D72005B08E500BE2E0310E50C521CC12EC22ECC
:102D8200C32EE5170130DA00550DD50CD40CD30C47
:102D9200D20CDA0BC52E0130DA005A08E407852F6F
:102DA2005508803AFF005908803A7F02031DE32E3E
:102DB20058085402031DE32E57085302031DE32E45
:102DC200560852020318E62EE72E3F2FFF30DA0094
:102DD200FF30DB00FF30DC00FF30DD005608DE0094
:102DE2005708DF005808E0005908E1005208DE02E7
:102DF2005308031C530FFE2EFF2EDF025408031C40
:102E0200540F042F052FE0025508031C550F0A2FFB
:102E12000B2FE1025E08DA075F0803185F0F122F1B
:102E2200132FDB0760080318600F182F192FDC0718
:102E320061080318610ADD075D08D5005C08D4004B
:102E42005B08D3005A08D2008030DA005A08E20642
:102E5200E509E50A6508031D2F2F302F4D2F01309C
:102E6200D207003003180130D307003003180130B5
:102E7200D407003003180130D5074D2F5608D2026F
:102E82005708031C570FD3025808031C580FD402CB
:102E92005908031C590FD50255085404530452040F
:102EA200031D542F552F812F6508031D592F5A2FAB
:102EB200812F0030D5000030D4000030D300003024
:102EC200D200FF2F0130DA000310D20DD30DD40D42
:102ED200D50DDA0B652FE51F6F2F702F712F52144E
:102EE200651C742F752F782F0314E50D7A2F0310AC
:102EF200E50D640803197E2F7F2F812F0130E40234
:102F0200D41F842F852F632FE301E51F892F8A2F7A
:102F1200982F65087F3903198F2F902F932FE30184
:102F2200E30A982F521C962F972F982F902F630801
:102F320003199C2F9D2FD12F0130D2070030031887
:102F42000130D307003003180130D40700300318D2
:102F52000130D507551CAE2FAF2FD12F5208DA0002
:102F62005308DB005408DC005508DD000130DE00A8
:102F72005D0DDD0CDC0CDB0CDA0CDE0BB92F5D0811
:102F8200D5005C08D4005B08D3005A08D200640A5A
:102F92000319CC2FCD2FD12F0130DA005A08E407C4
:102FA200640A0319D52FD62FDB2F6408031DDA2FED
:102FB200DB2FE92F0030D5000030D4000030D300E1
:102FC2000030D2006408031DE72FE82FE92FE20149
:102FD200641CEC2FED2FEF2FD417F32F7F30DA0084
:102FE2005A08D4056408DA0003105A0CDB005B08A7
:0E2FF200D500E21FFD2FFE2FFF2FD517080080
:1037A00000300A168A1501240A168A1501300A16F5
:1037B0008A1501240A168A1508000130831603139E
:1037C000850001308316031788000130831203132C
:1037D0009F008030831603139F0008000130F00023
:1037E0007008831603138C056030831203138E0058
:1037F000F0308F0010140C1CFE2BFF2BFB2B0C1039
:103800000800F10083120313081171080A168A15C3
:1038100032240A168A158312031388150A168A158C
:10382000EE230A168A1583120313881108008316E3
:10383000031388010A168A15FE240A168A150A1629
:103840008A15D0230A168A150A168A15DD230A1648
:103850008A150A128A1563200A168A15292C0A125B
:103860008A110028F000701C362C372C3B2C831258
:10387000031308163E2C831203130812F01C412C6C
:10388000422C442C8816452C8812701D482C492C3B
:103890004B2C08174C2C0813F01D4F2C502C522C7D
:1038A0008817532C88130800803083120313E9060D
:1038B0006D08D5006C08D4006B08D3006A08D200EC
:1038C0006908D9006808D8006708D7006608D600DC
:1038D0000A168A1178250A168A15831203135508C9
:1038E000E9005408E8005308E7005208E600080021
:1038F000F401F501701C7D2C7E2C842C7208F407D9
:103900000318F50A7308F50701300310F20DF30DE3
:10391000FF3E031D852C01300310F10CF00CFF3E1F
:10392000031D8C2C70087104031D972C982C7A2C85
:103930007508F1007408F0000800F800F401F501C2
:103940007008F200F3017208F6007308F700781CA3
:10395000AA2CAB2CB12C7608F4070318F50A7708CB
:10396000F50701300310F60DF70DFF3E031DB22CD5
:103970000310F80C7808031DBE2CBF2CA72C75086B
:10398000F1007408F0000800700871040319C92CD4
:10399000CA2CF92CF501F50AD82C01300310F00DD2
:1039A000F10DFF3E031DCE2C0130F4007408F50725
:1039B000F11FDB2CDC2CCD2C71087302031DE22CD3
:1039C00070087202031CE52CE62CEC2C7008F20245
:1039D0007108031CF303F30201300310F10CF00C27
:1039E000FF3E031DED2C0130F502031DF82CF92CD0
:1039F000DC2C7308F1007208F000080000300A1691
:103A00008A1532240A168A1503300A168A150124EB
:103A10000A168A1503300A168A1501240A168A1511
:103A200002300A168A1501240A168A1502300A166F
:103A30008A1501240A168A1508300A168A150124E7
:103A40000A168A1500300A168A1501240A168A15E4
:103A50000C300A168A1501240A168A1500300A1637
:103A60008A1501240A168A1506300A168A150124B9
:103A70000A168A150800FA01FB01602D7A087507FD
:103A8000F8007608F7000318F70AFA1F482DF70325
:103A90007708F900790883120313FF00780884007F
:103AA0000A168A1100200A168A150A128A110320A2
:103AB0000A168A150130FA070318FB0A0030FB07C3
:103AC0007A087507F8007608F7000318F70AFA1F56
:103AD0006A2DF7037708F900790883120313FF00B2
:103AE000780884000A168A1100200A168A15003AFE
:103AF000031D7B2D7C2D3E2D0800FB01FC0176086B
:103B000077040319842D852DBC2DFD01FD0A932D0D
:103B100001300310F60DF70DFF3E031D892D013016
:103B2000FA007A08FD07F71F962D972D882D013092
:103B30000310FB0DFC0DFF3E031D982D7708790245
:103B4000031DA42D76087802031CA72DA82DAF2DE8
:103B50007608F8027708031CF903F9027B14013098
:103B60000310F70CF60CFF3E031DB02D0130FD02D3
:103B7000031DBB2DBC2D972D7C08F7007B08F6009C
:103B8000080000307005F80000307105F900803041
:103B90007205FA007F307305FB007B087A04790414
:103BA0007804031DD42DD52DDD2D0030F300003019
:103BB000F2000030F1000030F00000307405F80031
:103BC00000307505F90080307605FA007F30770502
:103BD000FB007B087A0479047804031DF02DF12D95
:103BE000F92D0030F7000030F6000030F50000300D
:103BF000F40077087306031D072E76087206031D6E
:103C0000072E75087106031D072E74087006031928
:103C10000A2E0B2E0D2E03100E2E03140800F50095
:103C20007503031D142E152E382E72087F3EF300E7
:103C30007308F8007808F30004300310F30CFF3E1B
:103C4000031D1D2E7308F4007408F60078080F3960
:103C5000F3007308F70076080A168A1501240A167D
:103C60008A1577080A168A1501240A168A15602E05
:103C700002307506031D3D2E3E2E602E7208BF3E9B
:103C8000F3007308F8007808F30004300310F30C15
:103C9000FF3E031D462E7308F4007408F6007808F2
:103CA0000F39F3007308F70076080A168A15012405
:103CB0000A168A1577080A168A1501240A168A1523
:103CC000080073087204710470040319682E692EC9
:103CD000AC2EF901F90A792E0130F8000310F00D2D
:103CE000F10DF20DF30DF80B6E2E0130F80078088F
:103CF000F907F31F7C2E7D2E6C2E73087702031DAF
:103D00008B2E72087602031D8B2E71087502031D1F
:103D10008B2E70087402031C8E2E8F2E9D2E700821
:103D2000F4027108031C710FF5027208031C720F74
:103D3000F6027308031C730FF70201300310F30C33
:103D4000F20CF10CF00CFF3E031D9E2E0130F90227
:103D5000031DAB2EAC2E7D2E7708F3007608F20003
:103D60007508F1007408F00008000030FC00003015
:103D7000FB000030FA000030F9007308720471048F
:103D800070040319C42EC52E122FFD01FD0AD52E75
:103D90000130F8000310F00DF10DF20DF30DF80BEA
:103DA000CA2E0130F8007808FD07F31FD82ED92E4F
:103DB000C82E0130F8000310F90DFA0DFB0DFC0DB3
:103DC000F80BDB2E73087702031DF02E72087602C3
:103DD000031DF02E71087502031DF02E7008740289
:103DE000031CF32EF42E032F7008F4027108031C39
:103DF000710FF5027208031C720FF6027308031CA0
:103E0000730FF702791401300310F30CF20CF10C6C
:103E1000F00CFF3E031D042F0130FD02031D112F86
:103E2000122FD92E7C08F3007B08F2007A08F100EB
:103E30007908F000080083120313A101F81F212F55
:103E4000222F292FF709F809F70A0319F80AA10107
:103E5000A10AFA1F2C2F2D2F362FF909FA09F90A7A
:103E60000319FA0A0130FB007B08A106A201A30195
:103E70007708780403193D2F3E2F752FA001A00A63
:103E80004C2F01300310F70DF80DFF3E031D422F9C
:103E90000130FB007B08A007F81F4F2F502F412F48
:103EA00001300310A20DA30DFF3E031D512F780812
:103EB0007A02031D5D2F77087902031C602F612FA2
:103EC000682F7708F9027808031CFA03FA02221413
:103ED00001300310F80CF70CFF3E031D692F013071
:103EE000A002031D742F752F502F21080319792F5D
:103EF0007A2F7F2FA209A309A20A0319A30A230874
:103F0000F8002208F7000800031083120313530D72
:103F1000540DD5005508DB005B08031D902F912F31
:103F20009A2F0030D4000030D3000030D20000308F
:103F3000D100FF2F5108D5005208D6005308D700F2
:103F40005408D8001F300310D80CD70CD60CD50C51
:103F5000FF3E031DA32F5508D9005908DA00D317D7
:103F6000FF30D105FF30D205FF30D3050030D40536
:103F70009630DB02DB1FBD2FBE2FD82F5B08803AA7
:103F8000973E0318C42FC52FC62F912F0130031061
:103F9000D40CD30CD20CD10CFF3E031DC72F013023
:103FA000D5005508DB07031DD62FD72FC62FEF2FBF
:103FB00020305B02031CDD2FDE2FEA2F912F013012
:103FC000D5000310D10DD20DD30DD40DD50BE12F9B
:103FD0000130DB025B08031DEE2FEF2FDF2F5A08A5
:103FE0000319F32FF42FFF2FD109D209D309D409D4
:103FF000D10A0319D20A0319D30A0319D40A0800F3
:02400E00F7FFBA
:00000001FF
