:020000040000FA
:100000000A128A11F32FF40074080F39F1007108F5
:10001000F2007408F039F1007108F3008312031341
:1000200008157308F10004300310F10CFF3E031DA6
:10003000142871080A168A1555240A128A11831287
:1000400003138815881172080A168A1555240A1296
:100050008A11831203138815881108008312031371
:10006000D1006E305102031C3628372844293F3016
:10007000A7000030A6000030A5000030A4006430C6
:10008000F6000030F7005108C200C3014208F80032
:100090004308F9000A168A15A0250A128A11760863
:1000A00083120313C40001300310C40DFF3E031D6F
:1000B00054280310440D7D3E84000A168A110A203C
:1000C0000A128A11C5000A168A110A200A128A1118
:1000D000C6000A168A110A200A128A11C7000A16D7
:1000E0008A110A200A128A11C8004808AB00470882
:1000F000AA004608A9004508A8000A128A159F24EC
:100100000A128A11831203132708D0002608CF0091
:100110002508CE002408CD000A30F6000030F70094
:100120005108C200C3014208F2004308F3006430E2
:10013000F0000030F1000A168A15E7240A128A112D
:100140007108F9007008F8000A168A15A0250A122D
:100150008A11760883120313C40001300310C40D02
:10016000FF3E031DAE280310440D593E84000A16BD
:100170008A110A200A128A11C5000A168A110A2059
:100180000A128A11C6000A168A110A200A128A1156
:10019000C7000A168A110A200A128A11C8004808E4
:1001A000A7004708A6004608A5004508A400500877
:1001B000AB004F08AA004E08A9004D08A8000A127B
:1001C0008A159F240A128A11831203132708CC0070
:1001D0002608CB002508CA002408C9000A30F00010
:1001E0000030F1005108C200C3014208F200430888
:1001F000F3000A168A15E7240A128A11700883127E
:100200000313C40001300310C40DFF3E031D032976
:100210000310440D353E84000A168A110A200A1282
:100220008A11C5000A168A110A200A128A11C6000C
:100230000A168A110A200A128A11C7000A168A11A0
:100240000A200A128A11C8004808A7004708A60019
:100250004608A5004508A4004C08AB004B08AA00BE
:100260004A08A9004908A8000A128A159F240A1200
:100270008A11831203132708C1002608C00025082D
:10028000BF002408BE00382A0B305102031C492944
:100290004A29F5293F30A7000030A6000030A5000C
:1002A0000030A4000A30F6000030F7005108C20008
:1002B000C3014208F8004308F9000A168A15A02570
:1002C0000A128A11760883120313C4000130031046
:1002D000C40DFF3E031D67290310440D593E8400E1
:1002E0000A168A110A200A128A11C5000A168A11F2
:1002F0000A200A128A11C6000A168A110A200A1256
:100300008A11C7000A168A110A200A128A11C80027
:100310004808AB004708AA004608A9004508A800FD
:100320000A128A159F240A128A11831203132708BE
:10033000D0002608CF002508CE002408CD000A30C2
:10034000F0000030F1005108C200C3014208F20081
:100350004308F3000A168A15E7240A128A11700866
:1003600083120313C40001300310C40DFF3E031DAC
:10037000B4290310440D353E84000A168A110A2060
:100380000A128A11C5000A168A110A200A128A1155
:10039000C6000A168A110A200A128A11C7000A1614
:1003A0008A110A200A128A11C8004808A7004708C3
:1003B000A6004608A5004508A4005008AB004F0859
:1003C000AA004E08A9004D08A8000A128A159F2409
:1003D0000A128A11831203132708C1002608C000DD
:1003E0002508BF002408BE00382A3F30A70000308F
:1003F000A6000030A5000030A4005108C200013062
:100400000310C20DFF3E031D002A0310420D353EAE
:1004100084000A168A110A200A128A11C3000A16D9
:100420008A110A200A128A11C4000A168A110A20A7
:100430000A128A11C5000A168A110A200A128A11A4
:10044000C6004608AB004508AA004408A9004308B6
:10045000A8000A128A159F240A128A118312031314
:100460002708C1002608C0002508BF002408BE00D8
:10047000080083160313BD00A130A5002508AE00B7
:10048000DC2F253042060319462A472A532A420800
:10049000A5003D0884002508831380000130A500D5
:1004A0002508BD07DC2FAF01B001582A3015722A8C
:1004B0000130A007FF30200784000A168A110A20A5
:1004C0000A128A11C200A500A6012608003A0319E3
:1004D0006A2ADC2F2508003A0319EE2F663A031921
:1004E000562ADC2F00302F05A50007303005A60066
:1004F0002508260403197D2A7E2AC82F0630B1005C
:100500000030B2002E08840083130008BE00840A65
:100510000008BF00840A0008C000840A0008C10067
:100520000430A5002508AE074108F3004008F2009A
:100530003F08F1003E08F0000030F7000030F60000
:100540000030F5000030F4000A168A11D0200A129B
:100550008A110318AC2AAD2ACA2A8316031341084C
:10056000F3004008F2003F08F1003E08F0000A16D0
:100570008A1508240A128A11730883160313C1000E
:100580007208C0007108BF007008BE000330AF04DD
:100590000030B00483160313B701B8014108F3001B
:1005A0004008F2003F08F1003E08F0000030F7007C
:1005B0000030F6000030F5000030F4000A168A150D
:1005C000E4250A128A110318E62AE72AD72B03101A
:1005D00083160313400D410D823EB700FF30031810
:1005E0000030B800FF30B7070318B80AFF30B8076B
:1005F0000330F0000030F1003808F3003708F20053
:100600000A168A159B240A128A117108831603138D
:10061000B8007008B7000A30F7000030F80038085A
:10062000FA003708F9000A168A1597270A128A1164
:10063000780883160313B8007708B700B81F212B7A
:10064000222B282BFF30B7070318B80AFF30B80752
:100650003703FF3A0A128A1540210A128A118312BF
:100660000313410883160313BC00831203134008CD
:1006700083160313BB00831203133F08831603136F
:10068000BA00831203133E0883160313B90041080E
:1006900083120313A7008316031340088312031366
:1006A000A600831603133F0883120313A5008316C5
:1006B00003133E0883120313A400831603133C089C
:1006C00083120313AB00831603133B088312031337
:1006D000AA00831603133A0883120313A900831692
:1006E0000313390883120313A8000A128A159F24E2
:1006F0000A128A1183120313270883160313BC00FE
:1007000083120313260883160313BB0083120313FB
:10071000250883160313BA008312031324088316D3
:100720000313B9003C08F3003B08F2003A08F1005B
:100730003908F0003F30F7008030F6000030F50057
:100740000030F4000A168A11D0200A128A11031808
:10075000AA2BAB2BB42BFF3083160313B707031858
:10076000B80AFF30B807D72B831603133C08F300F1
:100770003B08F2003A08F1003908F0004130F70078
:100780002030F6000030F5000030F4000A168A111F
:10079000D0200A128A11031CCE2BCF2BD72B01306D
:1007A00083160313B7070318B80A0030B8070630DA
:1007B0000A128A112E200A128A1183120313410889
:1007C000D5004008D4003F08D3003E08D20083166D
:1007D0000313410883120313D9008316031340083F
:1007E00083120313D800831603133F0883120313E5
:1007F000D700831603133E0883120313D6000A168C
:100800008A1178250A128A11831203135508831658
:100810000313C10083120313540883160313C0008B
:1008200083120313530883160313BF0083120313A9
:10083000520883160313BE003808803AFF00803048
:100840007F02031D252C0A3037020318282C292C7F
:100850007A2C831603134108F3004008F2003F0886
:10086000F1003E08F0000030F7000030F6000030E4
:10087000F5000030F4000A168A15E4250A128A11E0
:100880000318432C442CEC2C8316031341088312C9
:100890000313D40083160313400883120313D300F9
:1008A000831603133F0883120313D2008316031326
:1008B0003E0883120313D1000A128A1506200A1279
:1008C0008A11831203135408530452045104031D64
:1008D0006A2C6B2CEC2C831603133808803AFF002B
:1008E00080307F02031D762C02303702031C792CE6
:1008F0007A2CEC2C831603133C08F3003B08F2001F
:100900003A08F1003908F0004030F7008930F6006D
:100910007030F5005F30F4000A168A11D0200A12F8
:100920008A110318942C952C9E2CF73083160313F0
:10093000B7070318B80AFF30B807A62CF83083169B
:100940000313B7070318B80AFF30B80737080A12AD
:100950008A1540210A128A11831203134108831653
:100960000313BC0083120313400883160313BB0058
:10097000831203133F0883160313BA008312031371
:100980003E0883160313B9004108F3004008F20043
:100990003F08F1003E08F0003C08F7003B08F60075
:1009A0003A08F5003908F4000A128A1582200A1262
:1009B0008A11730883160313B6007208B500710814
:1009C000B4007008B3000030C1000030C000003037
:1009D000BF000030BE00702D831603134108831240
:1009E0000313D40083160313400883120313D300A8
:1009F000831603133F0883120313D20083160313D5
:100A00003E0883120313D1000A128A1506200A1227
:100A10008A1183120313540883160313B60083123A
:100A20000313530883160313B500831203135208EC
:100A300083160313B40083120313510883160313A0
:100A4000B3003608F9003508F8003408F700330819
:100A5000F60000300A168A1122220A128A11790839
:100A600083120313E9007808E8007708E7007608A6
:100A7000E60083160313410883120313ED00831667
:100A80000313400883120313EC00831603133F087B
:100A900083120313EB00831603133E088312031320
:100AA000EA000A168A1577240A128A1183120313A0
:100AB000690883160313C1008312031368088316A1
:100AC0000313C00083120313670883160313BF00C8
:100AD00083120313660883160313BE00B701B8011F
:100AE000C201C20A4208A50001300310A50DFF3E55
:100AF000031D752D0310250D693E84000A168A1109
:100B00000A200A128A11A6000A168A110A200A125D
:100B10008A11A7000A168A110A200A128A11A8004F
:100B20000A168A110A200A128A11A9002908360217
:100B3000031DA42D28083502031DA42D2708340207
:100B4000031DA42D260833020318A72DA82DA92DB7
:100B5000B32D0130A5002508C2070A304206031D47
:100B6000B22DB32D722D03302F05A50000303005B6
:100B7000A600250826040319BE2DBF2D312E2D30C9
:100B8000A5003D0884002508831380000130A500DE
:100B90002508BD07312E4208A50001300310A50D20
:100BA000FF3E031DCE2D0310250D693E84000A165D
:100BB0008A110A200A128A11F0000A168A110A20E4
:100BC0000A128A11F1000A168A110A200A128A11E1
:100BD000F2000A168A110A200A128A11F300360856
:100BE000F7003508F6003408F5003308F4000A165B
:100BF0008A1531270A128A11730883160313BC0061
:100C00007208BB007108BA007008B9000030F30028
:100C10000030F2000030F1000A30F0003C08F7002C
:100C20003B08F6003A08F5003908F4000A168A1560
:100C300084260A128A11730883160313BC007208F3
:100C4000BB007108BA007008B9003908303EA50031
:100C50003D0884002508831380000130A500250885
:100C6000BD070130C202420A031D372E382ECB2D9C
:100C70004C2E303083160313A5003D088400250850
:100C8000831380000130A5002508BD07FF30B7079A
:100C90000318B80AFF30B8073808803AFF008030E0
:100CA0007F02031D552E013037020318582E592E8E
:100CB000392E831603133208803AFF0080307F02FA
:100CC000031D642E09303102031C672E682E6F2E1F
:100CD000083083160313A5002508C200752E83165D
:100CE00003133108A5002508C2004208A500A6018B
:100CF0002508B1022608031CB203B20242080319F8
:100D0000822E832E8E2E2E30A5003D0884002508CD
:100D1000831380000130A5002508BD0742080A1290
:100D20008A1540210A128A1183120313410883167F
:100D30000313AD0083120313400883160313AC00A2
:100D4000831203133F0883160313AB0083120313AC
:100D50003E0883160313AA002D0883120313AB0069
:100D6000831603132C0883120313AA00831603139C
:100D70002B0883120313A900831603132A08831276
:100D80000313A80083160313410883120313A7005B
:100D900083160313400883120313A600831603135C
:100DA0003F0883120313A500831603133E08831222
:100DB0000313A4000A128A159F240A128A118312AF
:100DC00003132708D4002608D3002508D2002408DE
:100DD000D1000A128A1506200A128A1183120313FF
:100DE000540883160313B6008312031353088316A3
:100DF0000313B50083120313520883160313B400C0
:100E000083120313510883160313B300A82F42085B
:100E1000A50001300310A50DFF3E031D0A2F03108E
:100E2000250D693E84000A168A110A200A128A11C9
:100E3000F0000A168A110A200A128A11F1000A1615
:100E40008A110A200A128A11F2000A168A110A204F
:100E50000A128A11F3003608F7003508F600340844
:100E6000F5003308F4000A168A1531270A128A1190
:100E7000730883160313BC007208BB007108BA0024
:100E80007008B9000030F3000030F2000030F100CB
:100E90000A30F0003C08F7003B08F6003A08F5007D
:100EA0003908F4000A168A1584260A128A11730872
:100EB00083160313BC007208BB007108BA007008E7
:100EC000B9003908303EA5003D0884002508831389
:100ED00080000130A5002508BD074208A5000130AB
:100EE0000310A50DFF3E031D702F0310250D693E55
:100EF00084000A168A110A200A128A11F0000A16C2
:100F00008A110A200A128A11F1000A168A110A208F
:100F10000A128A11F2000A168A110A200A128A118C
:100F2000F3003608F7003508F6003408F5003308FA
:100F3000F4000A168A1584260A128A117308831689
:100F40000313B6007208B5007108B4007008B3004E
:100F50000130C202420A031DAE2FAF2F072FC12F4F
:100F60003030A5003D08840025088313800001303F
:100F7000A5002508BD07FF30B1070318B20AFF30EE
:100F8000B20731083204031DC62FC72FB02FDC2F44
:100F900003302F05A50000303005A60025082604E3
:100FA0000319D32FD42FDC2F2D30A5003D0884004A
:100FB0002508831380004E2A0130A007FF30200748
:100FC00084000A168A110A200A128A11A50025082F
:100FD000C2004208031DED2FEE2F412A3D08840078
:100FE0008313800108008313C6308400DC300A16A6
:100FF0008A1500240A128A1183010A168A153A2CCE
:10100C00031083120313530D540DD5005508DB0048
:10101C005B08031D122813281C280030D400003054
:10102C00D3000030D2000030D10081285108D50007
:10103C005208D6005308D7005408D8001F300310AC
:10104C00D80CD70CD60CD50CFF3E031D2528550803
:10105C00D9005908DA00D317FF30D105FF30D2057B
:10106C00FF30D3050030D4059630DB02DB1F3F2860
:10107C0040285A285B08803A973E03184628472890
:10108C004828132801300310D40CD30CD20CD10CEB
:10109C00FF3E031D49280130D5005508DB07031D11
:1010AC00582859284828712820305B02031C5F28D7
:1010BC0060286C2813280130D5000310D10DD20DF7
:1010CC00D30DD40DD50B63280130DB025B08031D57
:1010DC007028712861285A080319752876288128E8
:1010EC00D109D209D309D409D10A0319D20A031997
:1010FC00D30A0319D40A08000310720D730DF800FB
:10110C00780883120313A5002508031D8E288F2849
:10111C0098280030F3000030F2000030F10000306D
:10112C00F0003F290310760D770DF8007808A40025
:10113C002408031DA228A328A4288F28F217FF3007
:10114C00F005FF30F105FF30F2050030F305F6171E
:10115C00FF30F405FF30F505FF30F6050030F705DC
:10116C000030A3000030A2000030A1000030A0002D
:10117C007F30A502A0302407F8007808A5022030A3
:10118C00F8007808A4000130F8000310A00DA10DA0
:10119C00A20DA30DF80BCB2877087302031DE028D2
:1011AC0076087202031DE02875087102031DE02801
:1011BC0074087002031CE328E428F3287408F00276
:1011CC007508031C750FF1027608031C760FF202EA
:1011DC007708031C770FF30220140130F80003107A
:1011EC00F00DF10DF20DF30DF80BF5280130A40202
:1011FC00031D01290229C928A51F05290629202913
:10120C002508803A9F3E03180C290D290E298F289A
:10121C0001300310A30CA20CA10CA00CFF3E031D6B
:10122C000F290130F8007808A507031D1E291F2976
:10123C000E29372920302502031C2529262932297D
:10124C008F280130F8000310A00DA10DA20DA30DE5
:10125C00F80B29290130A5022508031D3629372949
:10126C0027292308F3002208F2002108F1002008A6
:10127C00F000080083120313D000D01F4629472921
:10128C00F42AD009D00A5008803A123E031C4F2988
:10129C005029382A0A30F7000030F8005008F200C4
:1012AC00F301F21BF3036430F0000030F1000A1676
:1012BC008A15D8260A128A157108FA007008F900E6
:1012CC000A168A1597270A128A15770883120313B0
:1012DC00C20001300310C20DFF3E031D7029031024
:1012EC00420D593E84000A168A110A200A128A15E8
:1012FC00C3000A168A110A200A128A15C4000A169B
:10130C008A110A200A128A15C5000A168A110A20A7
:10131C000A128A15C6004608A7004508A60044080C
:10132C00A5004308A4006430F7000030F800500812
:10133C00F900FA01F91BFA030A168A1597270A1203
:10134C008A15770883120313C70001300310C70DE9
:10135C00FF3E031DAC290310470D7D3E84000A1689
:10136C008A110A200A128A15C8000A168A110A2044
:10137C000A128A15C9000A168A110A200A128A153D
:10138C00CA000A168A110A200A128A15CB004B08C9
:10139C00AB004A08AA004908A9004808A8000A128C
:1013AC008A159F240A128A15831203132708CF006B
:1013BC002608CE002508CD002408CC000A30F00009
:1013CC000030F1005008F200F301F21BF3030A168F
:1013DC008A15D8260A128A15700883120313C200C4
:1013EC0001300310C20DFF3E031DF7290310420DFF
:1013FC00353E84000A168A110A200A128A15C30087
:10140C000A168A110A200A128A15C4000A168A11B1
:10141C000A200A128A15C5000A168A110A200A1215
:10142C008A15C6004608A7004508A6004408A50072
:10143C004308A4004F08AB004E08AA004D08A900B1
:10144C004C08A8000A128A159F240A128A158312C6
:10145C0003132708C1002608C0002508BF00240874
:10146C00BE009E2C5008803A753E031C3E2A3F2A33
:10147C00C72A0A30F0000030F1005008F200F301E6
:10148C00F21BF3030A168A15D8260A128A1570085D
:10149C0083120313C20001300310C20DFF3E031D63
:1014AC00522A0310420D353E84000A168A110A2076
:1014BC000A128A15C3000A168A110A200A128A1502
:1014CC00C4000A168A110A200A128A15C5000A16C7
:1014DC008A110A200A128A15C6004608A700450878
:1014EC00A6004408A5004308A4000A30F700003009
:1014FC00F8005008F900FA01F91BFA030A168A15CC
:10150C0097270A128A15770883120313C700013034
:10151C000310C70DFF3E031D8E2A0310470D593EC5
:10152C0084000A168A110A200A128A15C8000A16A3
:10153C008A110A200A128A15C9000A168A110A2071
:10154C000A128A15CA000A168A110A200A128A156A
:10155C00CB004B08AB004A08AA004908A900480870
:10156C00A8000A128A159F240A128A1583120313E3
:10157C002708C1002608C0002508BF002408BE00AB
:10158C009E2C5008C20001300310C20DFF3E031DFB
:10159C00CA2A0310420D353E84000A168A110A200D
:1015AC000A128A15C3000A168A110A200A128A1511
:1015BC00C4000A168A110A200A128A15C5000A16D6
:1015CC008A110A200A128A15C6004608C10045086D
:1015DC00C0004408BF004308BE009E2C5008803A4F
:1015EC00123E031CFA2AFB2AE32B0A30F7000030C8
:1015FC00F8005008F200F301F21BF3036430F00022
:10160C000030F1000A168A15D8260A128A157108BC
:10161C00FA007008F9000A168A1597270A128A151B
:10162C00770883120313C20001300310C20DFF3E72
:10163C00031D1B2B0310420D253E84000A168A1134
:10164C000A200A128A15C3000A168A110A200A12E5
:10165C008A15C4000A168A110A200A128A15C500B6
:10166C000A168A110A200A128A15C6004608A70013
:10167C004508A6004408A5004308A4006430F70000
:10168C000030F8005008F900FA01F91BFA030A16A9
:10169C008A1597270A128A15770883120313C70035
:1016AC0001300310C70DFF3E031D572B0310470DD0
:1016BC00493E84000A168A110A200A128A15C800AB
:1016CC000A168A110A200A128A15C9000A168A11EA
:1016DC000A200A128A15CA000A168A110A200A124E
:1016EC008A15CB004B08AB004A08AA004908A90090
:1016FC004808A8000A128A159F240A128A15831218
:10170C0003132708CF002608CE002508CD00240897
:10171C00CC000A30F0000030F1005008F200F30168
:10172C00F21BF3030A168A15D8260A128A157008BA
:10173C0083120313C20001300310C20DFF3E031DC0
:10174C00A22B0310420D013E84000A168A110A20B6
:10175C000A128A15C3000A168A110A200A128A155F
:10176C00C4000A168A110A200A128A15C5000A1624
:10177C008A110A200A128A15C6004608A7004508D5
:10178C00A6004408A5004308A4004F08AB004E086F
:10179C00AA004D08A9004C08A8000A128A159F241B
:1017AC000A128A15831203132708C1002608C000E9
:1017BC002508BF002408BE009E2C5008803A753EB8
:1017CC00031CE92BEA2B722C0A30F0000030F100DC
:1017DC005008F200F301F21BF3030A168A15D826FF
:1017EC000A128A15700883120313C2000130031009
:1017FC00C20DFF3E031DFD2B0310420D013E840064
:10180C000A168A110A200A128A15C3000A168A11AE
:10181C000A200A128A15C4000A168A110A200A1212
:10182C008A15C5000A168A110A200A128A15C600E2
:10183C004608A7004508A6004408A5004308A400D4
:10184C000A30F7000030F8005008F900FA01F91BD3
:10185C00FA030A168A1597270A128A157708831233
:10186C000313C70001300310C70DFF3E031D392CB5
:10187C000310470D253E84000A168A110A200A120D
:10188C008A15C8000A168A110A200A128A15C9007C
:10189C000A168A110A200A128A15CA000A168A1117
:1018AC000A200A128A15CB004B08AB004A08AA0082
:1018BC004908A9004808A8000A128A159F240A1290
:1018CC008A15831203132708C1002608C0002508B7
:1018DC00BF002408BE009E2C5008C200013003102B
:1018EC00C20DFF3E031D752C0310420D013E8400FA
:1018FC000A168A110A200A128A15C3000A168A11BE
:10190C000A200A128A15C4000A168A110A200A1221
:10191C008A15C5000A168A110A200A128A15C600F1
:10192C004608C1004508C0004408BF004308BE007B
:10193C0008008312031327088039AC002C08B1006F
:10194C002708AC002C07AD002D08B700A61FAF2C44
:10195C00B02CB12C371437080319B52CB62CC52C68
:10196C00370A031DBA2CBB2CC32C0030A700003047
:10197C00A6000030A5000030A400A617CD2C003026
:10198C00A7000030A6000030A5000030A4002B08F2
:10199C008039AC002C08B1062B08AC002C07AD002C
:1019AC002D08B600AA1FDB2CDC2CDD2C36143608D7
:1019BC000319E12CE22CF12C360A031DE62CE72C42
:1019CC00EF2C0030AB000030AA000030A900003032
:1019DC00A800AA17F92C0030AB000030AA00003088
:1019EC00A9000030A80036080319FD2CFE2C032D8D
:1019FC003708031D022D032D0C2D0030A7000030DD
:101A0C00A6000030A5000030A400FF2F2408AC0075
:101A1C002C08F0002A080A168A15C0240A128A1506
:101A2C00710883120313BD007008BC003C08AC00A5
:101A3C00AD01AE01AF012F08B5002E08B4002D0882
:101A4C00B3002C08B2003D08AC00AD01AE01AF01F3
:101A5C002F08BB002E08BA002D08B9002C08B800BE
:101A6C002508AC002C08F00029080A168A15C02499
:101A7C000A128A15710883120313BD007008BC008A
:101A8C003C08AC00AD01AE01AF012C08B2072D082B
:101A9C0003110318013E0319542DB3072E0803112B
:101AAC000318013E03195B2DB4072F08031103180B
:101ABC00013E0319622DB5073D08AC00AD01AE0126
:101ACC00AF012C08B8072D0803110318013E0319A8
:101ADC00702DB9072E0803110318013E0319772D39
:101AEC00BA072F0803110318013E03197E2DBB07FB
:101AFC002608AC002C08F00028080A168A15C02409
:101B0C000A128A15710883120313BD007008BC00F9
:101B1C003C08AC00AD01AE01AF012C08B2072D089A
:101B2C0003110318013E03199C2DB3072E08031152
:101B3C000318013E0319A32DB4072F080311031832
:101B4C00013E0319AA2DB5073D08AC00AD01AE014D
:101B5C00AF012C08B8072D0803110318013E031917
:101B6C00B82DB9072E0803110318013E0319BF2D18
:101B7C00BA072F0803110318013E0319C62DBB0722
:101B8C000830AC000310B20DB30DB40DB50DAC0B99
:101B9C00C82D2508AC002C08F00028080A168A1558
:101BAC00C0240A128A15710883120313BD00700831
:101BBC00BC003C08AC003D08AD00AE01AF012C08E8
:101BCC00B2072D0803110318013E0319EE2DB307BC
:101BDC002E0803110318013E0319F52DB4072F0825
:101BEC0003110318013E0319FC2DB5072408AC00A2
:101BFC002C08F00029080A168A15C0240A128A1526
:101C0C00710883120313BD007008BC003C08AC00C3
:101C1C003D08AD00AE01AF012C08B2072D08031131
:101C2C000318013E03191B2EB3072E0803110318CA
:101C3C00013E0319222EB4072F0803110318013E8D
:101C4C000319292EB5070830AC000310B20DB30DE3
:101C5C00B40DB50DAC0B2B2E2408AC002C08F000E9
:101C6C0028080A168A15C0240A128A1571088312CC
:101C7C000313BD007008BC003C08AC003D08AD006F
:101C8C00AE01AF012C08B2072D0803110318013E59
:101C9C000319512EB3072E0803110318013E031923
:101CAC00582EB4072F0803110318013E03195F2E99
:101CBC00B5072508AC002C08F0002A080A168A156E
:101CCC00C0240A128A15710883120313BD00700810
:101CDC00BC003C08AC003D08AD00AE01AF012C08C7
:101CEC00B8072D0803110318013E03197E2EB907FE
:101CFC002E0803110318013E0319852EBA072F086D
:101D0C0003110318013E03198C2EBB072608AC00E7
:101D1C002C08F00029080A168A15C0240A128A1504
:101D2C00710883120313BD007008BC003C08AC00A2
:101D3C003D08AD00AE01AF012C08B8072D0803110A
:101D4C000318013E0319AB2EB9072E080311031813
:101D5C00013E0319B22EBA072F0803110318013ED6
:101D6C000319B92EBB072608AC002C08F0002A0872
:101D7C000A168A15C0240A128A15710883120313D5
:101D8C00BD007008BC003C08AC003D08AD00AE01C5
:101D9C00AF0108300310AC0DAD0DAE0DAF0DFF3E15
:101DAC00031DD02E2C08B8072D0803110318013E73
:101DBC000319E12EB9072E0803110318013E03196C
:101DCC00E82EBA072F0803110318013E0319EF2E52
:101DDC00BB073208AC003308AD003408AE00350840
:101DEC00AF0018300310AF0CAE0CAD0CAC0CFF3EBA
:101DFC00031DF82E2C08B8072D0803110318013EFB
:101E0C000319092FB9072E0803110318013E0319F2
:101E1C00102FBA072F0803110318013E0319172FAF
:101E2C00BB070830AC000310B20DB30DB40DB50DEB
:101E3C00AC0B192F37083607AC00AD01AD0D2C08D3
:101E4C00823EBC002D080318013EFF3EBD004B2F07
:101E5C000130AC000310B80DB90DBA0DBB0DAC0BB5
:101E6C00302FB51F3A2F3B2F3C2F38140130AC00CC
:101E7C000310B20DB30DB40DB50DAC0B3E2FFF30EE
:101E8C00BC070318BD0AFF30BD07BA1F4E2F4F2FDA
:101E9C002E2FB601B51F532F542F702FFF30320544
:101EAC00AC00FF303305AD00FF303405AE007F30A1
:101EBC003505AF002F082E042D042C040319672FB1
:101ECC00682F6B2FB601B60A702F381C6E2F6F2F30
:101EDC00702F682F36080319742F752FA62F013019
:101EEC00B807003003180130B9070030031801306F
:101EFC00BA07003003180130BB073B1C862F872F15
:101F0C00A62F3808AC003908AD003A08AE003B08E3
:101F1C00AF000130B0002F0DAF0CAE0CAD0CAC0C03
:101F2C00B00B912F2F08BB002E08BA002D08B9005A
:101F3C002C08B8000130BC070318BD0A0030BD07DF
:101F4C003D08803AFF0080307F02031DAF2FFF3029
:101F5C003C02031CB22FB32FBE2F7F30831203130E
:101F6C00BB008030BA000030B9000030B800F32F4D
:101F7C00831203133D08803AFF0080307F02031D5B
:101F8C00C92F01303C020318CC2FCD2FD92F003094
:101F9C0083120313BB000030BA000030B9000030CC
:101FAC00B800B101F32F831203133C08AC002C08CA
:101FBC00B700FF30B805FF30B9057F30BA050030E7
:101FCC00BB05371CEA2FEB2FEC2FBA173708AC00E8
:101FDC0003102C0CAD002D08BB003108AC002C08F4
:101FEC00BB043B08A7003A08A6003908A50038082E
:101FFC00A4000800FF1B0A2883137F18831700080E
:10200C00840A0319FF0A080010308A000408840AA5
:10201C00820700340034003480343F340034003400
:10202C002034413400340034C83442340034003499
:10203C007A344434003440341C3446340034503444
:10204C00C3344734003424347434493480349634E3
:10205C0018344B342034BC34BE344C3428346B34F8
:10206C006E344E34F934023415345034EC34783444
:10207C00AD346034CA34F234493471340034003431
:10208C0080343F34CD34CC34CC343D340A34D73462
:10209C0023343C346F34123483343A341734B73429
:1020AC00D1343834AC34C53427343734BD343734B8
:1020BC00863435349534BF34D63433347734CC3419
:1020CC002B3432345F34703489343034FF34E6349A
:1020DC00DB342E340834E5343C341E346034423462
:1020EC00A2340D3401340034003400340A3400348A
:1020FC00003400346434003400340034E8340334E5
:10210C00003400341034273400340034A0348634C6
:10211C0001340034403442340F340034803496346B
:10212C00983400340034E134F53405340034CA34C6
:10213C009A343B3456346F346C34743461346A34AE
:10214C00653420346D3465346434693464346F34EC
:10215C00003425346634203476346F346C34743463
:04216C007334003494
:10217E000130831603138500013083160317880080
:10218E000130831203139F008030831603139F00C8
:10219E00080000307005F80000307105F90080303D
:1021AE007205FA007F307305FB007B087A04790410
:1021BE007804031DE328E428EC280030F3000030F7
:1021CE00F2000030F1000030F00000307405F8002D
:1021DE0000307505F90080307605FA007F307705FE
:1021EE00FB007B087A0479047804031DFF2800297C
:1021FE0008290030F7000030F6000030F5000030FE
:10220E00F400F31F0B290C2930290030F8000030A0
:10221E00F9000030FA008030FB007008F8027108F7
:10222E00031C710F1B291C29F9027208031C720F63
:10223E0021292229FA027308031C730F2729282942
:10224E00FB027B08F3007A08F2007908F1007808A7
:10225E00F000F71F3329342958290030F8000030D8
:10226E00F9000030FA008030FB007408F80275089F
:10227E00031C750F43294429F9027608031C760FB7
:10228E0049294A29FA027708031C770F4F2950294A
:10229E00FB027B08F7007A08F6007908F50078084B
:1022AE00F4008030F3068030F70677087302031DC2
:1022BE006A2976087202031D6A2975087102031DC8
:1022CE006A297408700203186D296E29702903108B
:1022DE00712903140800683083160313C400E33019
:1022EE00C300C30B7829C40B78297D2983120313ED
:1022FE009F149F188329842980291E08831603138F
:10230E00CB001E08CA00443083120313A9007F308D
:10231E00A800C030A7000030A6000530F200003043
:10232E00F300831603134B08F1004A08F0000A1657
:10233E008A159B240A168A117008F6007108F70098
:10234E000030F71BFF30F800F90001300A168A1131
:10235E0022220A168A11790883120313AD00780817
:10236E00AC007708AB007608AA000A168A119B23E8
:10237E000A168A1183120313290883160313C90040
:10238E0083120313280883160313C8008312031342
:10239E00270883160313C700831203132608831618
:1023AE000313C600A030C3004308A0004908A400D0
:1023BE004808A3004708A2004608A100CC300A1224
:1023CE008A1139220A168A110A168A1513240A1638
:1023DE008A11F401F40A01300A168A1532260A16F9
:1023EE008A119130F5008030F6000A168A155E25A6
:1023FE000A168A11F401F40A02300A168A153226D8
:10240E000A168A11CC30F5000030F6000A168A152D
:10241E005E250A168A11153083160313C5004B303C
:10242E00C400BD30C300C30B1A2AC40B1A2AC50B35
:10243E001A2A212A080083120313A0002008031968
:10244E00292A2A2A3E2AF91F2D2A2E2A3E2A7609C1
:10245E00A2007709A3007809A4007909A500A20AB1
:10246E000319A30A0319A40A0319A50A462A79080F
:10247E00A5007808A4007708A3007608A2007908C2
:10248E00780477047604031D4D2A4E2A572A00300D
:10249E00F9000030F8000030F7000030F600DD2AB9
:1024AE009630FA007A08A100692A0130FA007A08FB
:1024BE00A10701300310A50CA40CA30CA20CFF3E27
:1024CE00031D612AFE302505031D6E2A6F2A5C2A24
:1024DE008B2A0130FA007A08A1070130A2070030DA
:1024EE0003180130A307003003180130A407003091
:1024FE0003180130A50701300310A50CA40CA30C82
:10250E00A20CFF3E031D832AFF302505031D902AD2
:10251E00912A702A9D2A0130A1020130FA0003107F
:10252E00A20DA30DA40DA50DFA0B962AA41BA02A8D
:10253E00A12AA72A023021020318A62AA72A922A24
:10254E002118AA2AAB2AB32AFF30A205FF30A30511
:10255E007F30A405FF30A5050310A10C2108FA0059
:10256E00FB01FC01FD0118300310FA0DFB0DFC0DF3
:10257E00FD0DFF3E031DBB2A7A08A2047B08A304AF
:10258E007C08A4047D08A50420080319CF2AD02AAC
:10259E00D52AF91FD32AD42AD52AA5172508F9003A
:1025AE002408F8002308F7002208F6000800700837
:1025BE00F8007108F9007208FA000310790D7A0D0F
:1025CE00FB007B0883120313A5002508031DF02AC8
:1025DE00F12AFA2A0030F3000030F2000030F10048
:1025EE000030F0009A2B7408F8007508F900760890
:1025FE00FA000310790D7A0DFB007B08A400240865
:10260E00031D0A2B0B2B0C2BF12AF117FF30F005B3
:10261E00FF30F1050030F205F517FF30F405FF30FD
:10262E00F5050030F6050030A3000030A2000030A2
:10263E00A1000030A0007F30A50298302407F800DA
:10264E007808A5021830F8007808A4000130F800C8
:10265E000310A00DA10DA20DA30DF80B2F2B7608C4
:10266E007202031D402B75087102031D402B740866
:10267E007002031C432B442B4F2B7408F002750879
:10268E00031C750FF1027608031C760AF202201461
:10269E0001300310F00DF10DF20DFF3E031D502B16
:1026AE000130A402031D5C2B5D2B2D2BA51F602B6F
:1026BE00612B7B2B2508803A973E0318672B682BDE
:1026CE00692BF12A01300310A30CA20CA10CA00C53
:1026DE00FF3E031D6A2B0130F8007808A507031D85
:1026EE00792B7A2B692B922B18302502031C802B09
:1026FE00812B8D2BF12A0130F8000310A00DA10DB6
:10270E00A20DA30DF80B842B0130A5022508031D85
:10271E00912B922B822B2308F3002208F200210822
:10272E00F1002008F0000800831203132D088039F1
:10273E00AE002E08B7002D08AE002E07AF002F08F2
:10274E00BE00AC1FAB2BAC2BAD2B3E143E080319B9
:10275E00B12BB22BC22B3E0A031DB62BB72BBF2BB0
:10276E000030AD000030AC000030AB000030AA00ED
:10277E00AC17AD01CA2B0030AD000030AC000030FC
:10278E00AB000030AA0029088039AE002E08B7062B
:10279E002908AE002E07AF002F08BF00A81FD82BA8
:1027AE00D92BDA2B3F143F080319DE2BDF2BEF2B2F
:1027BE003F0A031DE32BE42BEC2B0030A900003065
:1027CE00A8000030A7000030A600A817A901F72B1B
:1027DE000030A9000030A8000030A7000030A6008D
:1027EE002908280427042604031DFE2BFF2B182C72
:1027FE000030AD000030AC000030AB000030AA005D
:10280E008030AC047F30AD043708AE002E08AD0426
:10281E002D08A9002C08A8002B08A7002A08A6003E
:10282E00772D3E08031D1C2C1D2C262C0030A900D4
:10283E000030A8000030A7000030A600772D3E081B
:10284E00AE00AF012F08B1003F082E02B000031CEE
:10285E00B10330087F3EB80031080318013E003E38
:10286E00B9002D08B6002C08B5002B08B4002A08B4
:10287E00B3000030AD000030AC000030AB000030D3
:10288E00AA000030BD000030BC000030BB0000309C
:10289E00BA00BF019C2C3F080319562C572C772CDD
:1028AE000130AE000310B30DB40DB50DB60DAE0B69
:1028BE00592C0130AE000310AA0DAB0DAC0DAD0DB1
:1028CE00AE0B622CBD1F6C2C6D2C6E2C2A1401309D
:1028DE00AE000310BA0DBB0DBC0DBD0DAE0B702CB2
:1028EE0029083602031D852C28083502031D852C68
:1028FE0027083402031D852C26083302031C882C5E
:10290E00892C982C3D172608B3022708031C270F85
:10291E00B4022808031C280FB5022908031C290F2E
:10292E00B6020130AE002E08BF071A303F02031C5C
:10293E00A12CA22C522C360835043404330403196E
:10294E00A92CAA2CC92C3A14C92C0130AE000310A4
:10295E00AA0DAB0DAC0DAD0DAE0BAE2CBD1FB82C34
:10296E00B92CBA2C2A140130AE000310BA0DBB0DCF
:10297E00BC0DBD0DAE0BBC2CFF30B8070318B90A49
:10298E00FF30B907AC1FCC2CCD2CAC2CBF01BD1F1A
:10299E00D12CD22CEE2CFF303A05AE00FF303B0589
:1029AE00AF00FF303C05B0007F303D05B10031086F
:1029BE0030042F042E040319E52CE62CE92CBF015C
:1029CE00BF0AEE2C2A1CEC2CED2CEE2CE62C3F082C
:1029DE000319F22CF32C242D0130AA070030031812
:1029EE000130AB07003003180130AC07003003187C
:1029FE000130AD072D1C042D052D242D2A08AE0007
:102A0E002B08AF002C08B0002D08B1000130B20029
:102A1E00310DB10CB00CAF0CAE0CB20B0F2D31084A
:102A2E00AD003008AC002F08AB002E08AA00013014
:102A3E00B8070318B90A0030B9073908803AFF0001
:102A4E0080307F02031D2D2DFF303802031C302DE8
:102A5E00312D3F2DFF3083120313B8000030B90023
:102A6E000030AD000030AC000030AB000030AA00EA
:102A7E00831203133908803AFF0080307F02031D52
:102A8E004A2D0130380203184D2D4E2D5B2D831229
:102A9E000313B801B9010030AD000030AC000030B6
:102AAE00AB000030AA00B701831203133808AE0042
:102ABE002E08BE003E1C642D652D672DAC176B2DA8
:102ACE007F30AE002E08AC053E08AE0003102E0C73
:102ADE00AF002F08AD003708AE002E08AD040F2C46
:102AEE0008008312031355088039DA005A08E200F1
:102AFE005508DA005A07DB005B08E400D41F882D66
:102B0E00892D8A2D6414640803198E2D8F2D9F2D07
:102B1E00640A031D932D942D9C2D0030D50000309A
:102B2E00D4000030D3000030D200D417D501A72D29
:102B3E000030D5000030D4000030D3000030D20079
:102B4E0059088039DA005A08E3006308620603194F
:102B5E00B12DB22DB32D62175908DA005A07DB00DA
:102B6E005B08E300D81FBC2DBD2DBE2D631463087A
:102B7E000319C22DC32DD32D630A031DC72DC82DD6
:102B8E00D02D0030D9000030D8000030D7000030F2
:102B9E00D600D817D901DB2D0030D9000030D8006F
:102BAE000030D7000030D600640863020318E02D11
:102BBE00E12D252E621FE42DE52DE92D8030DA0062
:102BCE005A08E2066408DA005A08E5006308DA00DB
:102BDE005A08E4006508DA005A08E3005208DA00E1
:102BEE005A08E5005608DA005A08D2006508DA00DD
:102BFE005A08D6005308DA005A08E5005708DA00DA
:102C0E005A08D3006508DA005A08D7005408DA00CB
:102C1E005A08E5005808DA005A08D4006508DA00A8
:102C2E005A08D8005508DA005A08E5005908DA00A3
:102C3E005A08D5006508DA005A08D900E50163087C
:102C4E00DA00DB015B08DD0064085A02DC00031CBD
:102C5E00DD035D08803AFF0080307F02031D392EB0
:102C6E001A305C02031C3C2E3D2E7A2E8312031367
:102C7E005508540453045204031D462E482E0130A9
:102C8E00492E0030DA005A08E5000030D500003039
:102C9E00D4000030D3000030D2006308DA005A08A6
:102CAE00E400822E651C5C2E5D2E662E6508DA0011
:102CBE0003105A0C0138DB005B08E500682E031088
:102CCE00E50C521C6B2E6C2E6D2EE5170130DA00C2
:102CDE00550DD50CD40CD30CD20CDA0B6F2E013053
:102CEE00DA005A08E4078312031363086402031C14
:102CFE00812E822E592E621B852E862ED12E640891
:102D0E00031D8A2E8B2E942E0030D5000030D40059
:102D1E000030D3000030D200FF2F5608D2075708DC
:102D2E0003110318013E03199D2ED30758080311F2
:102D3E000318013E0319A42ED407590803110318D2
:102D4E00013E0319AB2ED507551CAE2EAF2E852F87
:102D5E00651CB22EB32EBC2E6508DA0003105A0C79
:102D6E000138DB005B08E500BE2E0310E50C521C9B
:102D7E00C12EC22EC32EE5170130DA00550DD50C2B
:102D8E00D40CD30CD20CDA0BC52E0130DA005A0853
:102D9E00E407852F5508803AFF005908803A7F02D4
:102DAE00031DE32E58085402031DE32E5708530249
:102DBE00031DE32E560852020318E62EE72E3F2F70
:102DCE00FF30DA00FF30DB00FF30DC00FF30DD00CB
:102DDE005608DE005708DF005808E0005908E100E9
:102DEE005208DE025308031C530FFE2EFF2EDF0285
:102DFE005408031C540F042F052FE0025508031C22
:102E0E00550F0A2F0B2FE1025E08DA075F08031831
:102E1E005F0F122F132FDB0760080318600F182F98
:102E2E00192FDC0761080318610ADD075D08D5005C
:102E3E005C08D4005B08D3005A08D2008030DA0058
:102E4E005A08E206E509E50A6508031D2F2F302F03
:102E5E004D2F0130D207003003180130D307003058
:102E6E0003180130D407003003180130D5074D2F59
:102E7E005608D2025708031C570FD3025808031CDA
:102E8E00580FD4025908031C590FD5025508540483
:102E9E0053045204031D542F552F812F6508031D13
:102EAE00592F5A2F812F0030D5000030D40000301A
:102EBE00D3000030D200FF2F0130DA000310D20D04
:102ECE00D30DD40DD50DDA0B652FE51F6F2F702F97
:102EDE00712F5214651C742F752F782F0314E50D66
:102EEE007A2F0310E50D640803197E2F7F2F812F93
:102EFE000130E402D41F842F852F632FE301E51FD9
:102F0E00892F8A2F982F65087F3903198F2F902FBD
:102F1E00932FE301E30A982F521C962F972F982F89
:102F2E00902F630803199C2F9D2FD12F0130D207AC
:102F3E00003003180130D307003003180130D407D6
:102F4E00003003180130D507551CAE2FAF2FD12FEF
:102F5E005208DA005308DB005408DC005508DD0087
:102F6E000130DE005D0DDD0CDC0CDB0CDA0CDE0B53
:102F7E00B92F5D08D5005C08D4005B08D3005A0851
:102F8E00D200640A0319CC2FCD2FD12F0130DA00D5
:102F9E005A08E407640A0319D52FD62FDB2F6408CD
:102FAE00031DDA2FDB2FE92F0030D5000030D400BF
:102FBE000030D3000030D2006408031DE72FE82F45
:102FCE00E92FE201641CEC2FED2FEF2FD417F32F16
:102FDE007F30DA005A08D4056408DA0003105A0C60
:102FEE00DB005B08D500E21FFD2FFE2FFF2FD5174C
:022FFE000800C9
:1038000064008001840A0406031900340406012CB4
:10381000730872047104700403190F2C102C122CFD
:103820008030F306080000300A168A1520240A1694
:103830008A1501300A168A1520240A168A150800EE
:10384000F30083120313081173080A168A1555240E
:103850000A168A158312031388153430F200F130EA
:10386000F100F10B312CF20B312C362C83120313A7
:10387000881108008316031388010A168A1521256A
:103880000A168A150A168A1513240A168A150A16A4
:103890008A11BF200A168A150A168A1172210A1681
:1038A0008A154C2C0A128A110028F000701C592C21
:1038B0005A2C5E2C831203130816612C83120313F7
:1038C0000812F01C642C652C672C8816682C881252
:1038D000701D6B2C6C2C6E2C08176F2C0813F01DB0
:1038E000722C732C752C8817762C88130800803066
:1038F00083120313E9066D08D5006C08D4006B0829
:10390000D3006A08D2006908D9006808D80067089F
:10391000D7006608D6000A168A1178250A168A1575
:10392000831203135508E9005408E8005308E70020
:103930005208E6000800F401F501701CA02CA12C2F
:10394000A72C7208F4070318F50A7308F50701306D
:103950000310F20DF30DFF3E031DA82C01300310E0
:10396000F10CF00CFF3E031DAF2C70087104031D19
:10397000BA2CBB2C9D2C7508F1007408F0000800CF
:10398000F800F401F5017008F200F3017208F60086
:103990007308F700781CCD2CCE2CD42C7608F407B5
:1039A0000318F50A7708F50701300310F60DF70D37
:1039B000FF3E031DD52C0310F80C7808031DE12CE5
:1039C000E22CCA2C7508F1007408F0000800700899
:1039D00071040319EC2CED2C1C2DF501F50AFB2CC0
:1039E00001300310F00DF10DFF3E031DF12C0130ED
:1039F000F4007408F507F11FFE2CFF2CF02C710861
:103A00007302031D052D70087202031C082D092D79
:103A10000F2D7008F2027108031CF303F30201304A
:103A20000310F10CF00CFF3E031D102D0130F502C8
:103A3000031D1B2D1C2DFF2C7308F1007208F000D4
:103A4000080000300A168A1555240A168A15033014
:103A50000A168A1520240A168A1503300A168A15B2
:103A600020240A168A1502300A168A1520240A16FE
:103A70008A1502300A168A1520240A168A1508307B
:103A80000A168A1520240A168A1500300A168A1585
:103A900020240A168A150C300A168A1520240A16C4
:103AA0008A1500300A168A1520240A168A1506304F
:103AB0000A168A1520240A168A150800FA01FB0145
:103AC000832D7A087507F8007608F7000318F70ABF
:103AD000FA1F6B2DF7037708F90079088312031397
:103AE000FF00780884000A168A1100200A168A1539
:103AF0000A128A1103200A168A150130FA070318E0
:103B0000FB0A0030FB077A087507F8007608F70013
:103B10000318F70AFA1F8D2DF7037708F9007908C3
:103B200083120313FF00780884000A168A1100200C
:103B30000A168A15003A031D9E2D9F2D612D08003F
:103B4000FB01FC01760877040319A72DA82DDF2DB2
:103B5000FD01FD0AB62D01300310F60DF70DFF3EF5
:103B6000031DAC2D0130FA007A08FD07F71FB92DAF
:103B7000BA2DAB2D01300310FB0DFC0DFF3E031DD4
:103B8000BB2D77087902031DC72D76087802031C28
:103B9000CA2DCB2DD22D7608F8027708031CF90325
:103BA000F9027B1401300310F70CF60CFF3E031DE5
:103BB000D32D0130FD02031DDE2DDF2DBA2D7C0833
:103BC000F7007B08F600080000307005F8000030B0
:103BD0007105F90080307205FA007F307305FB0033
:103BE0007B087A0479047804031DF72DF82D002E44
:103BF0000030F3000030F2000030F1000030F0003F
:103C000000307405F80000307505F9008030760545
:103C1000FA007F307705FB007B087A04790478048A
:103C2000031D132E142E1C2E0030F7000030F6005A
:103C30000030F5000030F40077087306031D2A2ECB
:103C400076087206031D2A2E75087106031D2A2E9A
:103C50007408700603192D2E2E2E302E0310312ECF
:103C600003140800F7007703031D372E382E5B2E50
:103C700074087F3EF5007508FA007A08F5000430F4
:103C80000310F50CFF3E031D402E7508F600760864
:103C9000F8007A080F39F5007508F90078080A1657
:103CA0008A1520240A168A1579080A168A152024EE
:103CB0000A168A15832E02307706031D602E612EA8
:103CC000832E7408BF3EF5007508FA007A08F500E7
:103CD00004300310F50CFF3E031D692E7508F60035
:103CE0007608F8007A080F39F5007508F9007808A9
:103CF0000A168A1520240A168A1579080A168A15C2
:103D000020240A168A1508007308720471047004CE
:103D100003198B2E8C2ECF2EF901F90A9C2E01301F
:103D2000F8000310F00DF10DF20DF30DF80B912ECC
:103D30000130F8007808F907F31F9F2EA02E8F2E70
:103D400073087702031DAE2E72087602031DAE2E95
:103D500071087502031DAE2E70087402031CB12E8B
:103D6000B22EC02E7008F4027108031C710FF50208
:103D70007208031C720FF6027308031C730FF7021C
:103D800001300310F30CF20CF10CF00CFF3E031D9C
:103D9000C12E0130F902031DCE2ECF2EA02E7708A2
:103DA000F3007608F2007508F1007408F0000800CE
:103DB000F601F31FDC2EDD2EE42EF209F309F20AE0
:103DC0000319F30AF601F60AF11FE72EE82EED2E8D
:103DD000F009F109F00A0319F10A700871040319D6
:103DE000F22EF32E222FF501F50A012F01300310D8
:103DF000F00DF10DFF3E031DF72E0130F4007408A5
:103E0000F507F11F042F052FF62E71087302031D0D
:103E10000B2F70087202031C0E2F0F2F152F700826
:103E2000F2027108031CF303F30201300310F10CDA
:103E3000F00CFF3E031D162F0130F502031D212F4C
:103E4000222F052F76080319262F272F2C2FF20952
:103E5000F309F20A0319F30A7308F1007208F0007B
:103E600008000030FC000030FB000030FA00003099
:103E7000F90073087204710470040319402F412F74
:103E80008E2FFD01FD0A512F0130F8000310F00DB7
:103E9000F10DF20DF30DF80B462F0130F800780804
:103EA000FD07F31F542F552F442F0130F800031046
:103EB000F90DFA0DFB0DFC0DF80B572F7308770267
:103EC000031D6C2F72087602031D6C2F710875029A
:103ED000031D6C2F70087402031C6F2F702F7F2F2F
:103EE0007008F4027108031C710FF5027208031CBC
:103EF000720FF6027308031C730FF7027914013076
:103F00000310F30CF20CF10CF00CFF3E031D802F9C
:103F10000130FD02031D8D2F8E2F552F7C08F300DD
:103F20007B08F2007A08F1007908F000080083129B
:103F30000313A101F81F9D2F9E2FA52FF709F80944
:103F4000F70A0319F80AA101A10AFA1FA82FA92F3D
:103F5000B22FF909FA09F90A0319FA0A0130FB002C
:103F60007B08A106A201A301770878040319B92FE1
:103F7000BA2FF12FA001A00AC82F01300310F70DAE
:103F8000F80DFF3E031DBE2F0130FB007B08A0078C
:103F9000F81FCB2FCC2FBD2F01300310A20DA30D86
:103FA000FF3E031DCD2F78087A02031DD92F770815
:103FB0007902031CDC2FDD2FE42F7708F902780843
:103FC000031CFA03FA02221401300310F80CF70C58
:103FD000FF3E031DE52F0130A002031DF02FF12F3E
:103FE000CC2F21080319F52FF62FFB2FA209A309C7
:103FF000A20A0319A30A2308F8002208F700080000
:04400E00F7FFFFFFBA
:00000001FF
