:020000040000FA
:100000000A128A11FC2F00308A000408840A820731
:10001000003441346C3464346F34203453346134EC
:10002000723474346F347234693475347334003418
:1000300050347234753465346234613420344C3455
:0600400043344434003497
:100CF80000300A128A119C260A128A1101300A123F
:100D08008A119C260A128A1108000130F000700826
:100D1800831603138C056030831203138E00F030A2
:100D28008F0010140C1C992E9A2E962E0C10080069
:100D3800F10083120313081171080A128A11B226EE
:100D48000A128A118312031388150A128A11892636
:100D58000A128A118312031388110800F000701C0C
:100D6800B62EB72EBB2E831203130816BE2E83127F
:100D780003130812F01CC12EC22EC42E8816C52ECD
:100D88008812701DC82EC92ECB2E0817CC2E08131A
:100D9800F01DCF2ED02ED22E8817D32E8813080000
:100DA800F700F501F601EB2E7508770784000A12A3
:100DB8008A1103200A128A110A128A11F9260A12C4
:100DC8008A110130F5070318F60A0030F60775088E
:100DD800770784000A128A1103200A128A11003A3E
:100DE800031DF72EF82ED82E0800F40074080F39CA
:100DF800F1007108F2007408F039F1007108F3008D
:100E08008312031308157308F10004300310F10C62
:100E1800FF3E031D0A2F71080A128A11B2260A1210
:100E28008A11831203138815881172080A128A110D
:100E3800B2260A128A118312031388158811080032
:100E480000300A128A11B2260A128A1103300A12D5
:100E58008A119C260A128A1103300A128A119C26CA
:100E68000A128A1102300A128A119C260A128A1161
:100E780002300A128A119C260A128A1108300A12B4
:100E88008A119C260A128A1100300A128A119C269D
:100E98000A128A110C300A128A119C260A128A1127
:100EA80000300A128A119C260A128A1106300A1288
:100EB8008A119C260A128A110800713083160313BE
:100EC8008F0088010A128A1124270A128A110A122D
:100ED8008A117C260A128A11F201F20A01300A12DA
:100EE8008A11AA270A128A1101300A128A11D426F5
:100EF8000A128A11F201F20A02300A128A11AA278A
:100F08000A128A1110300A128A11D4260A128A117A
:100F1800F901FA010A128A1189260A128A11013086
:100F2800F9070318FA0A0030FA077A08803AFF002E
:100F380080307F02031DA22F15307902031CA52FD4
:100F4800A62F8E2F6B2F0A128A110028F500750321
:100F5800031DAF2FB02FD32F72087F3EF300730805
:100F6800F8007808F30004300310F30CFF3E031D6B
:100F7800B82F7308F4007408F60078080F39F300E6
:100F88007308F70076080A128A119C260A128A1139
:100F980077080A128A119C260A128A11FB2F02303E
:100FA8007506031DD82FD92FFB2F7208BF3EF300FB
:100FB8007308F8007808F30004300310F30CFF3EC0
:100FC800031DE12F7308F4007408F60078080F3940
:100FD800F3007308F70076080A128A119C260A1291
:100FE8008A1177080A128A119C260A128A110800A7
:080FF80083010A128A11612F26
:02400E00F7FFBA
:00000001FF
