:020000040000FA
:100000000A128A11FC2F00308A000408840A820731
:10001000003441346C3464346F34203453346134EC
:10002000723474346F347234693475347334003418
:0C00300049344D34503441345234003413
:100CD00000300A128A1175260A128A1101300A128E
:100CE0008A1175260A128A110800F3008312031371
:100CF000081173080A128A118F260A128A118312A8
:100D0000031388153430F200F130F100F10B862E18
:100D1000F20B862E8B2E8312031388110800F0002D
:100D2000701C932E942E982E8312031308169B2E5C
:100D3000831203130812F01C9E2E9F2EA12E8816DC
:100D4000A22E8812701DA52EA62EA82E0817A92E39
:100D50000813F01DAC2EAD2EAF2E8817B02E8813C1
:100D60000800F700F501F601C82E75087707840022
:100D70000A128A1103200A128A110A128A11D6262F
:100D80000A128A110130F5070318F60A0030F60737
:100D90007508770784000A128A1103200A128A1143
:100DA000003A031DD42ED52EB52E0800F400740889
:100DB0000F39F1007108F2007408F039F100710880
:100DC000F3008312031308157308F10004300310B5
:100DD000F10CFF3E031DE72E71080A128A118F26BF
:100DE0000A128A11831203138815881172080A12D5
:100DF0008A118F260A128A1183120313881588110B
:100E0000080000300A128A118F260A128A11033054
:100E10000A128A1175260A128A1103300A128A11DF
:100E200075260A128A1102300A128A1175260A12D0
:100E30008A1102300A128A1175260A128A110830A4
:100E40000A128A1175260A128A1100300A128A11B2
:100E500075260A128A110C300A128A1175260A1296
:100E60008A1100300A128A1175260A128A11063078
:100E70000A128A1175260A128A110800F7007703F0
:100E8000031D432F442F672F74087F3EF50075081C
:100E9000FA007A08F50004300310F50CFF3E031D3C
:100EA0004C2F7508F6007608F8007A080F39F5001F
:100EB0007508F90078080A128A1175260A128A1133
:100EC00079080A128A1175260A128A118F2F0230A8
:100ED0007706031D6C2F6D2F8F2F7408BF3EF50012
:100EE0007508FA007A08F50004300310F50CFF3E8F
:100EF000031D752F7508F6007608F8007A080F397B
:100F0000F5007508F90078080A128A1175260A1288
:100F10008A1179080A128A1175260A128A110800A4
:100F2000013083120313A0000030A10083160313C5
:100F300088010A128A1101270A128A1101308312CC
:100F40000313A0070318A10A0030A1070F302006E1
:100F50002104031DAC2FAD2FB12F0130A0000030B4
:100F6000A1000A128A1168260A128A11F401F40AF1
:100F700001300A128A113E270A128A1101300A1220
:100F80008A11B1260A128A11831203132018C92F5D
:100F9000CA2FE82F2008FB007B08F40002300A1259
:100FA0008A113E270A128A1112300A128A11B126BA
:100FB0000A128A110B30FD002630FC005D30FB0068
:100FC000FB0BE02FFC0BE02FFD0BE02FE72F9E2FFC
:100FD0002008FB007B08F40002300A128A113E2729
:100FE0000A128A1110300A128A11B1260A128A11C5
:100FF000DA2F0A128A11002883010A128A11902F0F
:04400E00E2EFFFFFDF
:00000001FF
