:020000040000FA
:060000000A128A11EE2F26
:100DDC000130F0007008831603138C0590308312D9
:100DEC0003138E00FD308F0010140C1CFE2EFF2EF2
:100DFC00FB2E0C1008007E088A007F0882000A1265
:100E0C008A1101270A128A118000840A04087D06BF
:100E1C0003190034FF0A0319FE0A052F3F3400346E
:100E2C00063400345B3400344F3400346634003400
:100E3C006D3400347D340034073400347F34003496
:100E4C006F34003483120313BA01BB01BC01BD0122
:100E5C00B401B501203084003E30F1000408F200EA
:100E6C001430F3007108840083130008F400F10AB5
:100E7C007208840074088000F20AF30B382F831672
:100E8C000317880189018316031387010511851146
:100E9C00831203138701831203133A08F1007107BD
:100EAC00203E84008313000887008515B601B70126
:100EBC000A128A11EE260A128A11013083120313C8
:100ECC00B6070318B70A0030B7073708803AFF0097
:100EDC0080307F02031D742F0A303602031C772FDB
:100EEC00782F5E2F8312031385113C08F1007107D4
:100EFC00203E84008313000887000515B801B90152
:100F0C000A128A11EE260A128A1101308312031377
:100F1C00B8070318B90A0030B9073908803AFF003E
:100F2C0080307F02031D9C2F0A303802031C9F2F38
:100F3C00A02F862F8312031305110130B407031859
:100F4C00B50A0030B5073508803AFF0080307F02C3
:100F5C00031DB22F15303402031CB52FB62FC02F32
:100F6C0083120313B401B5010130BA070318BB0A8D
:100F7C000030BB07831203133B08803AFF0080301C
:100F8C007F02031DCB2F0A303A02031CCE2FCF2F2A
:100F9C00512F83120313BA01BB010130BC07031894
:100FAC00BD0A0030BD073D08803AFF0080307F024B
:100FBC00031DE22F0A303C02031CE52FE62F512FB4
:100FCC0083120313BC01BD01512F0A128A11002890
:100FDC0083135230FD000730FE001430FF003E300A
:100FEC0084000A128A1105270A128A1183010A1237
:040FFC008A11282FFF
:04400E00F5F8FFFFC3
:00000001FF
