:020000040000FA
:060000000A128A11FC2F18
:100F6A006130831603138F000800831603138C1451
:100F7A0083120313910192018C1012150800831633
:100F8A0003178801890183160313870189018312D4
:100F9A0003138701091408006330831603139200B0
:100FAA000D30831203139700831603130C15831253
:100FBA0003130C114630950008000A128A11B5274E
:100FCA000A128A110A128A11C4270A128A110A12EB
:100FDA008A11D1270A128A110A128A11BA270A1209
:100FEA008A110B178B17F82F0A128A11002883010E
:060FFA000A128A11E22F29
:02400E00F7FFBA
:00000001FF
