:020000040000FA
:060000000A128A11FC2F18
:100E7E007F3083120313870008006D308312031333
:100E8E0087000800663083120313870008006F3056
:100E9E0083120313870008000630831203138700A2
:100EAE000800073083120313870008007D30831279
:100EBE000313870008004F308312031387000800C6
:100ECE005B3083120313870008003F308312031335
:100EDE00870008000130F0007008831603138C059C
:100EEE001830831203138E0086308F0010140C1CE2
:100EFE00812F822F7E2F0C100800153083160313BE
:100F0E008F00831603178801890183160313870147
:100F1E00051183120313870105150A128A11712711
:100F2E000A128A110A128A116C270A128A110A12DF
:100F3E008A1171270A128A110A128A1153270A126C
:100F4E008A110A128A1171270A128A110A128A113B
:100F5E0067270A128A110A128A1171270A128A1138
:100F6E000A128A1162270A128A110A128A1171272D
:100F7E000A128A110A128A1149270A128A110A12B2
:100F8E008A1171270A128A110A128A1144270A122B
:100F9E008A110A128A1171270A128A110A128A11EB
:100FAE005D270A128A110A128A1171270A128A11F2
:100FBE000A128A1158270A128A110A128A117127E7
:100FCE000A128A110A128A113F270A128A110A126C
:100FDE008A1171270A128A110A128A114E270A12D1
:100FEE008A11942F0A128A11002883010A128A117B
:020FFE00842F3E
:02400E00F7FFBA
:00000001FF
