:020000040000FA
:060000000A128A110C280F
:10000800FE00030EF1000A08F2000A128A111328F2
:100018000A128A110F2883010A128A1137280B1C29
:1000280016281728302883120313091487170A1271
:100038008A114B200A128A110A128A114B200A12BD
:100048008A110A128A114B200A128A110A128A117D
:100058004B200A128A110B1072088A00710E830055
:10006800FE0E7E0E09008316031387130616091069
:1000780083120313871309108316031315160B1025
:1000880096168B158B1747280A128A110C280130EF
:10009800F0007008831603138C0590308312031345
:1000A8008E00FD308F0010140C1C5B285C2858282B
:0400B8000C10080020
:04400E00F5FFFFFFBC
:00000001FF
