:020000040000FA
:100000000A128A11F72F00308A000408840A820736
:1000100000344434613474346F34203472346534C1
:0E002000633469346234693464346F340034FC
:100C60007130831603138F00080000300A128A11B6
:100C700066260A128A1101300A128A1166260A12A1
:100C80008A1108000C3083160313990018111812EA
:100C900083160317871183120313981718168316E8
:100CA00003138C1608000130F0007008831603133C
:100CB0008C056030831203138E00F0308F00101407
:100CC0000C1C632E642E602E0C100800F1008312A1
:100CD0000313081171080A128A1196260A128A1142
:100CE0008312031388150A128A1153260A128A11D5
:100CF0008312031388110800831203138C1E812EA4
:100D0000822E952E1A08F0007008FC001030200684
:100D10002104031D8C2E8D2E8F2EA001A1010130E8
:100D2000A0070318A10A0030A1070800F000701CFA
:100D30009A2E9B2E9F2E831203130816A22E831227
:100D400003130812F01CA52EA62EA82E8816A92E75
:100D50008812701DAC2EAD2EAF2E0817B02E0813C2
:100D6000F01DB32EB42EB62E8817B72E88130800A8
:100D7000F700F501F601CF2E7508770784000A12F7
:100D80008A1103200A128A110A128A11DD260A1218
:100D90008A110130F5070318F60A0030F6077508C6
:100DA000770784000A128A1103200A128A11003A76
:100DB000031DDB2EDC2EBC2E0800F40074080F3956
:100DC000F1007108F2007408F039F1007108F300C5
:100DD0008312031308157308F10004300310F10C9B
:100DE000FF3E031DEE2E71080A128A1196260A1282
:100DF0008A11831203138815881172080A128A1146
:100E000096260A128A118312031388158811080086
:100E100000300A128A1196260A128A1103300A1229
:100E20008A1166260A128A1103300A128A1166266E
:100E30000A128A1102300A128A1166260A128A11CF
:100E400002300A128A1166260A128A1108300A1222
:100E50008A1166260A128A1100300A128A11662641
:100E60000A128A110C300A128A1166260A128A1195
:100E700000300A128A1166260A128A1106300A12F6
:100E80008A1166260A128A110800F5007503031DEF
:100E90004A2F4B2F6E2F72087F3EF3007308F80025
:100EA0007808F30004300310F30CFF3E031D532FAA
:100EB0007308F4007408F60078080F39F30073081B
:100EC000F70076080A128A1166260A128A11770834
:100ED0000A128A1166260A128A11962F02307506A6
:100EE000031D732F742F962F7208BF3EF3007308F3
:100EF000F8007808F30004300310F30CFF3E031DE4
:100F00007C2F7308F4007408F60078080F39F3009A
:100F10007308F70076080A128A1166260A128A11E7
:100F200077080A128A1166260A128A1108008316A7
:100F30000313880187170A128A1130260A128A11B0
:100F40000A128A1142260A128A110B178B17831272
:100F500003139A010A128A1108270A128A110A1227
:100F60008A1135260A128A11F201F20A01300A1298
:100F70008A1145270A128A1101300A128A11B826ED
:100F80000A128A110A128A117C260A128A11831205
:100F900003132008F9007908F20002300A128A11BE
:100FA00045270A128A117C080A128A11DD260A12C4
:100FB0008A11FA01FB010A128A1153260A128A11B8
:100FC0000130FA070318FB0A0030FB077B08803A60
:100FD000FF0080307F02031DEF2F15307A02031CC3
:100FE000F22FF32FDB2FB42F0A128A110028FC01F5
:100FF00083120313A001A10183010A128A11972F02
:02400E00F7FFBA
:00000001FF
