:020000040000FA
:060000000A128A11FC2F18
:100D1E00F8308312031387000A128A11A1260A12D1
:100D2E008A118312031387010A128A11A1260A124D
:100D3E008A1108000130F0007008831603138C0529
:100D4E001830831203138E0086308F0010140C1C83
:100D5E00B12EB22EAE2E0C100800A8308312031343
:100D6E0087000A128A11A1260A128A1150308312A4
:100D7E00031387000A128A11A1260A128A11F8306B
:100D8E008312031387000A128A11A1260A128A11EE
:100D9E0050308312031387000A128A11A1260A12F9
:100DAE008A11A8308312031387000A128A11A12612
:100DBE000A128A1108001530831603138F0083164A
:100DCE000317880189018316031387018901831292
:100DDE00031387010130F100710889050A128A1187
:100DEE008F260A128A110A128A11A2270A128A1152
:100DFE000A128A1112270A128A110A128A11502710
:100E0E000A128A110A128A11B4260A128A11F52EB2
:100E1E000A128A1100288312031387010A128A11FB
:100E2E00A1260A128A1188308312031387000A1230
:100E3E008A11A1260A128A11D83083120313870051
:100E4E000A128A11A1260A128A11F830831203138C
:100E5E0087000A128A11A1260A128A11D83083122B
:100E6E00031387000A128A11A1260A128A118830EA
:100E7E008312031387000A128A11A1260A128A11FD
:100E8E008312031387010A128A11A1260A128A11EC
:100E9E00080080308312031387000A128A11A126DC
:100EAE000A128A1140308312031387000A128A1124
:100EBE00A1260A128A1120308312031387000A1208
:100ECE008A11A1260A128A11103083120313870089
:100EDE000A128A11A1260A128A11083083120313EC
:100EEE0087000A128A11A1260A128A111030831263
:100EFE00031387000A128A11A1260A128A112030C2
:100F0E008312031387000A128A11A1260A128A116C
:100F1E0040308312031387000A128A11A1260A1287
:100F2E008A1180308312031387000A128A11A126B8
:100F3E000A128A11080080308312031387000A12E6
:100F4E008A11A1260A128A11C03083120313870058
:100F5E000A128A11A1260A128A11E0308312031393
:100F6E0087000A128A11A1260A128A11F030831202
:100F7E00031387000A128A11A1260A128A11F83069
:100F8E008312031387000A128A11A1260A128A11EC
:100F9E0078308312031387000A128A11A1260A12CF
:100FAE008A1138308312031387000A128A11A12680
:100FBE000A128A1118308312031387000A128A113B
:100FCE00A1260A128A1108308312031387000A120F
:100FDE008A11A1260A128A118312031387010A129B
:100FEE008A11A1260A128A11080083010A128A1197
:020FFE00E22EE1
:02400E00F7FFBA
:00000001FF
