:020000040000FA
:100000000A128A11FC2F00308A000408840A820731
:10001000003448346F346C34613420344A346134F1
:100020007A346D3469346E34203442346934653442
:100030006E34763465346E3469346434613420341B
:1000400061346C34203454344534433420340D341A
:040050000A3400343A
:100F1E007130831603138F000800831603178801A0
:100F2E0089018316031388018312031388010800B5
:100F3E00F000831203130C1EA52FA62FA02F0C1248
:100F4E00700899000800831603130C160C309900D4
:100F5E00181118128316031787118312031398178B
:100F6E0083160313981608000A128A118F270A1285
:100F7E008A110A128A1194270A128A110A128A11E8
:100F8E00AA270A128A1183120313990101300A1239
:100F9E008A11D7270A128A11CD2F0A128A11002818
:100FAE00F300F101F201EE2F7108730784000A12AB
:100FBE008A1103200A128A110A128A119F270A1215
:100FCE008A110130F1070318F20A0030F207710896
:100FDE00730784000A128A1103200A128A11003A3A
:100FEE00031DFA2FFB2FDB2F080083010A128A1133
:020FFE00BB2F07
:02400E00F7FFBA
:00000001FF
