:020000040000FA
:060000000A128A110C280F
:10000800FE00030EF0000A08F1000A128A112D28DA
:100018000A128A110F2883010A128A1113280A1258
:100028008A1165200A128A110A128A114C200A12B2
:100038008A110A128A113D200A128A110A128A119B
:1000480059200A128A110B178B1729280A128A11AC
:100058000C28831203130C1D3228332836288E01EE
:100068008F010C1171088A00700E8300FE0E7E0E3F
:1000780009000230831203139700831603130C152B
:10008800831203130C11AF3095004B309600080013
:1000980083160317880189018316031387018901D1
:1000A80083120313870109140800831603130C1421
:1000B800831203138E018F01103090000C1010145E
:0C00C80008000130831603138F000800AD
:02400E00F7FFBA
:00000001FF
