:020000040000FA
:060000000A128A11FC2F18
:100F72000130F0007008831603138C059030831241
:100F820003138E00FD308F0010140C1CC92FCA2FC2
:100F9200C62F0C100800F101F20183160313871308
:100FA2000814091083120313871309108312031301
:100FB2000818DC2FDD2FEE2F71087204031DE22FBB
:100FC200E32FEA2F091487170130F1000030F200F5
:100FD200EE2F09108713F101F2010A128A11B927C3
:100FE2000A128A110A128A11B9270A128A11D72FF4
:0E0FF2000A128A11002883010A128A11CC2FDC
:04400E00F5FFFFFFBC
:00000001FF
