:020000040000FA
:100000000A128A11F32FF40074080F39F1007108F5
:10001000F2007408F039F1007108F3008312031341
:1000200008157308F10004300310F10CFF3E031DA6
:10003000142871080A168A15D9230A128A11831204
:1000400003138815881172080A168A15D9230A1213
:100050008A11831203138815881108008312031371
:10006000D1006E305102031C3628372844293F3016
:10007000A7000030A6000030A5000030A4006430C6
:10008000F6000030F7005108C200C3014208F80032
:100090004308F9000A168A1524250A128A117608DF
:1000A00083120313C40001300310C40DFF3E031D6F
:1000B00054280310440D7D3E84000A168A110A203C
:1000C0000A128A11C5000A168A110A200A128A1118
:1000D000C6000A168A110A200A128A11C7000A16D7
:1000E0008A110A200A128A11C8004808AB00470882
:1000F000AA004608A9004508A8000A128A159F24EC
:100100000A128A11831203132708D0002608CF0091
:100110002508CE002408CD000A30F6000030F70094
:100120005108C200C3014208F2004308F3006430E2
:10013000F0000030F1000A168A156B240A128A11A9
:100140007108F9007008F8000A168A1524250A12A9
:100150008A11760883120313C40001300310C40D02
:10016000FF3E031DAE280310440D593E84000A16BD
:100170008A110A200A128A11C5000A168A110A2059
:100180000A128A11C6000A168A110A200A128A1156
:10019000C7000A168A110A200A128A11C8004808E4
:1001A000A7004708A6004608A5004508A400500877
:1001B000AB004F08AA004E08A9004D08A8000A127B
:1001C0008A159F240A128A11831203132708CC0070
:1001D0002608CB002508CA002408C9000A30F00010
:1001E0000030F1005108C200C3014208F200430888
:1001F000F3000A168A156B240A128A1170088312FA
:100200000313C40001300310C40DFF3E031D032976
:100210000310440D353E84000A168A110A200A1282
:100220008A11C5000A168A110A200A128A11C6000C
:100230000A168A110A200A128A11C7000A168A11A0
:100240000A200A128A11C8004808A7004708A60019
:100250004608A5004508A4004C08AB004B08AA00BE
:100260004A08A9004908A8000A128A159F240A1200
:100270008A11831203132708C1002608C00025082D
:10028000BF002408BE00382A0B305102031C492944
:100290004A29F5293F30A7000030A6000030A5000C
:1002A0000030A4000A30F6000030F7005108C20008
:1002B000C3014208F8004308F9000A168A152425EC
:1002C0000A128A11760883120313C4000130031046
:1002D000C40DFF3E031D67290310440D593E8400E1
:1002E0000A168A110A200A128A11C5000A168A11F2
:1002F0000A200A128A11C6000A168A110A200A1256
:100300008A11C7000A168A110A200A128A11C80027
:100310004808AB004708AA004608A9004508A800FD
:100320000A128A159F240A128A11831203132708BE
:10033000D0002608CF002508CE002408CD000A30C2
:10034000F0000030F1005108C200C3014208F20081
:100350004308F3000A168A156B240A128A117008E2
:1003600083120313C40001300310C40DFF3E031DAC
:10037000B4290310440D353E84000A168A110A2060
:100380000A128A11C5000A168A110A200A128A1155
:10039000C6000A168A110A200A128A11C7000A1614
:1003A0008A110A200A128A11C8004808A7004708C3
:1003B000A6004608A5004508A4005008AB004F0859
:1003C000AA004E08A9004D08A8000A128A159F2409
:1003D0000A128A11831203132708C1002608C000DD
:1003E0002508BF002408BE00382A3F30A70000308F
:1003F000A6000030A5000030A4005108C200013062
:100400000310C20DFF3E031D002A0310420D353EAE
:1004100084000A168A110A200A128A11C3000A16D9
:100420008A110A200A128A11C4000A168A110A20A7
:100430000A128A11C5000A168A110A200A128A11A4
:10044000C6004608AB004508AA004408A9004308B6
:10045000A8000A128A159F240A128A118312031314
:100460002708C1002608C0002508BF002408BE00D8
:10047000080083160313BD00A130A5002508AE00B7
:10048000DC2F253042060319462A472A532A420800
:10049000A5003D0884002508831380000130A500D5
:1004A0002508BD07DC2FAF01B001582A3015722A8C
:1004B0000130A007FF30200784000A168A110A20A5
:1004C0000A128A11C200A500A6012608003A0319E3
:1004D0006A2ADC2F2508003A0319EE2F663A031921
:1004E000562ADC2F00302F05A50007303005A60066
:1004F0002508260403197D2A7E2AC82F0630B1005C
:100500000030B2002E08840083130008BE00840A65
:100510000008BF00840A0008C000840A0008C10067
:100520000430A5002508AE074108F3004008F2009A
:100530003F08F1003E08F0000030F7000030F60000
:100540000030F5000030F4000A168A11C2200A12A9
:100550008A110318AC2AAD2ACA2A8316031341084C
:10056000F3004008F2003F08F1003E08F0000A16D0
:100570008A1599230A128A11730883160313C1007E
:100580007208C0007108BF007008BE000330AF04DD
:100590000030B00483160313B701B8014108F3001B
:1005A0004008F2003F08F1003E08F0000030F7007C
:1005B0000030F6000030F5000030F4000A168A150D
:1005C00068250A128A110318E62AE72AD72B031096
:1005D00083160313400D410D823EB700FF30031810
:1005E0000030B800FF30B7070318B80AFF30B8076B
:1005F0000330F0000030F1003808F3003708F20053
:100600000A168A151F240A128A1171088316031309
:10061000B8007008B7000A30F7000030F80038085A
:10062000FA003708F9000A168A151B270A128A11E0
:10063000780883160313B8007708B700B81F212B7A
:10064000222B282BFF30B7070318B80AFF30B80752
:100650003703FF3A0A128A1540210A128A118312BF
:100660000313410883160313BC00831203134008CD
:1006700083160313BB00831203133F08831603136F
:10068000BA00831203133E0883160313B90041080E
:1006900083120313A7008316031340088312031366
:1006A000A600831603133F0883120313A5008316C5
:1006B00003133E0883120313A400831603133C089C
:1006C00083120313AB00831603133B088312031337
:1006D000AA00831603133A0883120313A900831692
:1006E0000313390883120313A8000A128A159F24E2
:1006F0000A128A1183120313270883160313BC00FE
:1007000083120313260883160313BB0083120313FB
:10071000250883160313BA008312031324088316D3
:100720000313B9003C08F3003B08F2003A08F1005B
:100730003908F0003F30F7008030F6000030F50057
:100740000030F4000A168A11C2200A128A11031816
:10075000AA2BAB2BB42BFF3083160313B707031858
:10076000B80AFF30B807D72B831603133C08F300F1
:100770003B08F2003A08F1003908F0004130F70078
:100780002030F6000030F5000030F4000A168A111F
:10079000C2200A128A11031CCE2BCF2BD72B01307B
:1007A00083160313B7070318B80A0030B8070630DA
:1007B0000A128A112E200A128A1183120313410889
:1007C000D5004008D4003F08D3003E08D20083166D
:1007D0000313410883120313D9008316031340083F
:1007E00083120313D800831603133F0883120313E5
:1007F000D700831603133E0883120313D6000A168C
:100800008A1178250A128A11831203135508831658
:100810000313C10083120313540883160313C0008B
:1008200083120313530883160313BF0083120313A9
:10083000520883160313BE003808803AFF00803048
:100840007F02031D252C0A3037020318282C292C7F
:100850007A2C831603134108F3004008F2003F0886
:10086000F1003E08F0000030F7000030F6000030E4
:10087000F5000030F4000A168A1568250A128A115C
:100880000318432C442CEC2C8316031341088312C9
:100890000313D40083160313400883120313D300F9
:1008A000831603133F0883120313D2008316031326
:1008B0003E0883120313D1000A168A1584270A12F0
:1008C0008A11831203135408530452045104031D64
:1008D0006A2C6B2CEC2C831603133808803AFF002B
:1008E00080307F02031D762C02303702031C792CE6
:1008F0007A2CEC2C831603133C08F3003B08F2001F
:100900003A08F1003908F0004030F7008930F6006D
:100910007030F5005F30F4000A168A11C2200A1206
:100920008A110318942C952C9E2CF73083160313F0
:10093000B7070318B80AFF30B807A62CF83083169B
:100940000313B7070318B80AFF30B80737080A12AD
:100950008A1540210A128A11831203134108831653
:100960000313BC0083120313400883160313BB0058
:10097000831203133F0883160313BA008312031371
:100980003E0883160313B9004108F3004008F20043
:100990003F08F1003E08F0003C08F7003B08F60075
:1009A0003A08F5003908F4000A168A11DD220A1205
:1009B0008A11730883160313B6007208B500710814
:1009C000B4007008B3000030C1000030C000003037
:1009D000BF000030BE00702D831603134108831240
:1009E0000313D40083160313400883120313D300A8
:1009F000831603133F0883120313D20083160313D5
:100A00003E0883120313D1000A168A1584270A129E
:100A10008A1183120313540883160313B60083123A
:100A20000313530883160313B500831203135208EC
:100A300083160313B40083120313510883160313A0
:100A4000B3003608F9003508F8003408F700330819
:100A5000F60000300A168A1164210A128A117908F8
:100A600083120313E9007808E8007708E7007608A6
:100A7000E60083160313410883120313ED00831667
:100A80000313400883120313EC00831603133F087B
:100A900083120313EB00831603133E088312031320
:100AA000EA000A168A15FB230A128A11831203131D
:100AB000690883160313C1008312031368088316A1
:100AC0000313C00083120313670883160313BF00C8
:100AD00083120313660883160313BE00B701B8011F
:100AE000C201C20A4208A50001300310A50DFF3E55
:100AF000031D752D0310250D693E84000A168A1109
:100B00000A200A128A11A6000A168A110A200A125D
:100B10008A11A7000A168A110A200A128A11A8004F
:100B20000A168A110A200A128A11A9002908360217
:100B3000031DA42D28083502031DA42D2708340207
:100B4000031DA42D260833020318A72DA82DA92DB7
:100B5000B32D0130A5002508C2070A304206031D47
:100B6000B22DB32D722D03302F05A50000303005B6
:100B7000A600250826040319BE2DBF2D312E2D30C9
:100B8000A5003D0884002508831380000130A500DE
:100B90002508BD07312E4208A50001300310A50D20
:100BA000FF3E031DCE2D0310250D693E84000A165D
:100BB0008A110A200A128A11F0000A168A110A20E4
:100BC0000A128A11F1000A168A110A200A128A11E1
:100BD000F2000A168A110A200A128A11F300360856
:100BE000F7003508F6003408F5003308F4000A165B
:100BF0008A15B5260A128A11730883160313BC00DE
:100C00007208BB007108BA007008B9000030F30028
:100C10000030F2000030F1000A30F0003C08F7002C
:100C20003B08F6003A08F5003908F4000A168A1560
:100C300008260A128A11730883160313BC0072086F
:100C4000BB007108BA007008B9003908303EA50031
:100C50003D0884002508831380000130A500250885
:100C6000BD070130C202420A031D372E382ECB2D9C
:100C70004C2E303083160313A5003D088400250850
:100C8000831380000130A5002508BD07FF30B7079A
:100C90000318B80AFF30B8073808803AFF008030E0
:100CA0007F02031D552E013037020318582E592E8E
:100CB000392E831603133208803AFF0080307F02FA
:100CC000031D642E09303102031C672E682E6F2E1F
:100CD000083083160313A5002508C200752E83165D
:100CE00003133108A5002508C2004208A500A6018B
:100CF0002508B1022608031CB203B20242080319F8
:100D0000822E832E8E2E2E30A5003D0884002508CD
:100D1000831380000130A5002508BD0742080A1290
:100D20008A1540210A128A1183120313410883167F
:100D30000313AD0083120313400883160313AC00A2
:100D4000831203133F0883160313AB0083120313AC
:100D50003E0883160313AA002D0883120313AB0069
:100D6000831603132C0883120313AA00831603139C
:100D70002B0883120313A900831603132A08831276
:100D80000313A80083160313410883120313A7005B
:100D900083160313400883120313A600831603135C
:100DA0003F0883120313A500831603133E08831222
:100DB0000313A4000A128A159F240A128A118312AF
:100DC00003132708D4002608D3002508D2002408DE
:100DD000D1000A168A1584270A128A118312031376
:100DE000540883160313B6008312031353088316A3
:100DF0000313B50083120313520883160313B400C0
:100E000083120313510883160313B300A82F42085B
:100E1000A50001300310A50DFF3E031D0A2F03108E
:100E2000250D693E84000A168A110A200A128A11C9
:100E3000F0000A168A110A200A128A11F1000A1615
:100E40008A110A200A128A11F2000A168A110A204F
:100E50000A128A11F3003608F7003508F600340844
:100E6000F5003308F4000A168A15B5260A128A110D
:100E7000730883160313BC007208BB007108BA0024
:100E80007008B9000030F3000030F2000030F100CB
:100E90000A30F0003C08F7003B08F6003A08F5007D
:100EA0003908F4000A168A1508260A128A117308EE
:100EB00083160313BC007208BB007108BA007008E7
:100EC000B9003908303EA5003D0884002508831389
:100ED00080000130A5002508BD074208A5000130AB
:100EE0000310A50DFF3E031D702F0310250D693E55
:100EF00084000A168A110A200A128A11F0000A16C2
:100F00008A110A200A128A11F1000A168A110A208F
:100F10000A128A11F2000A168A110A200A128A118C
:100F2000F3003608F7003508F6003408F5003308FA
:100F3000F4000A168A1508260A128A117308831605
:100F40000313B6007208B5007108B4007008B3004E
:100F50000130C202420A031DAE2FAF2F072FC12F4F
:100F60003030A5003D08840025088313800001303F
:100F7000A5002508BD07FF30B1070318B20AFF30EE
:100F8000B20731083204031DC62FC72FB02FDC2F44
:100F900003302F05A50000303005A60025082604E3
:100FA0000319D32FD42FDC2F2D30A5003D0884004A
:100FB0002508831380004E2A0130A007FF30200748
:100FC00084000A168A110A200A128A11A50025082F
:100FD000C2004208031DED2FEE2F412A3D08840078
:100FE0008313800108008313C6308400E0300A16A2
:100FF0008A1591230A128A1183010A168A15BE2BBB
:10100200023083160313850002308316031788000B
:101012000530831203139F008030831603139F0051
:101022000800683083160313C400E330C300C30B07
:101032001828C40B18281D28831203139F149F1805
:101042002328242820281E0883160313CF001E08F5
:10105200CE00443083120313A9008030A800003070
:10106200A7000030A6000530F2000030F30083161E
:1010720003134F08F1004E08F0000A168A151F24C8
:101082000A128A157008F6007108F7000030F71B83
:10109200FF30F800F90001300A168A1164210A12A1
:1010A2008A15790883120313AD007808AC0077081B
:1010B200AB007608AA000A168A119B230A128A1527
:1010C20083120313290883160313CD00831203131B
:1010D200280883160313CC008312031327088316F0
:1010E2000313CB0083120313260883160313CA00CB
:1010F200443083120313A7007A30A6000030A50003
:101102000030A400831603134D0883120313AB00AF
:10111200831603134C0883120313AA0083160313C6
:101122004B0883120313A900831603134A08831280
:101132000313A8000A128A159F240A128A15831221
:101142000313270883160313C90083120313260807
:1011520083160313C800831203132508831603138F
:10116200C70083120313240883160313C6004130F9
:1011720083120313A9002030A8000030A70000301A
:10118200A60083160313490883120313AD008316C6
:101192000313480883120313AC0083160313470892
:1011A20083120313AB00831603134608831203133F
:1011B200AA000A168A119B230A128A1583120313A4
:1011C200290883160313C900831203132808831600
:1011D2000313C80083120313270883160313C700DF
:1011E20083120313260883160313C6009E30C3001E
:1011F2004308A0004908A4004808A3004708A20029
:101202004608A100D0300A128A1139220A128A1520
:101212000A168A11B5200A128A15F401F40A01305D
:101222000A168A15B6250A128A159130F500803001
:10123200F6000A168A15E2240A128A15F401F40A43
:1012420002300A168A15B6250A128A15D030F50020
:101252000030F6000A168A15E2240A128A151530A1
:1012620083160313C5004B30C400BD30C300C30B4B
:101272003829C40B3829C50B38293F2908008312A5
:101282000313D000D01F46294729F42AD009D00AD7
:101292005008803A123E031C4F295029382A0A303E
:1012A200F7000030F8005008F200F301F21BF303DC
:1012B2006430F0000030F1000A168A155C260A122A
:1012C2008A157108FA007008F9000A168A151B2798
:1012D2000A128A15770883120313C2000130031021
:1012E200C20DFF3E031D70290310420D593E8400BA
:1012F2000A168A110A200A128A15C3000A168A11CE
:101302000A200A128A15C4000A168A110A200A1231
:101312008A15C5000A168A110A200A128A15C60001
:101322004608A7004508A6004408A5004308A400F3
:101332006430F7000030F8005008F900FA01F91B98
:10134200FA030A168A151B270A128A1577088312CE
:101352000313C70001300310C70DFF3E031DAC2964
:101362000310470D7D3E84000A168A110A200A12D4
:101372008A15C8000A168A110A200A128A15C9009B
:101382000A168A110A200A128A15CA000A168A1136
:101392000A200A128A15CB004B08AB004A08AA00A1
:1013A2004908A9004808A8000A128A159F240A12AF
:1013B2008A15831203132708CF002608CE002508BA
:1013C200CD002408CC000A30F0000030F1005008B3
:1013D200F200F301F21BF3030A168A155C260A12C5
:1013E2008A15700883120313C20001300310C20D64
:1013F200FF3E031DF7290310420D353E84000A16F5
:101402008A110A200A128A15C3000A168A110A20B2
:101412000A128A15C4000A168A110A200A128A15AB
:10142200C5000A168A110A200A128A15C600460841
:10143200A7004508A6004408A5004308A4004F08D9
:10144200AB004E08AA004D08A9004C08A8000A12D9
:101452008A159F240A128A15831203132708C100D2
:101462002608C0002508BF002408BE009E2C500894
:10147200803A753E031C3E2A3F2AC72A0A30F000F2
:101482000030F1005008F200F301F21BF3030A16D8
:101492008A155C260A128A15700883120313C20089
:1014A20001300310C20DFF3E031D522A0310420DEC
:1014B200353E84000A168A110A200A128A15C300D0
:1014C2000A168A110A200A128A15C4000A168A11FB
:1014D2000A200A128A15C5000A168A110A200A125F
:1014E2008A15C6004608A7004508A6004408A500BC
:1014F2004308A4000A30F7000030F8005008F90051
:10150200FA01F91BFA030A168A151B270A128A1511
:10151200770883120313C70001300310C70DFF3E83
:10152200031D8E2A0310470D593E84000A168A11A4
:101532000A200A128A15C8000A168A110A200A12FB
:101542008A15C9000A168A110A200A128A15CA00C7
:101552000A168A110A200A128A15CB004B08AB0020
:101562004A08AA004908A9004808A8000A128A15D0
:101572009F240A128A15831203132708C100260822
:10158200C0002508BF002408BE009E2C5008C200DF
:1015920001300310C20DFF3E031DCA2A0310420D83
:1015A200353E84000A168A110A200A128A15C300DF
:1015B2000A168A110A200A128A15C4000A168A110A
:1015C2000A200A128A15C5000A168A110A200A126E
:1015D2008A15C6004608C1004508C0004408BF007D
:1015E2004308BE009E2C5008803A123E031CFA2A81
:1015F200FB2AE32B0A30F7000030F8005008F20013
:10160200F301F21BF3036430F0000030F1000A161C
:101612008A155C260A128A157108FA007008F90008
:101622000A168A151B270A128A15770883120313D2
:10163200C20001300310C20DFF3E031D1B2B03101D
:10164200420D253E84000A168A110A200A128A15C2
:10165200C3000A168A110A200A128A15C4000A1641
:101662008A110A200A128A15C5000A168A110A204E
:101672000A128A15C6004608A7004508A6004408B3
:10168200A5004308A4006430F7000030F8005008B9
:10169200F900FA01F91BFA030A168A151B270A1226
:1016A2008A15770883120313C70001300310C70D90
:1016B200FF3E031D572B0310470D493E84000A16B7
:1016C2008A110A200A128A15C8000A168A110A20EB
:1016D2000A128A15C9000A168A110A200A128A15E4
:1016E200CA000A168A110A200A128A15CB004B0870
:1016F200AB004A08AA004908A9004808A8000A1233
:101702008A159F240A128A15831203132708CF0011
:101712002608CE002508CD002408CC000A30F000AF
:101722000030F1005008F200F301F21BF3030A1635
:101732008A155C260A128A15700883120313C200E6
:1017420001300310C20DFF3E031DA22B0310420DF8
:10175200013E84000A168A110A200A128A15C30061
:101762000A168A110A200A128A15C4000A168A1158
:101772000A200A128A15C5000A168A110A200A12BC
:101782008A15C6004608A7004508A6004408A50019
:101792004308A4004F08AB004E08AA004D08A90058
:1017A2004C08A8000A128A159F240A128A1583126D
:1017B20003132708C1002608C0002508BF0024081B
:1017C200BE009E2C5008803A753E031CE92BEA2B82
:1017D200722C0A30F0000030F1005008F200F301E0
:1017E200F21BF3030A168A155C260A128A15700880
:1017F20083120313C20001300310C20DFF3E031D0A
:10180200FD2B0310420D013E84000A168A110A20A4
:101812000A128A15C3000A168A110A200A128A15A8
:10182200C4000A168A110A200A128A15C5000A166D
:101832008A110A200A128A15C6004608A70045081E
:10184200A6004408A5004308A4000A30F7000030AF
:10185200F8005008F900FA01F91BFA030A168A1572
:101862001B270A128A15770883120313C700013057
:101872000310C70DFF3E031D392C0310470D253EF3
:1018820084000A168A110A200A128A15C8000A164A
:101892008A110A200A128A15C9000A168A110A2018
:1018A2000A128A15CA000A168A110A200A128A1511
:1018B200CB004B08AB004A08AA004908A900480817
:1018C200A8000A128A159F240A128A15831203138A
:1018D2002708C1002608C0002508BF002408BE0052
:1018E2009E2C5008C20001300310C20DFF3E031DA2
:1018F200752C0310420D013E84000A168A110A203B
:101902000A128A15C3000A168A110A200A128A15B7
:10191200C4000A168A110A200A128A15C5000A167C
:101922008A110A200A128A15C6004608C100450813
:10193200C0004408BF004308BE000800831203131E
:1019420027088039AC002C08B1002708AC002C070E
:10195200AD002D08B700A61FAF2CB02CB12C371448
:1019620037080319B52CB62CC52C370A031DBA2C1F
:10197200BB2CC32C0030A7000030A6000030A5000D
:101982000030A400A617CD2C0030A7000030A6001E
:101992000030A5000030A4002B088039AC002C08D0
:1019A200B1062B08AC002C07AD002D08B600AA1F0B
:1019B200DB2CDC2CDD2C361436080319E12CE22C4E
:1019C200F12C360A031DE62CE72CEF2C0030AB007D
:1019D2000030AA000030A9000030A800AA17F92C94
:1019E2000030AB000030AA000030A9000030A8008F
:1019F20036080319FD2CFE2C032D3708031D022D7A
:101A0200032D0C2D0030A7000030A6000030A500E9
:101A12000030A400FF2F2408AC002C08F0002A0894
:101A22000A168A1544240A128A15710883120313AE
:101A3200BD007008BC003C08AC00AD01AE01AF01B6
:101A42002F08B5002E08B4002D08B3002C08B200F0
:101A52003D08AC00AD01AE01AF012F08BB002E085E
:101A6200BA002D08B9002C08B8002508AC002C08D3
:101A7200F00029080A168A1544240A128A157108E8
:101A820083120313BD007008BC003C08AC00AD011A
:101A9200AE01AF012C08B2072D0803110318013E55
:101AA2000319542DB3072E0803110318013E03191D
:101AB2005B2DB4072F0803110318013E0319622D91
:101AC200B5073D08AC00AD01AE01AF012C08B80767
:101AD2002D0803110318013E0319702DB9072E08B2
:101AE20003110318013E0319772DBA072F080311BA
:101AF2000318013E03197E2DBB072608AC002C08F3
:101B0200F00028080A168A1544240A128A15710858
:101B120083120313BD007008BC003C08AC00AD0189
:101B2200AE01AF012C08B2072D0803110318013EC4
:101B320003199C2DB3072E0803110318013E031944
:101B4200A32DB4072F0803110318013E0319AA2D70
:101B5200B5073D08AC00AD01AE01AF012C08B807D6
:101B62002D0803110318013E0319B82DB9072E08D9
:101B720003110318013E0319BF2DBA072F080311E1
:101B82000318013E0319C62DBB070830AC00031031
:101B9200B20DB30DB40DB50DAC0BC82D2508AC00BC
:101BA2002C08F00028080A168A1544240A128A15FD
:101BB200710883120313BD007008BC003C08AC001E
:101BC2003D08AD00AE01AF012C08B2072D0803118C
:101BD2000318013E0319EE2DB3072E080311031853
:101BE200013E0319F52DB4072F0803110318013E16
:101BF2000319FC2DB5072408AC002C08F0002908B5
:101C02000A168A1544240A128A15710883120313CC
:101C1200BD007008BC003C08AC003D08AD00AE0140
:101C2200AF012C08B2072D0803110318013E031956
:101C32001B2EB3072E0803110318013E0319222E8F
:101C4200B4072F0803110318013E0319292EB50703
:101C52000830AC000310B20DB30DB40DB50DAC0BD2
:101C62002B2E2408AC002C08F00028080A168A152E
:101C720044240A128A15710883120313BD007008E6
:101C8200BC003C08AC003D08AD00AE01AF012C0821
:101C9200B2072D0803110318013E0319512EB30791
:101CA2002E0803110318013E0319582EB4072F08FA
:101CB20003110318013E03195F2EB5072508AC0076
:101CC2002C08F0002A080A168A1544240A128A15DA
:101CD200710883120313BD007008BC003C08AC00FD
:101CE2003D08AD00AE01AF012C08B8072D08031165
:101CF2000318013E03197E2EB9072E08031103189B
:101D0200013E0319852EBA072F0803110318013E5D
:101D120003198C2EBB072608AC002C08F0002908FA
:101D22000A168A1544240A128A15710883120313AB
:101D3200BD007008BC003C08AC003D08AD00AE011F
:101D4200AF012C08B8072D0803110318013E03192F
:101D5200AB2EB9072E0803110318013E0319B22E48
:101D6200BA072F0803110318013E0319B92EBB0746
:101D72002608AC002C08F0002A080A168A1544240A
:101D82000A128A15710883120313BD007008BC0081
:101D92003C08AC003D08AD00AE01AF0108300310B5
:101DA200AC0DAD0DAE0DAF0DFF3E031DD02E2C08B8
:101DB200B8072D0803110318013E0319E12EB907D4
:101DC2002E0803110318013E0319E82EBA072F0843
:101DD20003110318013E0319EF2EBB073208AC00B2
:101DE2003308AD003408AE003508AF0018300310D8
:101DF200AF0CAE0CAD0CAC0CFF3E031DF82E2C0844
:101E0200B8072D0803110318013E0319092FB9075A
:101E12002E0803110318013E0319102FBA072F08C9
:101E220003110318013E0319172FBB070830AC003A
:101E32000310B20DB30DB40DB50DAC0B192F37084D
:101E42003607AC00AD01AD0D2C08823EBC002D085A
:101E52000318013EFF3EBD004B2F0130AC000310C2
:101E6200B80DB90DBA0DBB0DAC0B302FB51F3A2F03
:101E72003B2F3C2F38140130AC000310B20DB30DD0
:101E8200B40DB50DAC0B3E2FFF30BC070318BD0AD5
:101E9200FF30BD07BA1F4E2F4F2F2E2FB601B51F91
:101EA200532F542F702FFF303205AC00FF30330513
:101EB200AD00FF303405AE007F303505AF002F088E
:101EC2002E042D042C040319672F682F6B2FB601E3
:101ED200B60A702F381C6E2F6F2F702F682F36089E
:101EE2000319742F752FA62F0130B807003003187D
:101EF2000130B907003003180130BA070030031867
:101F02000130BB073B1C862F872FA62F3808AC0059
:101F12003908AD003A08AE003B08AF000130B0000E
:101F22002F0DAF0CAE0CAD0CAC0CB00B912F2F08DB
:101F3200BB002E08BA002D08B9002C08B8000130E9
:101F4200BC070318BD0A0030BD073D08803AFF00F8
:101F520080307F02031DAF2FFF303C02031CB22FE3
:101F6200B32FBE2F7F3083120313BB008030BA0021
:101F72000030B9000030B800F32F831203133D087C
:101F8200803AFF0080307F02031DC92F01303C02DE
:101F92000318CC2FCD2FD92F003083120313BB008F
:101FA2000030BA000030B9000030B800B101F32FA0
:101FB200831203133C08AC002C08B700FF30B805AD
:101FC200FF30B9057F30BA050030BB05371CEA2F58
:101FD200EB2FEC2FBA173708AC0003102C0CAD0016
:101FE2002D08BB003108AC002C08BB043B08A7003D
:101FF2003A08A6003908A5003808A4000800FF1B0B
:102002000A2883137F1883170008840A0319FF0A1A
:10201200080010308A000408840A82070034003461
:10202200003480343F3400340034203441340034EE
:102032000034C8344234003400347A344434003436
:1020420040341C34463400345034C33447340034F2
:102052002434743449348034963418344B34203464
:10206200BC34BE344C3428346B346E344E34F934C0
:10207200023415345034EC347834AD346034CA341C
:10208200F234493471340034003480343F34CD3476
:10209200CC34CC343D340A34D73423343C346F341A
:1020A200123483343A341734B734D1343834AC343C
:1020B200C53427343734BD34373486343534953417
:1020C200BF34D63433347734CC342B3432345F34A7
:1020D200703489343034FF34E634DB342E3408343F
:1020E200E5343C341E3460344234A2340D340134BD
:1020F2000034003400340A340034003400346434D0
:10210200003400340034E834033400340034103432
:10211200273400340034A03486340134003440348F
:1021220042340F340034803496349834003400340E
:10213200E134F53405340034CA349A343B3454342F
:1021420065346D3470342E34203461346334743425
:10215200753461346C3400342534663420344334AD
:02216200003447
:10216A0000300A168A15A4230A168A1101300A16A3
:10217A008A15A4230A168A11080000307005F8008F
:10218A0000307105F90080307205FA007F3073055E
:10219A00FB007B087A0479047804031DD528D62825
:1021AA00DE280030F3000030F2000030F100003089
:1021BA00F00000307405F80000307505F900803031
:1021CA007605FA007F307705FB007B087A047904EC
:1021DA007804031DF128F228FA280030F7000030AD
:1021EA00F6000030F5000030F400F31FFD28FE2849
:1021FA0022290030F8000030F9000030FA0080305F
:10220A00FB007008F8027108031C710F0D290E29D2
:10221A00F9027208031C720F13291429FA027308AF
:10222A00031C730F19291A29FB027B08F3007A0889
:10223A00F2007908F1007808F000F71F252926290D
:10224A004A290030F8000030F9000030FA008030E6
:10225A00FB007408F8027508031C750F3529362926
:10226A00F9027608031C760F3B293C29FA02770803
:10227A00031C770F41294229FB027B08F7007A08E1
:10228A00F6007908F5007808F4008030F30680300B
:10229A00F70677087302031D5C2976087202031D8C
:1022AA005C2975087102031D5C2974087002031801
:1022BA005F29602962290310632903140800831225
:1022CA000313A000200803196B296C298029F91F20
:1022DA006F29702980297609A2007709A300780955
:1022EA00A4007909A500A20A0319A30A0319A40ADA
:1022FA000319A50A88297908A5007808A40077088F
:10230A00A3007608A2007908780477047604031DEE
:10231A008F29902999290030F9000030F8000030FF
:10232A00F7000030F6001F2A9630FA007A08A1005A
:10233A00AB290130FA007A08A10701300310A50C75
:10234A00A40CA30CA20CFF3E031DA329FE302505F5
:10235A00031DB029B1299E29CD290130FA007A0836
:10236A00A1070130A207003003180130A30700308B
:10237A0003180130A407003003180130A507013003
:10238A000310A50CA40CA30CA20CFF3E031DC52927
:10239A00FF302505031DD229D329B229DF290130AF
:1023AA00A1020130FA000310A20DA30DA40DA50D80
:1023BA00FA0BD829A41BE229E329E92902302102D0
:1023CA000318E829E929D4292118EC29ED29F52946
:1023DA00FF30A205FF30A3057F30A405FF30A50515
:1023EA000310A10C2108FA00FB01FC01FD011830C1
:1023FA000310FA0DFB0DFC0DFD0DFF3E031DFD291B
:10240A007A08A2047B08A3047C08A4047D08A50416
:10241A0020080319112A122A172AF91F152A162A1F
:10242A00172AA5172508F9002408F8002308F70039
:10243A002208F60008007008F8007108F90072080E
:10244A00FA000310790D7A0DFB007B08831203133F
:10245A00A5002508031D322A332A3C2A0030F3003E
:10246A000030F2000030F1000030F000DC2A74087D
:10247A00F8007508F9007608FA000310790D7A0D4C
:10248A00FB007B08A4002408031D4C2A4D2A4E2A6F
:10249A00332AF117FF30F005FF30F1050030F2055D
:1024AA00F517FF30F405FF30F5050030F60500306A
:1024BA00A3000030A2000030A1000030A0007F304D
:1024CA00A50298302407F8007808A5021830F80009
:1024DA007808A4000130F8000310A00DA10DA20D88
:1024EA00A30DF80B712A76087202031D822A750859
:1024FA007102031D822A74087002031C852A862A27
:10250A00912A7408F0027508031C750FF102760807
:10251A00031C760AF202201401300310F00DF10DAB
:10252A00F20DFF3E031D922A0130A402031D9E2ACA
:10253A009F2A6F2AA51FA22AA32ABD2A2508803A04
:10254A00973E0318A92AAA2AAB2A332A0130031074
:10255A00A30CA20CA10CA00CFF3E031DAC2A013057
:10256A00F8007808A507031DBB2ABC2AAB2AD42A7F
:10257A0018302502031CC22AC32ACF2A332A013063
:10258A00F8000310A00DA10DA20DA30DF80BC62A89
:10259A000130A5022508031DD32AD42AC42A2308F8
:1025AA00F3002208F2002108F1002008F0000800D8
:1025BA000310720D730DF800780883120313A50037
:1025CA002508031DE92AEA2AF32A0030F30000301D
:1025DA00F2000030F1000030F0009A2B0310760D63
:1025EA00770DF8007808A4002408031DFD2AFE2AA6
:1025FA00FF2AEA2AF217FF30F005FF30F105FF3013
:10260A00F2050030F305F617FF30F405FF30F50543
:10261A00FF30F6050030F7050030A3000030A200B5
:10262A000030A1000030A0007F30A502A0302407AE
:10263A00F8007808A5022030F8007808A4000130D4
:10264A00F8000310A00DA10DA20DA30DF80B262B67
:10265A0077087302031D3B2B76087202031D3B2B7E
:10266A0075087102031D3B2B74087002031C3E2B74
:10267A003F2B4E2B7408F0027508031C750FF102EC
:10268A007608031C760FF2027708031C770FF30211
:10269A0020140130F8000310F00DF10DF20DF30DC6
:1026AA00F80B502B0130A402031D5C2B5D2B242B4D
:1026BA00A51F602B612B7B2B2508803A9F3E0318B0
:1026CA00672B682B692BEA2A01300310A30CA20C92
:1026DA00A10CA00CFF3E031D6A2B0130F8007808FC
:1026EA00A507031D792B7A2B692B922B2030250203
:1026FA00031C802B812B8D2BEA2A0130F800031052
:10270A00A00DA10DA20DA30DF80B842B0130A5027B
:10271A002508031D912B922B822B2308F3002208F4
:10272A00F2002108F1002008F000080083120313C8
:10273A002D088039AE002E08B7002D08AE002E07EE
:10274A00AF002F08BE00AC1FAB2BAC2BAD2B3E1439
:10275A003E080319B12BB22BC22B3E0A031DB62B1E
:10276A00B72BBF2B0030AD000030AC000030AB00FF
:10277A000030AA00AC17AD01CA2B0030AD00003002
:10278A00AC000030AB000030AA0029088039AE0046
:10279A002E08B7062908AE002E07AF002F08BF0083
:1027AA00A81FD82BD92BDA2B3F143F080319DE2B8D
:1027BA00DF2BEF2B3F0A031DE32BE42BEC2B00301E
:1027CA00A9000030A8000030A7000030A600A81712
:1027DA00A901F72B0030A9000030A8000030A7009B
:1027EA000030A6002908280427042604031DFE2B0E
:1027FA00FF2B182C0030AD000030AC000030AB00CD
:10280A000030AA008030AC047F30AD043708AE0037
:10281A002E08AD042D08A9002C08A8002B08A70033
:10282A002A08A600772D3E08031D1C2C1D2C262CD9
:10283A000030A9000030A8000030A7000030A60030
:10284A00772D3E08AE00AF012F08B1003F082E02D7
:10285A00B000031CB10330087F3EB80031080318EA
:10286A00013E003EB9002D08B6002C08B5002B0821
:10287A00B4002A08B3000030AD000030AC000030CC
:10288A00AB000030AA000030BD000030BC000030B0
:10289A00BB000030BA00BF019C2C3F080319562C1C
:1028AA00572C772C0130AE000310B30DB40DB50DC3
:1028BA00B60DAE0B592C0130AE000310AA0DAB0DAC
:1028CA00AC0DAD0DAE0B622CBD1F6C2C6D2C6E2C9D
:1028DA002A140130AE000310BA0DBB0DBC0DBD0D9C
:1028EA00AE0B702C29083602031D852C28083502E8
:1028FA00031D852C27083402031D852C2608330264
:10290A00031C882C892C982C3D172608B30227080B
:10291A00031C270FB4022808031C280FB502290834
:10292A00031C290FB6020130AE002E08BF071A3069
:10293A003F02031CA12CA22C522C36083504340465
:10294A0033040319A92CAA2CC92C3A14C92C013016
:10295A00AE000310AA0DAB0DAC0DAD0DAE0BAE2C37
:10296A00BD1FB82CB92CBA2C2A140130AE000310A2
:10297A00BA0DBB0DBC0DBD0DAE0BBC2CFF30B8079C
:10298A000318B90AFF30B907AC1FCC2CCD2CAC2CDC
:10299A00BF01BD1FD12CD22CEE2CFF303A05AE0060
:1029AA00FF303B05AF00FF303C05B0007F303D05EE
:1029BA00B100310830042F042E040319E52CE62C4B
:1029CA00E92CBF01BF0AEE2C2A1CEC2CED2CEE2CB4
:1029DA00E62C3F080319F22CF32C242D0130AA0708
:1029EA00003003180130AB07003003180130AC0780
:1029FA00003003180130AD072D1C042D052D242DA0
:102A0A002A08AE002B08AF002C08B0002D08B10030
:102A1A000130B200310DB10CB00CAF0CAE0CB20BE0
:102A2A000F2D3108AD003008AC002F08AB002E087E
:102A3A00AA000130B8070318B90A0030B9073908E3
:102A4A00803AFF0080307F02031D2D2DFF303802AF
:102A5A00031C302D312D3F2DFF3083120313B80094
:102A6A000030B9000030AD000030AC000030AB00DF
:102A7A000030AA00831203133908803AFF0080301D
:102A8A007F02031D4A2D0130380203184D2D4E2DA9
:102A9A005B2D83120313B801B9010030AD00003079
:102AAA00AC000030AB000030AA00B7018312031358
:102ABA003808AE002E08BE003E1C642D652D672D19
:102ACA00AC176B2D7F30AE002E08AC053E08AE0069
:102ADA0003102E0CAF002F08AD003708AE002E08E9
:102AEA00AD040F2C08008312031355088039DA004D
:102AFA005A08E2005508DA005A07DB005B08E400CE
:102B0A00D41F882D892D8A2D6414640803198E2DEB
:102B1A008F2D9F2D640A031D932D942D9C2D00301B
:102B2A00D5000030D4000030D3000030D200D417D2
:102B3A00D501A72D0030D5000030D4000030D300D5
:102B4A000030D20059088039DA005A08E3006308D5
:102B5A0062060319B12DB22DB32D62175908DA0096
:102B6A005A07DB005B08E300D81FBC2DBD2DBE2D24
:102B7A00631463080319C22DC32DD32D630A031DE1
:102B8A00C72DC82DD02D0030D9000030D800003014
:102B9A00D7000030D600D817D901DB2D0030D90074
:102BAA000030D8000030D7000030D6006408630235
:102BBA000318E02DE12D252E621FE42DE52DE92DC8
:102BCA008030DA005A08E2066408DA005A08E5009A
:102BDA006308DA005A08E4006508DA005A08E300D4
:102BEA005208DA005A08E5005608DA005A08D200F4
:102BFA006508DA005A08D6005308DA005A08E500D0
:102C0A005708DA005A08D3006508DA005A08D700CC
:102C1A005408DA005A08E5005808DA005A08D400BD
:102C2A006508DA005A08D8005508DA005A08E5009B
:102C3A005908DA005A08D5006508DA005A08D90096
:102C4A00E5016308DA00DB015B08DD0064085A026B
:102C5A00DC00031CDD035D08803AFF0080307F0240
:102C6A00031D392E1A305C02031C3C2E3D2E7A2E8F
:102C7A00831203135508540453045204031D462EA9
:102C8A00482E0130492E0030DA005A08E50000309B
:102C9A00D5000030D4000030D3000030D2006308E1
:102CAA00DA005A08E400822E651C5C2E5D2E662E20
:102CBA006508DA0003105A0C0138DB005B08E500EE
:102CCA00682E0310E50C521C6B2E6C2E6D2EE51728
:102CDA000130DA00550DD50CD40CD30CD20CDA0B1A
:102CEA006F2E0130DA005A08E407831203136308CF
:102CFA006402031C812E822E592E621B852E862E7B
:102D0A00D12E6408031D8A2E8B2E942E0030D500F6
:102D1A000030D4000030D3000030D200FF2F560814
:102D2A00D207570803110318013E03199D2ED30732
:102D3A00580803110318013E0319A42ED407590891
:102D4A0003110318013E0319AB2ED507551CAE2EED
:102D5A00AF2E852F651CB22EB32EBC2E6508DA0065
:102D6A0003105A0C0138DB005B08E500BE2E031085
:102D7A00E50C521CC12EC22EC32EE5170130DA0013
:102D8A00550DD50CD40CD30CD20CDA0BC52E013050
:102D9A00DA005A08E407852F5508803AFF005908D7
:102DAA00803A7F02031DE32E58085402031DE32EC6
:102DBA0057085302031DE32E560852020318E62E43
:102DCA00E72E3F2FFF30DA00FF30DB00FF30DC0058
:102DDA00FF30DD005608DE005708DF005808E00023
:102DEA005908E1005208DE025308031C530FFE2E55
:102DFA00FF2EDF025408031C540F042F052FE00294
:102E0A005508031C550F0A2F0B2FE1025E08DA073B
:102E1A005F0803185F0F122F132FDB0760080318D0
:102E2A00600F182F192FDC0761080318610ADD07E4
:102E3A005D08D5005C08D4005B08D3005A08D200AC
:102E4A008030DA005A08E206E509E50A6508031D3A
:102E5A002F2F302F4D2F0130D207003003180130A9
:102E6A00D307003003180130D407003003180130AB
:102E7A00D5074D2F5608D2025708031C570FD30205
:102E8A005808031C580FD4025908031C590FD502BD
:102E9A005508540453045204031D542F552F812FEF
:102EAA006508031D592F5A2F812F0030D500003095
:102EBA00D4000030D3000030D200FF2F0130DA00F6
:102ECA000310D20DD30DD40DD50DDA0B652FE51FE6
:102EDA006F2F702F712F5214651C742F752F782F36
:102EEA000314E50D7A2F0310E50D640803197E2FEC
:102EFA007F2F812F0130E402D41F842F852F632F67
:102F0A00E301E51F892F8A2F982F65087F39031956
:102F1A008F2F902F932FE301E30A982F521C962F9D
:102F2A00972F982F902F630803199C2F9D2FD12F2D
:102F3A000130D207003003180130D30700300318DC
:102F4A000130D407003003180130D507551CAE2FC5
:102F5A00AF2FD12F5208DA005308DB005408DC00E7
:102F6A005508DD000130DE005D0DDD0CDC0CDB0CEC
:102F7A00DA0CDE0BB92F5D08D5005C08D4005B08BB
:102F8A00D3005A08D200640A0319CC2FCD2FD12FAF
:102F9A000130DA005A08E407640A0319D52FD62F3C
:102FAA00DB2F6408031DDA2FDB2FE92F0030D50051
:102FBA000030D4000030D3000030D2006408031D72
:102FCA00E72FE82FE92FE201641CEC2FED2FEF2FFA
:102FDA00D417F32F7F30DA005A08D4056408DA00D0
:102FEA0003105A0CDB005B08D500E21FFD2FFE2FF1
:062FFA00FF2FD5170800AF
:1037220064008001840A0406031900340406922B03
:1037320073087204710470040319A02BA12BA32B2C
:103742008030F3060800F300831203130811730894
:103752000A168A15D9230A168A15831203138815A5
:103762003430F200F130F100F10BB52BF20BB52B36
:10377200BA2B8312031388110800831603138801DE
:103782000A168A15A5240A168A150A168A11B52060
:103792000A168A150A128A1501200A168A150A12B1
:1037A2008A1512200A168A15D02B0A128A110028AD
:1037B200F000701CDD2BDE2BE22B831203130816A4
:1037C200E52B831203130812F01CE82BE92BEB2BD9
:1037D2008816EC2B8812701DEF2BF02BF22B08179A
:1037E200F32B0813F01DF62BF72BF92B8817FA2B66
:1037F20088130800803083120313E9066D08D50090
:103802006C08D4006B08D3006A08D2006908D9009A
:103812006808D8006708D7006608D6000A168A1119
:1038220078250A168A15831203135508E9005408ED
:10383200E8005308E7005208E6000800F401F50129
:10384200701C242C252C2B2C7208F4070318F50A63
:103852007308F50701300310F20DF30DFF3E031D4F
:103862002C2C01300310F10CF00CFF3E031D332C05
:1038720070087104031D3E2C3F2C212C7508F100A9
:103882007408F0000800F800F401F5017008F20075
:10389200F3017208F6007308F700781C512C522CC1
:1038A200582C7608F4070318F50A7708F507013053
:1038B2000310F60DF70DFF3E031D592C0310F80CF3
:1038C2007808031D652C662C4E2C7508F1007408CF
:1038D200F0000800700871040319702C712CA02CE0
:1038E200F501F50A7F2C01300310F00DF10DFF3EBA
:1038F200031D752C0130F4007408F507F11F822CAA
:10390200832C742C71087302031D892C70087202B7
:10391200031C8C2C8D2C932C7008F2027108031C52
:10392200F303F30201300310F10CF00CFF3E031D10
:10393200942C0130F502031D9F2CA02C832C7308BC
:10394200F1007208F000080000300A168A15D92327
:103952000A168A1503300A168A15A4230A168A152E
:1039620003300A168A15A4230A168A1502300A168B
:103972008A15A4230A168A1502300A168A15A42368
:103982000A168A1508300A168A15A4230A168A15F9
:1039920000300A168A15A4230A168A150C300A1654
:1039A2008A15A4230A168A1500300A168A15A4233A
:1039B2000A168A1506300A168A15A4230A168A15CB
:1039C2000800FA01FB01072D7A087507F80076084E
:1039D200F7000318F70AFA1FEF2CF7037708F9002C
:1039E200790883120313FF00780884000A168A11EB
:1039F20000200A168A150A128A1103200A168A154D
:103A02000130FA070318FB0A0030FB077A08750732
:103A1200F8007608F7000318F70AFA1F112DF703CA
:103A22007708F900790883120313FF0078088400ED
:103A32000A168A1100200A168A15003A031D222D41
:103A4200232DE52C0800FB01FC01760877040319FD
:103A52002B2D2C2D632DFD01FD0A3A2D0130031073
:103A6200F60DF70DFF3E031D302D0130FA007A08E6
:103A7200FD07F71F3D2D3E2D2F2D01300310FB0DAD
:103A8200FC0DFF3E031D3F2D77087902031D4B2DD0
:103A920076087802031C4E2D4F2D562D7608F8021B
:103AA2007708031CF903F9027B1401300310F70CA9
:103AB200F60CFF3E031D572D0130FD02031D622D42
:103AC200632D3E2D7C08F7007B08F60008000030CD
:103AD2007005F80000307105F90080307205FA00B7
:103AE2007F307305FB007B087A0479047804031D98
:103AF2007B2D7C2D842D0030F3000030F20000304D
:103B0200F1000030F00000307405F8000030750557
:103B1200F90080307605FA007F307705FB007B08DC
:103B22007A0479047804031D972D982DA02D003076
:103B3200F7000030F6000030F5000030F40077089E
:103B42007306031DAE2D76087206031DAE2D750891
:103B52007106031DAE2D740870060319B12DB22D26
:103B6200B42D0310B52D03140800F7007703031DCD
:103B7200BB2DBC2DDF2D74087F3EF5007508FA00C1
:103B82007A08F50004300310F50CFF3E031DC42D26
:103B92007508F6007608F8007A080F39F5007508FE
:103BA200F90078080A168A15A4230A168A157908D4
:103BB2000A168A15A4230A168A15072E02307706DA
:103BC200031DE42DE52D072E7408BF3EF500750890
:103BD200FA007A08F50004300310F50CFF3E031DCD
:103BE200ED2D7508F6007608F8007A080F39F50011
:103BF2007508F90078080A168A15A4230A168A1588
:103C020079080A168A15A4230A168A150800730869
:103C120072047104700403190F2E102E532EF90131
:103C2200F90A202E0130F8000310F00DF10DF20D0B
:103C3200F30DF80B152E0130F8007808F907F31F81
:103C4200232E242E132E73087702031D322E7208A0
:103C52007602031D322E71087502031D322E700882
:103C62007402031C352E362E442E7008F40271089D
:103C7200031C710FF5027208031C720FF60273081F
:103C8200031C730FF70201300310F30CF20CF10C5A
:103C9200F00CFF3E031D452E0130F902031D522E8A
:103CA200532E242E7708F3007608F2007508F100EF
:103CB2007408F0000800F601F31F602E612E682ED2
:103CC200F209F309F20A0319F30AF601F60AF11FDF
:103CD2006B2E6C2E712EF009F109F00A0319F10A0C
:103CE200700871040319762E772EA62EF501F50AB7
:103CF200852E01300310F00DF10DFF3E031D7B2ECA
:103D02000130F4007408F507F11F882E892E7A2EEF
:103D120071087302031D8F2E70087202031C922E0B
:103D2200932E992E7008F2027108031CF303F3021A
:103D320001300310F10CF00CFF3E031D9A2E0130EE
:103D4200F502031DA52EA62E892E76080319AA2E8A
:103D5200AB2EB02EF209F309F20A0319F30A730823
:103D6200F1007208F00008000030FC000030FB0097
:103D72000030FA000030F900730872047104700414
:103D82000319C42EC52E122FFD01FD0AD52E0130B6
:103D9200F8000310F00DF10DF20DF30DF80BCA2E21
:103DA2000130F8007808FD07F31FD82ED92EC82E4F
:103DB2000130F8000310F90DFA0DFB0DFC0DF80BA4
:103DC200DB2E73087702031DF02E72087602031DA4
:103DD200F02E71087502031DF02E70087402031C88
:103DE200F32EF42E032F7008F4027108031C710FD6
:103DF200F5027208031C720FF6027308031C730F9C
:103E0200F702791401300310F30CF20CF10CF00CF0
:103E1200FF3E031D042F0130FD02031D112F122F3F
:103E2200D92E7C08F3007B08F2007A08F1007908A9
:103E3200F000080083120313A101F81F212F222F83
:103E4200292FF709F809F70A0319F80AA101A10AAB
:103E5200FA1F2C2F2D2F362FF909FA09F90A031907
:103E6200FA0A0130FB007B08A106A201A301770830
:103E7200780403193D2F3E2F752FA001A00A4C2F65
:103E820001300310F70DF80DFF3E031D422F0130E4
:103E9200FB007B08A007F81F4F2F502F412F013046
:103EA2000310A20DA30DFF3E031D512F78087A02C5
:103EB200031D5D2F77087902031C602F612F682F85
:103EC2007708F9027808031CFA03FA022214013077
:103ED2000310F80CF70CFF3E031D692F0130A002FE
:103EE200031D742F752F502F21080319792F7A2F54
:103EF2007F2FA209A309A20A0319A30A2308F80023
:103F02002208F7000800031083120313530D540D07
:103F1200D5005508DB005B08031D902F912F9A2FC7
:103F22000030D4000030D3000030D2000030D10085
:103F3200FF2F5108D5005208D6005308D700540865
:103F4200D8001F300310D80CD70CD60CD50CFF3E6E
:103F5200031DA32F5508D9005908DA00D317FF30E3
:103F6200D105FF30D205FF30D3050030D40596309D
:103F7200DB02DB1FBD2FBE2FD82F5B08803A973E96
:103F82000318C42FC52FC62F912F01300310D40C54
:103F9200D30CD20CD10CFF3E031DC72F0130D5002C
:103FA2005508DB07031DD62FD72FC62FEF2F203042
:103FB2005B02031CDD2FDE2FEA2F912F0130D5008B
:103FC2000310D10DD20DD30DD40DD50BE12F01303D
:103FD200DB025B08031DEE2FEF2FDF2F5A080319B8
:103FE200F32FF42FFF2FD109D209D309D409D10A13
:0E3FF2000319D20A0319D30A0319D40A0800CE
:04400E00F7FFFFFFBA
:00000001FF
