:020000040000FA
:100000000A128A11F32FF40074080F39F1007108F5
:10001000F2007408F039F1007108F3008312031341
:1000200008157308F10004300310F10CFF3E031DA6
:10003000142871080A168A15B3230A128A1183122A
:1000400003138815881172080A168A15B3230A1239
:100050008A11831203138815881108008312031371
:10006000D1006E305102031C3628372844293F3016
:10007000A7000030A6000030A5000030A4006430C6
:10008000F6000030F7005108C200C3014208F80032
:100090004308F9000A168A15FE240A128A11760806
:1000A00083120313C40001300310C40DFF3E031D6F
:1000B00054280310440D7D3E84000A168A110A203C
:1000C0000A128A11C5000A168A110A200A128A1118
:1000D000C6000A168A110A200A128A11C7000A16D7
:1000E0008A110A200A128A11C8004808AB00470882
:1000F000AA004608A9004508A8000A128A159F24EC
:100100000A128A11831203132708D0002608CF0091
:100110002508CE002408CD000A30F6000030F70094
:100120005108C200C3014208F2004308F3006430E2
:10013000F0000030F1000A168A1545240A128A11CF
:100140007108F9007008F8000A168A15FE240A12D0
:100150008A11760883120313C40001300310C40D02
:10016000FF3E031DAE280310440D593E84000A16BD
:100170008A110A200A128A11C5000A168A110A2059
:100180000A128A11C6000A168A110A200A128A1156
:10019000C7000A168A110A200A128A11C8004808E4
:1001A000A7004708A6004608A5004508A400500877
:1001B000AB004F08AA004E08A9004D08A8000A127B
:1001C0008A159F240A128A11831203132708CC0070
:1001D0002608CB002508CA002408C9000A30F00010
:1001E0000030F1005108C200C3014208F200430888
:1001F000F3000A168A1545240A128A117008831220
:100200000313C40001300310C40DFF3E031D032976
:100210000310440D353E84000A168A110A200A1282
:100220008A11C5000A168A110A200A128A11C6000C
:100230000A168A110A200A128A11C7000A168A11A0
:100240000A200A128A11C8004808A7004708A60019
:100250004608A5004508A4004C08AB004B08AA00BE
:100260004A08A9004908A8000A128A159F240A1200
:100270008A11831203132708C1002608C00025082D
:10028000BF002408BE00382A0B305102031C492944
:100290004A29F5293F30A7000030A6000030A5000C
:1002A0000030A4000A30F6000030F7005108C20008
:1002B000C3014208F8004308F9000A168A15FE2413
:1002C0000A128A11760883120313C4000130031046
:1002D000C40DFF3E031D67290310440D593E8400E1
:1002E0000A168A110A200A128A11C5000A168A11F2
:1002F0000A200A128A11C6000A168A110A200A1256
:100300008A11C7000A168A110A200A128A11C80027
:100310004808AB004708AA004608A9004508A800FD
:100320000A128A159F240A128A11831203132708BE
:10033000D0002608CF002508CE002408CD000A30C2
:10034000F0000030F1005108C200C3014208F20081
:100350004308F3000A168A1545240A128A11700808
:1003600083120313C40001300310C40DFF3E031DAC
:10037000B4290310440D353E84000A168A110A2060
:100380000A128A11C5000A168A110A200A128A1155
:10039000C6000A168A110A200A128A11C7000A1614
:1003A0008A110A200A128A11C8004808A7004708C3
:1003B000A6004608A5004508A4005008AB004F0859
:1003C000AA004E08A9004D08A8000A128A159F2409
:1003D0000A128A11831203132708C1002608C000DD
:1003E0002508BF002408BE00382A3F30A70000308F
:1003F000A6000030A5000030A4005108C200013062
:100400000310C20DFF3E031D002A0310420D353EAE
:1004100084000A168A110A200A128A11C3000A16D9
:100420008A110A200A128A11C4000A168A110A20A7
:100430000A128A11C5000A168A110A200A128A11A4
:10044000C6004608AB004508AA004408A9004308B6
:10045000A8000A128A159F240A128A118312031314
:100460002708C1002608C0002508BF002408BE00D8
:10047000080083160313BD00A130A5002508AE00B7
:10048000DC2F253042060319462A472A532A420800
:10049000A5003D0884002508831380000130A500D5
:1004A0002508BD07DC2FAF01B001582A3015722A8C
:1004B0000130A007FF30200784000A168A110A20A5
:1004C0000A128A11C200A500A6012608003A0319E3
:1004D0006A2ADC2F2508003A0319EE2F663A031921
:1004E000562ADC2F00302F05A50007303005A60066
:1004F0002508260403197D2A7E2AC82F0630B1005C
:100500000030B2002E08840083130008BE00840A65
:100510000008BF00840A0008C000840A0008C10067
:100520000430A5002508AE074108F3004008F2009A
:100530003F08F1003E08F0000030F7000030F60000
:100540000030F5000030F4000A168A155E270A1202
:100550008A110318AC2AAD2ACA2A8316031341084C
:10056000F3004008F2003F08F1003E08F0000A16D0
:100570008A155C230A128A11730883160313C100BB
:100580007208C0007108BF007008BE000330AF04DD
:100590000030B00483160313B701B8014108F3001B
:1005A0004008F2003F08F1003E08F0000030F7007C
:1005B0000030F6000030F5000030F4000A168A150D
:1005C00042250A128A110318E62AE72AD72B0310BC
:1005D00083160313400D410D823EB700FF30031810
:1005E0000030B800FF30B7070318B80AFF30B8076B
:1005F0000330F0000030F1003808F3003708F20053
:100600000A168A15F9230A128A1171088316031330
:10061000B8007008B7000A30F7000030F80038085A
:10062000FA003708F9000A168A15F5260A128A1107
:10063000780883160313B8007708B700B81F212B7A
:10064000222B282BFF30B7070318B80AFF30B80752
:100650003703FF3A0A128A1540210A128A118312BF
:100660000313410883160313BC00831203134008CD
:1006700083160313BB00831203133F08831603136F
:10068000BA00831203133E0883160313B90041080E
:1006900083120313A7008316031340088312031366
:1006A000A600831603133F0883120313A5008316C5
:1006B00003133E0883120313A400831603133C089C
:1006C00083120313AB00831603133B088312031337
:1006D000AA00831603133A0883120313A900831692
:1006E0000313390883120313A8000A128A159F24E2
:1006F0000A128A1183120313270883160313BC00FE
:1007000083120313260883160313BB0083120313FB
:10071000250883160313BA008312031324088316D3
:100720000313B9003C08F3003B08F2003A08F1005B
:100730003908F0003F30F7008030F6000030F50057
:100740000030F4000A168A155E270A128A1103186F
:10075000AA2BAB2BB42BFF3083160313B707031858
:10076000B80AFF30B807D72B831603133C08F300F1
:100770003B08F2003A08F1003908F0004130F70078
:100780002030F6000030F5000030F4000A168A151B
:100790005E270A128A11031CCE2BCF2BD72B0130D8
:1007A00083160313B7070318B80A0030B8070630DA
:1007B0000A128A112E200A128A1183120313410889
:1007C000D5004008D4003F08D3003E08D20083166D
:1007D0000313410883120313D9008316031340083F
:1007E00083120313D800831603133F0883120313E5
:1007F000D700831603133E0883120313D6000A168C
:100800008A1178250A128A11831203135508831658
:100810000313C10083120313540883160313C0008B
:1008200083120313530883160313BF0083120313A9
:10083000520883160313BE003808803AFF00803048
:100840007F02031D252C0A3037020318282C292C7F
:100850007A2C831603134108F3004008F2003F0886
:10086000F1003E08F0000030F7000030F6000030E4
:10087000F5000030F4000A168A1542250A128A1182
:100880000318432C442CEC2C8316031341088312C9
:100890000313D40083160313400883120313D300F9
:1008A000831603133F0883120313D2008316031326
:1008B0003E0883120313D1000A128A1506200A1279
:1008C0008A11831203135408530452045104031D64
:1008D0006A2C6B2CEC2C831603133808803AFF002B
:1008E00080307F02031D762C02303702031C792CE6
:1008F0007A2CEC2C831603133C08F3003B08F2001F
:100900003A08F1003908F0004030F7008930F6006D
:100910007030F5005F30F4000A168A155E270A125F
:100920008A110318942C952C9E2CF73083160313F0
:10093000B7070318B80AFF30B807A62CF83083169B
:100940000313B7070318B80AFF30B80737080A12AD
:100950008A1540210A128A11831203134108831653
:100960000313BC0083120313400883160313BB0058
:10097000831203133F0883160313BA008312031371
:100980003E0883160313B9004108F3004008F20043
:100990003F08F1003E08F0003C08F7003B08F60075
:1009A0003A08F5003908F4000A128A1582200A1262
:1009B0008A11730883160313B6007208B500710814
:1009C000B4007008B3000030C1000030C000003037
:1009D000BF000030BE00702D831603134108831240
:1009E0000313D40083160313400883120313D300A8
:1009F000831603133F0883120313D20083160313D5
:100A00003E0883120313D1000A128A1506200A1227
:100A10008A1183120313540883160313B60083123A
:100A20000313530883160313B500831203135208EC
:100A300083160313B40083120313510883160313A0
:100A4000B3003608F3003508F2003408F10033082B
:100A5000F00000300A168A11C9200A128A117308A0
:100A600083120313E9007208E8007108E7007008B8
:100A7000E60083160313410883120313ED00831667
:100A80000313400883120313EC00831603133F087B
:100A900083120313EB00831603133E088312031320
:100AA000EA000A168A15D5230A128A118312031343
:100AB000690883160313C1008312031368088316A1
:100AC0000313C00083120313670883160313BF00C8
:100AD00083120313660883160313BE00B701B8011F
:100AE000C201C20A4208A50001300310A50DFF3E55
:100AF000031D752D0310250D693E84000A168A1109
:100B00000A200A128A11A6000A168A110A200A125D
:100B10008A11A7000A168A110A200A128A11A8004F
:100B20000A168A110A200A128A11A9002908360217
:100B3000031DA42D28083502031DA42D2708340207
:100B4000031DA42D260833020318A72DA82DA92DB7
:100B5000B32D0130A5002508C2070A304206031D47
:100B6000B22DB32D722D03302F05A50000303005B6
:100B7000A600250826040319BE2DBF2D312E2D30C9
:100B8000A5003D0884002508831380000130A500DE
:100B90002508BD07312E4208A50001300310A50D20
:100BA000FF3E031DCE2D0310250D693E84000A165D
:100BB0008A110A200A128A11F0000A168A110A20E4
:100BC0000A128A11F1000A168A110A200A128A11E1
:100BD000F2000A168A110A200A128A11F300360856
:100BE000F7003508F6003408F5003308F4000A165B
:100BF0008A158F260A128A11730883160313BC0004
:100C00007208BB007108BA007008B9000030F30028
:100C10000030F2000030F1000A30F0003C08F7002C
:100C20003B08F6003A08F5003908F4000A168A1560
:100C3000E2250A128A11730883160313BC00720896
:100C4000BB007108BA007008B9003908303EA50031
:100C50003D0884002508831380000130A500250885
:100C6000BD070130C202420A031D372E382ECB2D9C
:100C70004C2E303083160313A5003D088400250850
:100C8000831380000130A5002508BD07FF30B7079A
:100C90000318B80AFF30B8073808803AFF008030E0
:100CA0007F02031D552E013037020318582E592E8E
:100CB000392E831603133208803AFF0080307F02FA
:100CC000031D642E09303102031C672E682E6F2E1F
:100CD000083083160313A5002508C200752E83165D
:100CE00003133108A5002508C2004208A500A6018B
:100CF0002508B1022608031CB203B20242080319F8
:100D0000822E832E8E2E2E30A5003D0884002508CD
:100D1000831380000130A5002508BD0742080A1290
:100D20008A1540210A128A1183120313410883167F
:100D30000313AD0083120313400883160313AC00A2
:100D4000831203133F0883160313AB0083120313AC
:100D50003E0883160313AA002D0883120313AB0069
:100D6000831603132C0883120313AA00831603139C
:100D70002B0883120313A900831603132A08831276
:100D80000313A80083160313410883120313A7005B
:100D900083160313400883120313A600831603135C
:100DA0003F0883120313A500831603133E08831222
:100DB0000313A4000A128A159F240A128A118312AF
:100DC00003132708D4002608D3002508D2002408DE
:100DD000D1000A128A1506200A128A1183120313FF
:100DE000540883160313B6008312031353088316A3
:100DF0000313B50083120313520883160313B400C0
:100E000083120313510883160313B300A82F42085B
:100E1000A50001300310A50DFF3E031D0A2F03108E
:100E2000250D693E84000A168A110A200A128A11C9
:100E3000F0000A168A110A200A128A11F1000A1615
:100E40008A110A200A128A11F2000A168A110A204F
:100E50000A128A11F3003608F7003508F600340844
:100E6000F5003308F4000A168A158F260A128A1133
:100E7000730883160313BC007208BB007108BA0024
:100E80007008B9000030F3000030F2000030F100CB
:100E90000A30F0003C08F7003B08F6003A08F5007D
:100EA0003908F4000A168A15E2250A128A11730815
:100EB00083160313BC007208BB007108BA007008E7
:100EC000B9003908303EA5003D0884002508831389
:100ED00080000130A5002508BD074208A5000130AB
:100EE0000310A50DFF3E031D702F0310250D693E55
:100EF00084000A168A110A200A128A11F0000A16C2
:100F00008A110A200A128A11F1000A168A110A208F
:100F10000A128A11F2000A168A110A200A128A118C
:100F2000F3003608F7003508F6003408F5003308FA
:100F3000F4000A168A15E2250A128A11730883162C
:100F40000313B6007208B5007108B4007008B3004E
:100F50000130C202420A031DAE2FAF2F072FC12F4F
:100F60003030A5003D08840025088313800001303F
:100F7000A5002508BD07FF30B1070318B20AFF30EE
:100F8000B20731083204031DC62FC72FB02FDC2F44
:100F900003302F05A50000303005A60025082604E3
:100FA0000319D32FD42FDC2F2D30A5003D0884004A
:100FB0002508831380004E2A0130A007FF30200748
:100FC00084000A168A110A200A128A11A50025082F
:100FD000C2004208031DED2FEE2F412A3D08840078
:100FE0008313800108008313C7308400E1300A16A0
:100FF0008A1554230A128A1183010A168A15982B1E
:10100C00031083120313530D540DD5005508DB0048
:10101C005B08031D122813281C280030D400003054
:10102C00D3000030D2000030D10081285108D50007
:10103C005208D6005308D7005408D8001F300310AC
:10104C00D80CD70CD60CD50CFF3E031D2528550803
:10105C00D9005908DA00D317FF30D105FF30D2057B
:10106C00FF30D3050030D4059630DB02DB1F3F2860
:10107C0040285A285B08803A973E03184628472890
:10108C004828132801300310D40CD30CD20CD10CEB
:10109C00FF3E031D49280130D5005508DB07031D11
:1010AC00582859284828712820305B02031C5F28D7
:1010BC0060286C2813280130D5000310D10DD20DF7
:1010CC00D30DD40DD50B63280130DB025B08031D57
:1010DC007028712861285A080319752876288128E8
:1010EC00D109D209D309D409D10A0319D20A031997
:1010FC00D30A0319D40A08000310720D730DF800FB
:10110C00780883120313A5002508031D8E288F2849
:10111C0098280030F3000030F2000030F10000306D
:10112C00F0003F290310760D770DF8007808A40025
:10113C002408031DA228A328A4288F28F217FF3007
:10114C00F005FF30F105FF30F2050030F305F6171E
:10115C00FF30F405FF30F505FF30F6050030F705DC
:10116C000030A3000030A2000030A1000030A0002D
:10117C007F30A502A0302407F8007808A5022030A3
:10118C00F8007808A4000130F8000310A00DA10DA0
:10119C00A20DA30DF80BCB2877087302031DE028D2
:1011AC0076087202031DE02875087102031DE02801
:1011BC0074087002031CE328E428F3287408F00276
:1011CC007508031C750FF1027608031C760FF202EA
:1011DC007708031C770FF30220140130F80003107A
:1011EC00F00DF10DF20DF30DF80BF5280130A40202
:1011FC00031D01290229C928A51F05290629202913
:10120C002508803A9F3E03180C290D290E298F289A
:10121C0001300310A30CA20CA10CA00CFF3E031D6B
:10122C000F290130F8007808A507031D1E291F2976
:10123C000E29372920302502031C2529262932297D
:10124C008F280130F8000310A00DA10DA20DA30DE5
:10125C00F80B29290130A5022508031D3629372949
:10126C0027292308F3002208F2002108F1002008A6
:10127C00F000080083120313D000D01F4629472921
:10128C00F42AD009D00A5008803A123E031C4F2988
:10129C005029382A0A30F7000030F8005008F200C4
:1012AC00F301F21BF3036430F0000030F1000A1676
:1012BC008A1536260A128A157108FA007008F90088
:1012CC000A168A15F5260A128A1577088312031353
:1012DC00C20001300310C20DFF3E031D7029031024
:1012EC00420D593E84000A168A110A200A128A15E8
:1012FC00C3000A168A110A200A128A15C4000A169B
:10130C008A110A200A128A15C5000A168A110A20A7
:10131C000A128A15C6004608A7004508A60044080C
:10132C00A5004308A4006430F7000030F800500812
:10133C00F900FA01F91BFA030A168A15F5260A12A6
:10134C008A15770883120313C70001300310C70DE9
:10135C00FF3E031DAC290310470D7D3E84000A1689
:10136C008A110A200A128A15C8000A168A110A2044
:10137C000A128A15C9000A168A110A200A128A153D
:10138C00CA000A168A110A200A128A15CB004B08C9
:10139C00AB004A08AA004908A9004808A8000A128C
:1013AC008A159F240A128A15831203132708CF006B
:1013BC002608CE002508CD002408CC000A30F00009
:1013CC000030F1005008F200F301F21BF3030A168F
:1013DC008A1536260A128A15700883120313C20066
:1013EC0001300310C20DFF3E031DF7290310420DFF
:1013FC00353E84000A168A110A200A128A15C30087
:10140C000A168A110A200A128A15C4000A168A11B1
:10141C000A200A128A15C5000A168A110A200A1215
:10142C008A15C6004608A7004508A6004408A50072
:10143C004308A4004F08AB004E08AA004D08A900B1
:10144C004C08A8000A128A159F240A128A158312C6
:10145C0003132708C1002608C0002508BF00240874
:10146C00BE009E2C5008803A753E031C3E2A3F2A33
:10147C00C72A0A30F0000030F1005008F200F301E6
:10148C00F21BF3030A168A1536260A128A157008FF
:10149C0083120313C20001300310C20DFF3E031D63
:1014AC00522A0310420D353E84000A168A110A2076
:1014BC000A128A15C3000A168A110A200A128A1502
:1014CC00C4000A168A110A200A128A15C5000A16C7
:1014DC008A110A200A128A15C6004608A700450878
:1014EC00A6004408A5004308A4000A30F700003009
:1014FC00F8005008F900FA01F91BFA030A168A15CC
:10150C00F5260A128A15770883120313C7000130D7
:10151C000310C70DFF3E031D8E2A0310470D593EC5
:10152C0084000A168A110A200A128A15C8000A16A3
:10153C008A110A200A128A15C9000A168A110A2071
:10154C000A128A15CA000A168A110A200A128A156A
:10155C00CB004B08AB004A08AA004908A900480870
:10156C00A8000A128A159F240A128A1583120313E3
:10157C002708C1002608C0002508BF002408BE00AB
:10158C009E2C5008C20001300310C20DFF3E031DFB
:10159C00CA2A0310420D353E84000A168A110A200D
:1015AC000A128A15C3000A168A110A200A128A1511
:1015BC00C4000A168A110A200A128A15C5000A16D6
:1015CC008A110A200A128A15C6004608C10045086D
:1015DC00C0004408BF004308BE009E2C5008803A4F
:1015EC00123E031CFA2AFB2AE32B0A30F7000030C8
:1015FC00F8005008F200F301F21BF3036430F00022
:10160C000030F1000A168A1536260A128A1571085E
:10161C00FA007008F9000A168A15F5260A128A15BE
:10162C00770883120313C20001300310C20DFF3E72
:10163C00031D1B2B0310420D253E84000A168A1134
:10164C000A200A128A15C3000A168A110A200A12E5
:10165C008A15C4000A168A110A200A128A15C500B6
:10166C000A168A110A200A128A15C6004608A70013
:10167C004508A6004408A5004308A4006430F70000
:10168C000030F8005008F900FA01F91BFA030A16A9
:10169C008A15F5260A128A15770883120313C700D8
:1016AC0001300310C70DFF3E031D572B0310470DD0
:1016BC00493E84000A168A110A200A128A15C800AB
:1016CC000A168A110A200A128A15C9000A168A11EA
:1016DC000A200A128A15CA000A168A110A200A124E
:1016EC008A15CB004B08AB004A08AA004908A90090
:1016FC004808A8000A128A159F240A128A15831218
:10170C0003132708CF002608CE002508CD00240897
:10171C00CC000A30F0000030F1005008F200F30168
:10172C00F21BF3030A168A1536260A128A1570085C
:10173C0083120313C20001300310C20DFF3E031DC0
:10174C00A22B0310420D013E84000A168A110A20B6
:10175C000A128A15C3000A168A110A200A128A155F
:10176C00C4000A168A110A200A128A15C5000A1624
:10177C008A110A200A128A15C6004608A7004508D5
:10178C00A6004408A5004308A4004F08AB004E086F
:10179C00AA004D08A9004C08A8000A128A159F241B
:1017AC000A128A15831203132708C1002608C000E9
:1017BC002508BF002408BE009E2C5008803A753EB8
:1017CC00031CE92BEA2B722C0A30F0000030F100DC
:1017DC005008F200F301F21BF3030A168A153626A1
:1017EC000A128A15700883120313C2000130031009
:1017FC00C20DFF3E031DFD2B0310420D013E840064
:10180C000A168A110A200A128A15C3000A168A11AE
:10181C000A200A128A15C4000A168A110A200A1212
:10182C008A15C5000A168A110A200A128A15C600E2
:10183C004608A7004508A6004408A5004308A400D4
:10184C000A30F7000030F8005008F900FA01F91BD3
:10185C00FA030A168A15F5260A128A1577088312D6
:10186C000313C70001300310C70DFF3E031D392CB5
:10187C000310470D253E84000A168A110A200A120D
:10188C008A15C8000A168A110A200A128A15C9007C
:10189C000A168A110A200A128A15CA000A168A1117
:1018AC000A200A128A15CB004B08AB004A08AA0082
:1018BC004908A9004808A8000A128A159F240A1290
:1018CC008A15831203132708C1002608C0002508B7
:1018DC00BF002408BE009E2C5008C200013003102B
:1018EC00C20DFF3E031D752C0310420D013E8400FA
:1018FC000A168A110A200A128A15C3000A168A11BE
:10190C000A200A128A15C4000A168A110A200A1221
:10191C008A15C5000A168A110A200A128A15C600F1
:10192C004608C1004508C0004408BF004308BE007B
:10193C0008008312031327088039AC002C08B1006F
:10194C002708AC002C07AD002D08B700A61FAF2C44
:10195C00B02CB12C371437080319B52CB62CC52C68
:10196C00370A031DBA2CBB2CC32C0030A700003047
:10197C00A6000030A5000030A400A617CD2C003026
:10198C00A7000030A6000030A5000030A4002B08F2
:10199C008039AC002C08B1062B08AC002C07AD002C
:1019AC002D08B600AA1FDB2CDC2CDD2C36143608D7
:1019BC000319E12CE22CF12C360A031DE62CE72C42
:1019CC00EF2C0030AB000030AA000030A900003032
:1019DC00A800AA17F92C0030AB000030AA00003088
:1019EC00A9000030A80036080319FD2CFE2C032D8D
:1019FC003708031D022D032D0C2D0030A7000030DD
:101A0C00A6000030A5000030A400FF2F2408AC0075
:101A1C002C08F0002A080A168A151E240A128A15A8
:101A2C00710883120313BD007008BC003C08AC00A5
:101A3C00AD01AE01AF012F08B5002E08B4002D0882
:101A4C00B3002C08B2003D08AC00AD01AE01AF01F3
:101A5C002F08BB002E08BA002D08B9002C08B800BE
:101A6C002508AC002C08F00029080A168A151E243B
:101A7C000A128A15710883120313BD007008BC008A
:101A8C003C08AC00AD01AE01AF012C08B2072D082B
:101A9C0003110318013E0319542DB3072E0803112B
:101AAC000318013E03195B2DB4072F08031103180B
:101ABC00013E0319622DB5073D08AC00AD01AE0126
:101ACC00AF012C08B8072D0803110318013E0319A8
:101ADC00702DB9072E0803110318013E0319772D39
:101AEC00BA072F0803110318013E03197E2DBB07FB
:101AFC002608AC002C08F00028080A168A151E24AB
:101B0C000A128A15710883120313BD007008BC00F9
:101B1C003C08AC00AD01AE01AF012C08B2072D089A
:101B2C0003110318013E03199C2DB3072E08031152
:101B3C000318013E0319A32DB4072F080311031832
:101B4C00013E0319AA2DB5073D08AC00AD01AE014D
:101B5C00AF012C08B8072D0803110318013E031917
:101B6C00B82DB9072E0803110318013E0319BF2D18
:101B7C00BA072F0803110318013E0319C62DBB0722
:101B8C000830AC000310B20DB30DB40DB50DAC0B99
:101B9C00C82D2508AC002C08F00028080A168A1558
:101BAC001E240A128A15710883120313BD007008D3
:101BBC00BC003C08AC003D08AD00AE01AF012C08E8
:101BCC00B2072D0803110318013E0319EE2DB307BC
:101BDC002E0803110318013E0319F52DB4072F0825
:101BEC0003110318013E0319FC2DB5072408AC00A2
:101BFC002C08F00029080A168A151E240A128A15C8
:101C0C00710883120313BD007008BC003C08AC00C3
:101C1C003D08AD00AE01AF012C08B2072D08031131
:101C2C000318013E03191B2EB3072E0803110318CA
:101C3C00013E0319222EB4072F0803110318013E8D
:101C4C000319292EB5070830AC000310B20DB30DE3
:101C5C00B40DB50DAC0B2B2E2408AC002C08F000E9
:101C6C0028080A168A151E240A128A15710883126E
:101C7C000313BD007008BC003C08AC003D08AD006F
:101C8C00AE01AF012C08B2072D0803110318013E59
:101C9C000319512EB3072E0803110318013E031923
:101CAC00582EB4072F0803110318013E03195F2E99
:101CBC00B5072508AC002C08F0002A080A168A156E
:101CCC001E240A128A15710883120313BD007008B2
:101CDC00BC003C08AC003D08AD00AE01AF012C08C7
:101CEC00B8072D0803110318013E03197E2EB907FE
:101CFC002E0803110318013E0319852EBA072F086D
:101D0C0003110318013E03198C2EBB072608AC00E7
:101D1C002C08F00029080A168A151E240A128A15A6
:101D2C00710883120313BD007008BC003C08AC00A2
:101D3C003D08AD00AE01AF012C08B8072D0803110A
:101D4C000318013E0319AB2EB9072E080311031813
:101D5C00013E0319B22EBA072F0803110318013ED6
:101D6C000319B92EBB072608AC002C08F0002A0872
:101D7C000A168A151E240A128A1571088312031377
:101D8C00BD007008BC003C08AC003D08AD00AE01C5
:101D9C00AF0108300310AC0DAD0DAE0DAF0DFF3E15
:101DAC00031DD02E2C08B8072D0803110318013E73
:101DBC000319E12EB9072E0803110318013E03196C
:101DCC00E82EBA072F0803110318013E0319EF2E52
:101DDC00BB073208AC003308AD003408AE00350840
:101DEC00AF0018300310AF0CAE0CAD0CAC0CFF3EBA
:101DFC00031DF82E2C08B8072D0803110318013EFB
:101E0C000319092FB9072E0803110318013E0319F2
:101E1C00102FBA072F0803110318013E0319172FAF
:101E2C00BB070830AC000310B20DB30DB40DB50DEB
:101E3C00AC0B192F37083607AC00AD01AD0D2C08D3
:101E4C00823EBC002D080318013EFF3EBD004B2F07
:101E5C000130AC000310B80DB90DBA0DBB0DAC0BB5
:101E6C00302FB51F3A2F3B2F3C2F38140130AC00CC
:101E7C000310B20DB30DB40DB50DAC0B3E2FFF30EE
:101E8C00BC070318BD0AFF30BD07BA1F4E2F4F2FDA
:101E9C002E2FB601B51F532F542F702FFF30320544
:101EAC00AC00FF303305AD00FF303405AE007F30A1
:101EBC003505AF002F082E042D042C040319672FB1
:101ECC00682F6B2FB601B60A702F381C6E2F6F2F30
:101EDC00702F682F36080319742F752FA62F013019
:101EEC00B807003003180130B9070030031801306F
:101EFC00BA07003003180130BB073B1C862F872F15
:101F0C00A62F3808AC003908AD003A08AE003B08E3
:101F1C00AF000130B0002F0DAF0CAE0CAD0CAC0C03
:101F2C00B00B912F2F08BB002E08BA002D08B9005A
:101F3C002C08B8000130BC070318BD0A0030BD07DF
:101F4C003D08803AFF0080307F02031DAF2FFF3029
:101F5C003C02031CB22FB32FBE2F7F30831203130E
:101F6C00BB008030BA000030B9000030B800F32F4D
:101F7C00831203133D08803AFF0080307F02031D5B
:101F8C00C92F01303C020318CC2FCD2FD92F003094
:101F9C0083120313BB000030BA000030B9000030CC
:101FAC00B800B101F32F831203133C08AC002C08CA
:101FBC00B700FF30B805FF30B9057F30BA050030E7
:101FCC00BB05371CEA2FEB2FEC2FBA173708AC00E8
:101FDC0003102C0CAD002D08BB003108AC002C08F4
:101FEC00BB043B08A7003A08A6003908A50038082E
:101FFC00A4000800FF1B0A2883137F18831700080E
:10200C00840A0319FF0A080010308A000408840AA5
:10201C00820700340034003480343F340034003400
:10202C002034413400340034C83442340034003499
:10203C007A344434003440341C3446340034503444
:10204C00C3344734003424347434493480349634E3
:10205C0018344B342034BC34BE344C3428346B34F8
:10206C006E344E34F934023415345034EC34783444
:10207C00AD346034CA34F234493471340034003431
:10208C0080343F34CD34CC34CC343D340A34D73462
:10209C0023343C346F34123483343A341734B73429
:1020AC00D1343834AC34C53427343734BD343734B8
:1020BC00863435349534BF34D63433347734CC3419
:1020CC002B3432345F34703489343034FF34E6349A
:1020DC00DB342E340834E5343C341E346034423462
:1020EC00A2340D3401340034003400340A3400348A
:1020FC00003400346434003400340034E8340334E5
:10210C00003400341034273400340034A0348634C6
:10211C0001340034403442340F340034803496346B
:10212C00983400340034E134F53405340034CA34C6
:10213C009A343B34543465346D3470342E3420343A
:10214C00613463347434753461346C340034253444
:08215C006634203443340034E2
:10216600F10083120313081171080A168A15B323A6
:102176000A168A118312031388150A168A158523EF
:102186000A168A118312031388110800F8007808CA
:102196000319CE28CF28E328F31FD228D328E32813
:1021A6007009FA007109FB007209FC007309FD0051
:1021B600FA0A0319FB0A0319FC0A0319FD0AEB289C
:1021C6007308FD007208FC007108FB007008FA0035
:1021D6007308720471047004031DF228F328FC28A6
:1021E6000030F3000030F2000030F1000030F00063
:1021F60082299630F4007408F9000E290130F400A3
:102206007408F90701300310FD0CFC0CFB0CFA0CEA
:10221600FF3E031D0629FE307D05031D13291429E3
:10222600012930290130F4007408F9070130FA0752
:10223600003003180130FB07003003180130FC079B
:10224600003003180130FD0701300310FD0CFC0CB3
:10225600FB0CFA0CFF3E031D2829FF307D05031DEC
:1022660035293629152942290130F9020130F400B1
:102276000310FA0DFB0DFC0DFD0DF40B3B29FC1BA9
:10228600452946294C290230790203184B294C2945
:10229600372979184F2950295829FF30FA05FF3078
:1022A600FB057F30FC05FF30FD050310F90C7908AE
:1022B600F400F501F601F70118300310F40DF50DE1
:1022C600F60DF70DFF3E031D60297408FA04750824
:1022D600FB047608FC047708FD04780803197429C2
:1022E60075297A29F31F782979297A29FD177D0816
:1022F600F3007C08F2007B08F1007A08F000080081
:102306007008F8007108F9007208FA000310790DD8
:102316007A0DFB007B0883120313A5002508031D15
:10232600952996299F290030F3000030F2000030ED
:10233600F1000030F0003F2A7408F8007508F90033
:102346007608FA000310790D7A0DFB007B08A400CD
:102356002408031DAF29B029B1299629F117FF30AA
:10236600F005FF30F1050030F205F517FF30F405F2
:10237600FF30F5050030F6050030A3000030A2005E
:102386000030A1000030A0007F30A502983024075D
:10239600F8007808A5021830F8007808A400013083
:1023A600F8000310A00DA10DA20DA30DF80BD42962
:1023B60076087202031DE52975087102031DE529D9
:1023C60074087002031CE829E929F4297408F0024C
:1023D6007508031C750FF1027608031C760AF202D3
:1023E600201401300310F00DF10DF20DFF3E031D18
:1023F600F5290130A402031D012A022AD229A51FAC
:10240600052A062A202A2508803A973E03180C2A10
:102416000D2A0E2A962901300310A30CA20CA10C3A
:10242600A00CFF3E031D0F2A0130F8007808A5070F
:10243600031D1E2A1F2A0E2A372A18302502031CBE
:10244600252A262A322A96290130F8000310A00DE3
:10245600A10DA20DA30DF80B292A0130A50225080E
:10246600031D362A372A272A2308F3002208F200FA
:102476002108F1002008F000080083160313C301A9
:10248600C4010A168A1585230A168A110130831695
:102496000313C3070318C40A0030C4074408803A6C
:1024A600FF0080307F02031D5A2A03304302031CBB
:1024B6005D2A5E2A442A831203139F149F18642AF6
:1024C600652A612A1E0883160313D0001E08CF0052
:1024D600443083120313C1007F30C000C030BF00F8
:1024E6000030BE004030A700A030A6000030A50096
:1024F6000030A400831603134F08F0005008F100C3
:10250600F201F30100300A168A11C9200A168A114F
:10251600730883120313AB007208AA007108A9009E
:102526007008A8000A128A159F240A168A118312B7
:1025360003132708C5002608C4002508C30024087D
:10254600C2000A168A119B230A168A1183120313E4
:10255600410883160313CE00831203134008831623
:102566000313CD00831203133F0883160313CC0015
:10257600831203133E0883160313CB0044308312E1
:102586000313A7007A30A6000030A5000030A4008F
:10259600831603134E0883120313AB00831603132B
:1025A6004D0883120313AA00831603134C088312E3
:1025B6000313A900831603134B0883120313A80001
:1025C6000A128A159F240A168A11831203132708F2
:1025D60083160313CA0083120313260883160313F4
:1025E600C90083120313250883160313C800831238
:1025F6000313240883160313C70041308312031301
:10260600C1002030C0000030BF000030BE0083167D
:1026160003134A0883120313C500831603134908DC
:1026260083120313C400831603134808831203138B
:10263600C30083160313470883120313C2000A1646
:102646008A119B230A168A118312031341088316E3
:102656000313CA0083120313400883160313C90029
:10266600831203133F0883160313C8008312031350
:102676003E0883160313C7009E3083120313EE0031
:102686006E0883160313A0004A08A4004908A30095
:102696004808A2004708A100D1300A128A1139223F
:1026A6000A168A110A168A1567230A168A11F20172
:1026B600F20A01300A168A1590250A168A119130F7
:1026C600F5008030F6000A168A15BC240A168A110F
:1026D600F201F20A02300A168A1590250A168A11A4
:1026E600D130F5000030F6000A168A15BC240A1609
:1026F6008A1183160313C501C6010A168A15852396
:102706000A168A11013083160313C5070318C60A71
:102716000030C6074608803AFF0080307F02031D5E
:10272600962B65304502031C992B9A2B802B0800AB
:102736008312031345088039C6004608CF004508B2
:10274600C6004607C7004708D600C41FAB2BAC2BF4
:10275600AD2B561456080319B12BB22BC22B560AB1
:10276600031DB62BB72BBF2B0030C5000030C400AD
:102776000030C3000030C200C417C501CA2B0030A8
:10278600C5000030C4000030C3000030C20041085C
:102796008039C6004608CF064108C6004607C7006E
:1027A6004708D700C01FD82BD92BDA2B5714570848
:1027B6000319DE2BDF2BEF2B570A031DE32BE42B2C
:1027C600EC2B0030C1000030C0000030BF000030EC
:1027D600BE00C017C101F72B0030C1000030C00099
:1027E6000030BF000030BE00410840043F043E04F4
:1027F600031DFE2BFF2B182C0030C5000030C40033
:102806000030C3000030C2008030C4047F30C504ED
:102816004F08C6004608C5044508C1004408C00064
:102826004308BF004208BE00772D5608031D1C2C26
:102836001D2C262C0030C1000030C0000030BF0027
:102846000030BE00772D5608C600C7014708C900EC
:1028560057084602C800031CC90348087F3ED0003B
:1028660049080318013E003ED1004508CE00440841
:10287600CD004308CC004208CB000030C500003034
:10288600C4000030C3000030C2000030D500003064
:10289600D4000030D3000030D200D7019C2C57085A
:1028A6000319562C572C772C0130C6000310CB0D7C
:1028B600CC0DCD0DCE0DC60B592C0130C600031024
:1028C600C20DC30DC40DC50DC60B622CD51F6C2CD5
:1028D6006D2C6E2C42140130C6000310D20DD30DA0
:1028E600D40DD50DC60B702C41084E02031D852C48
:1028F60040084D02031D852C3F084C02031D852C04
:102906003E084B02031C882C892C982C55173E0830
:10291600CB023F08031C3F0FCC024008031C400FAC
:10292600CD024108031C410FCE020130C600460805
:10293600D7071A305702031CA12CA22C522C4E0882
:102946004D044C044B040319A92CAA2CC92C52146F
:10295600C92C0130C6000310C20DC30DC40DC50D30
:10296600C60BAE2CD51FB82CB92CBA2C421401308C
:10297600C6000310D20DD30DD40DD50DC60BBC2C3D
:10298600FF30D0070318D10AFF30D107C41FCC2C63
:10299600CD2CAC2CD701D51FD12CD22CEE2CFF3050
:1029A6005205C600FF305305C700FF305405C80066
:1029B6007F305505C90049084804470446040319F1
:1029C600E52CE62CE92CD701D70AEE2C421CEC2C80
:1029D600ED2CEE2CE62C57080319F22CF32C242DA3
:1029E6000130C207003003180130C3070030031856
:1029F6000130C407003003180130C507451C042DFB
:102A0600052D242D4208C6004308C7004408C80007
:102A16004508C9000130CA00490DC90CC80CC70CCD
:102A2600C60CCA0B0F2D4908C5004808C400470844
:102A3600C3004608C2000130D0070318D10A00308F
:102A4600D1075108803AFF0080307F02031D2D2DEB
:102A5600FF305002031C302D312D3F2DFF308312E5
:102A66000313D0000030D1000030C5000030C40090
:102A76000030C3000030C200831203135108803AAD
:102A8600FF0080307F02031D4A2D013050020318DB
:102A96004D2D4E2D5B2D83120313D001D101003035
:102AA600C5000030C4000030C3000030C200CF01B2
:102AB600831203135008C6004608D600561C642D20
:102AC600652D672DC4176B2D7F30C6004608C405DB
:102AD6005608C6000310460CC7004708C5004F0835
:102AE600C6004608C5040F2C0800831203135508B8
:102AF6008039DA005A08E2005508DA005A07DB0086
:102B06005B08E400D41F882D892D8A2D641464087F
:102B160003198E2D8F2D9F2D640A031D932D942D41
:102B26009C2D0030D5000030D4000030D30000309A
:102B3600D200D417D501A72D0030D5000030D4001F
:102B46000030D3000030D20059088039DA005A0824
:102B5600E300630862060319B12DB22DB32D621787
:102B66005908DA005A07DB005B08E300D81FBC2DC2
:102B7600BD2DBE2D631463080319C22DC32DD32D9D
:102B8600630A031DC72DC82DD02D0030D900003093
:102B9600D8000030D7000030D600D817D901DB2D79
:102BA6000030D9000030D8000030D7000030D60001
:102BB600640863020318E02DE12D252E621FE42D23
:102BC600E52DE92D8030DA005A08E2066408DA00BD
:102BD6005A08E5006308DA005A08E4006508DA00D6
:102BE6005A08E3005208DA005A08E5005608DA00E7
:102BF6005A08D2006508DA005A08D6005308DA00E7
:102C06005A08E5005708DA005A08D3006508DA00C2
:102C16005A08D7005408DA005A08E5005808DA00BE
:102C26005A08D4006508DA005A08D8005508DA00B0
:102C36005A08E5005908DA005A08D5006508DA008E
:102C46005A08D900E5016308DA00DB015B08DD00FC
:102C560064085A02DC00031CDD035D08803AFF00AD
:102C660080307F02031D392E1A305C02031C3C2E75
:102C76003D2E7A2E8312031355085404530452042E
:102C8600031D462E482E0130492E0030DA005A0820
:102C9600E5000030D5000030D4000030D30000300D
:102CA600D2006308DA005A08E400822E651C5C2E06
:102CB6005D2E662E6508DA0003105A0C0138DB001B
:102CC6005B08E500682E0310E50C521C6B2E6C2E7B
:102CD6006D2EE5170130DA00550DD50CD40CD30C4A
:102CE600D20CDA0B6F2E0130DA005A08E407831291
:102CF600031363086402031C812E822E592E621B65
:102D0600852E862ED12E6408031D8A2E8B2E942E98
:102D16000030D5000030D4000030D3000030D2009F
:102D2600FF2F5608D207570803110318013E03194F
:102D36009D2ED307580803110318013E0319A42E2C
:102D4600D407590803110318013E0319AB2ED50702
:102D5600551CAE2EAF2E852F651CB22EB32EBC2E63
:102D66006508DA0003105A0C0138DB005B08E50041
:102D7600BE2E0310E50C521CC12EC22EC32EE51723
:102D86000130DA00550DD50CD40CD30CD20CDA0B6D
:102D9600C52E0130DA005A08E407852F5508803A17
:102DA600FF005908803A7F02031DE32E580854029B
:102DB600031DE32E57085302031DE32E5608520245
:102DC6000318E62EE72E3F2FFF30DA00FF30DB0038
:102DD600FF30DC00FF30DD005608DE005708DF005C
:102DE6005808E0005908E1005208DE025308031CA7
:102DF600530FFE2EFF2EDF025408031C540F042F20
:102E0600052FE0025508031C550F0A2F0B2FE10270
:102E16005E08DA075F0803185F0F122F132FDB0710
:102E260060080318600F182F192FDC0761080318B4
:102E3600610ADD075D08D5005C08D4005B08D30095
:102E46005A08D2008030DA005A08E206E509E50A97
:102E56006508031D2F2F302F4D2F0130D20700306C
:102E660003180130D307003003180130D4070030AF
:102E760003180130D5074D2F5608D2025708031CF8
:102E8600570FD3025808031C580FD4025908031CC5
:102E9600590FD5025508540453045204031D542FE8
:102EA600552F812F6508031D592F5A2F812F00306A
:102EB600D5000030D4000030D3000030D200FF2F00
:102EC6000130DA000310D20DD30DD40DD50DDA0B77
:102ED600652FE51F6F2F702F712F5214651C742FED
:102EE600752F782F0314E50D7A2F0310E50D64086E
:102EF60003197E2F7F2F812F0130E402D41F842FE8
:102F0600852F632FE301E51F892F8A2F982F6508E8
:102F16007F3903198F2F902F932FE301E30A982F00
:102F2600521C962F972F982F902F630803199C2FCA
:102F36009D2FD12F0130D207003003180130D3075F
:102F4600003003180130D407003003180130D507CC
:102F5600551CAE2FAF2FD12F5208DA005308DB00D5
:102F66005408DC005508DD000130DE005D0DDD0C87
:102F7600DC0CDB0CDA0CDE0BB92F5D08D5005C0827
:102F8600D4005B08D3005A08D200640A0319CC2F78
:102F9600CD2FD12F0130DA005A08E407640A03194D
:102FA600D52FD62FDB2F6408031DDA2FDB2FE92F51
:102FB6000030D5000030D4000030D3000030D200FD
:102FC6006408031DE72FE82FE92FE201641CEC2FAC
:102FD600ED2FEF2FD417F32F7F30DA005A08D405E0
:102FE6006408DA0003105A0CDB005B08D500E21F08
:0A2FF600FD2FFE2FFF2FD517080056
:1036A80064008001840A0406031900340406552BBB
:1036B80073087204710470040319632B642B662B5E
:1036C8008030F306080000300A168A11B3200A1663
:1036D8008A1501300A168A11B3200A168A150800BD
:1036E80002308316031385000230831603178800FF
:1036F8000530831203139F008030831603139F0045
:1037080008000130F0007008831603138C05603040
:10371800831203138E00F0308F0010140C1C952BAD
:10372800962B922B0C1008008316031388010A1697
:103738008A157F240A168A150A168A1567230A1617
:103748008A150A168A1574230A168A150A168A1102
:1037580040220A168A15AA2B0A128A110028F0009C
:10376800701CB72BB82BBC2B831203130816BF2B66
:10377800831203130812F01CC22BC32BC52B881607
:10378800C62B8812701DC92BCA2BCC2B0817CD2B22
:103798000813F01DD02BD12BD32B8817D42B8813CB
:1037A8000800803083120313E9066D08D5006C0801
:1037B800D4006B08D3006A08D2006908D9006808E9
:1037C800D8006708D7006608D6000A168A11782537
:1037D8000A168A15831203135508E9005408E800ED
:1037E8005308E7005208E6000800F401F501701CD0
:1037F800FE2BFF2B052C7208F4070318F50A730833
:10380800F50701300310F20DF30DFF3E031D062CE2
:1038180001300310F10CF00CFF3E031D0D2C700855
:103828007104031D182C192CFB2B7508F100740862
:10383800F0000800F800F401F5017008F200F30147
:103848007208F6007308F700781C2B2C2C2C322CED
:103858007608F4070318F50A7708F507013003100E
:10386800F60DF70DFF3E031D332C0310F80C7808F6
:10387800031D3F2C402C282C7508F1007408F0001B
:1038880008007008710403194A2C4B2C7A2CF50196
:10389800F50A592C01300310F00DF10DFF3E031D00
:1038A8004F2C0130F4007408F507F11F5C2C5D2CD7
:1038B8004E2C71087302031D632C70087202031CDE
:1038C800662C672C6D2C7008F2027108031CF30338
:1038D800F30201300310F10CF00CFF3E031D6E2CB7
:1038E8000130F502031D792C7A2C5D2C7308F10048
:1038F8007208F000080000300A168A15B3230A1669
:103908008A1503300A168A11B3200A168A1503305D
:103918000A168A11B3200A168A1502300A168A1165
:10392800B3200A168A1502300A168A11B3200A161D
:103938008A1508300A168A11B3200A168A1500302B
:103948000A168A11B3200A168A150C300A168A112B
:10395800B3200A168A1500300A168A11B3200A16EF
:103968008A1506300A168A11B3200A168A15080025
:10397800FA01FB01E12C7A087507F8007608F700D0
:103988000318F70AFA1FC92CF7037708F900790812
:1039980083120313FF00780884000A168A11002096
:1039A8000A168A150A128A1103200A168A15013086
:1039B800FA070318FB0A0030FB077A087507F800B6
:1039C8007608F7000318F70AFA1FEB2CF7037708B5
:1039D800F900790883120313FF00780884000A1697
:1039E8008A1100200A168A15003A031DFC2CFD2CAA
:1039F800BF2C0800FB01FC01760877040319052D8C
:103A0800062D3D2DFD01FD0A142D01300310F60D84
:103A1800F70DFF3E031D0A2D0130FA007A08FD0755
:103A2800F71F172D182D092D01300310FB0DFC0D64
:103A3800FF3E031D192D77087902031D252D7608F1
:103A48007802031C282D292D302D7608F8027708D6
:103A5800031CF903F9027B1401300310F70CF60C70
:103A6800FF3E031D312D0130FD02031D3C2D3D2D70
:103A7800182D7C08F7007B08F60008000030700558
:103A8800F80000307105F90080307205FA007F30C7
:103A98007305FB007B087A0479047804031D552D0F
:103AA800562D5E2D0030F3000030F2000030F1009A
:103AB8000030F00000307405F80000307505F9009A
:103AC80080307605FA007F307705FB007B087A04A2
:103AD80079047804031D712D722D7A2D0030F700BA
:103AE8000030F6000030F5000030F4007708730667
:103AF800031D882D76087206031D882D750871062A
:103B0800031D882D7408700603198B2D8C2D8E2D9E
:103B180003108F2D03140800F5007503031D952D60
:103B2800962DB92D72087F3EF3007308F8007808C7
:103B3800F30004300310F30CFF3E031D9E2D7308A1
:103B4800F4007408F60078080F39F3007308F700DA
:103B580076080A168A11B3200A168A1577080A16F3
:103B68008A11B3200A168A15E12D02307506031D45
:103B7800BE2DBF2DE12D7208BF3EF3007308F8007B
:103B88007808F30004300310F30CFF3E031DC72D23
:103B98007308F4007408F60078080F39F300730806
:103BA800F70076080A168A11B3200A168A157708CC
:103BB8000A168A11B3200A168A15080073087204B7
:103BC800710470040319E92DEA2D2D2EF901F90A63
:103BD800FA2D0130F8000310F00DF10DF20DF30D80
:103BE800F80BEF2D0130F8007808F907F31FFD2DC9
:103BF800FE2DED2D73087702031D0C2E7208760238
:103C0800031D0C2E71087502031D0C2E700874021A
:103C1800031C0F2E102E1E2E7008F4027108031CB0
:103C2800710FF5027208031C720FF6027308031C69
:103C3800730FF70201300310F30CF20CF10CF00CC7
:103C4800FF3E031D1F2E0130F902031D2C2E2D2EC1
:103C5800FE2D7708F3007608F2007508F100740865
:103C6800F0000800F601F31F3A2E3B2E422EF2090F
:103C7800F309F20A0319F30AF601F60AF11F452EB1
:103C8800462E4B2EF009F109F00A0319F10A7008C3
:103C980071040319502E512E802EF501F50A5F2E5E
:103CA80001300310F00DF10DFF3E031D552E0130BC
:103CB800F4007408F507F11F622E632E542E710864
:103CC8007302031D692E70087202031C6C2E6D2E80
:103CD800732E7008F2027108031CF303F30201301B
:103CE8000310F10CF00CFF3E031D742E0130F50299
:103CF800031D7F2E802E632E76080319842E852EB1
:103D08008A2EF209F309F20A0319F30A7308F1007B
:103D18007208F00008000030FC000030FB000030A2
:103D2800FA000030F9007308720471047004031972
:103D38009E2E9F2EEC2EFD01FD0AAF2E0130F800BD
:103D48000310F00DF10DF20DF30DF80BA42E013058
:103D5800F8007808FD07F31FB22EB32EA22E01300B
:103D6800F8000310F90DFA0DFB0DFC0DF80BB52E3C
:103D780073087702031DCA2E72087602031DCA2E25
:103D880071087502031DCA2E70087402031CCD2E1B
:103D9800CE2EDD2E7008F4027108031C710FF50297
:103DA8007208031C720FF6027308031C730FF702E4
:103DB800791401300310F30CF20CF10CF00CFF3EF7
:103DC800031DDE2E0130FD02031DEB2EEC2EB32E5B
:103DD8007C08F3007B08F2007A08F1007908F0000B
:103DE800080083120313A101F81FFB2EFC2E032FDA
:103DF800F709F809F70A0319F80AA101A10AFA1F35
:103E0800062F072F102FF909FA09F90A0319FA0AD8
:103E18000130FB007B08A106A201A3017708780402
:103E28000319172F182F4F2FA001A00A262F013092
:103E38000310F70DF80DFF3E031D1C2F0130FB008A
:103E48007B08A007F81F292F2A2F1B2F01300310EA
:103E5800A20DA30DFF3E031D2B2F78087A02031D28
:103E6800372F77087902031C3A2F3B2F422F770808
:103E7800F9027808031CFA03FA022214013003102D
:103E8800F80CF70CFF3E031D432F0130A002031D61
:103E98004E2F4F2F2A2F21080319532F542F592FF4
:103EA800A209A309A20A0319A30A2308F8002208F1
:103EB800F700080000307005F80000307105F900BF
:103EC80080307205FA007F307305FB007B087A04A6
:103ED80079047804031D712F722F7A2F0030F300B4
:103EE8000030F2000030F1000030F00000307405BE
:103EF800F80000307505F90080307605FA007F304B
:103F08007705FB007B087A0479047804031D8D2F5C
:103F18008E2F962F0030F7000030F6000030F500A5
:103F28000030F400F31F992F9A2FBE2F0030F800AD
:103F38000030F9000030FA008030FB007008F80209
:103F48007108031C710FA92FAA2FF9027208031C0C
:103F5800720FAF2FB02FFA027308031C730FB52F1F
:103F6800B62FFB027B08F3007A08F2007908F1000B
:103F78007808F000F71FC12FC22FE62F0030F80095
:103F88000030F9000030FA008030FB007408F802B5
:103F98007508031C750FD12FD22FF9027608031C60
:103FA800760FD72FD82FFA027708031C770FDD2F4B
:103FB800DE2FFB027B08F7007A08F6007908F50087
:103FC8007808F4008030F3068030F706770873022B
:103FD800031DF82F76087202031DF82F7508710269
:103FE800031DF82F740870020318FB2FFC2FFE2FF7
:083FF8000310FF2F0314080061
:02400E00F7FFBA
:00000001FF
