:020000040000FA
:060000000A128A11FC2F18
:100F5600831603130C145130831203138E00B4301E
:100F66008F001830F0007008900510140C1CBC2F70
:100F7600BD2FB92F0C1008000130831603138F0004
:100F860083160317880189018316031387018901D4
:100F96008312031387010130F100710889050C10D3
:100FA60080308312031387000A128A11AB270A12B4
:100FB6008A110A128A11AB270A128A11403083124B
:100FC600031387000A128A11AB270A128A112030EE
:100FD6008312031387000A128A11AB270A128A1199
:100FE6000A128A11AB270A128A11D32F0A128A1102
:0A0FF600002883010A128A11BF2FA0
:02400E00F7FFBA
:00000001FF
