:020000040000FA
:060000000A128A11FC2F18
:100F4600F001F101F201F3010130F2070318F30A8F
:100F56000030F3077308803AFF00A7307F02031DB5
:100F6600B62F10307202031CB92FBA2FA72F0130EB
:100F7600F0070318F10A0030F1077108803AFF0004
:100F860080307F02031DC92F02307002031CCC2F54
:100F9600CD2FA52F08007130831603138F008316FB
:100FA60003178801890183160313870189018312B8
:100FB600031387010130F400740889050A128A11A7
:100FC600A3270A128A1101308312031387000A121B
:100FD6008A11A3270A128A11043083120313870089
:100FE6000A128A11A3270A128A11E12F0A128A11FC
:0A0FF600002883010A128A11CE2F91
:04400E00E2EFFFFFDF
:00000001FF
