:020000040000FA
:060000000A128A11122809
:10000800FE00030EF9000408FA000A08FB00831238
:1000180003137F08FC000A128A11772A0A128A1130
:10002800152883010A128A11CD2983120313061F8A
:100038001E281F289328FE308316031386000130DC
:10004800831203138600061F2A282B283F280A122A
:100058008A11EF220A128A11F201F20A01300A12F9
:100068008A1113210A128A1116300A128A11F321F1
:100078000A128A110A29FD308316031386000230FA
:10008800831203138600061F4A284B285F280A128A
:100098008A11EF220A128A11F201F20A01300A12B9
:1000A8008A1113210A128A1101300A128A11F321C6
:1000B8000A128A110A29FB308316031386000430BA
:1000C800831203138600061F6A286B287F280A12EA
:1000D8008A11EF220A128A11F201F20A01300A1279
:1000E8008A1113210A128A1104300A128A11F32183
:1000F8000A128A110A290A128A11EF220A128A118F
:10010800F201F20A01300A128A1113210A128A1125
:1001180007300A128A11F3210A128A110A29861F46
:10012800962897280A29FE30831603138600013083
:10013800831203138600861FA228A328B7280A1251
:100148008A11EF220A128A11F201F20A01300A1208
:100158008A1113210A128A110A300A128A11F3210C
:100168000A128A110A29FD30831603138600023009
:10017800831203138600861FC228C328D7280A12B1
:100188008A11EF220A128A11F201F20A01300A12C8
:100198008A1113210A128A110D300A128A11F321C9
:1001A8000A128A110A29FB308316031386000430C9
:1001B800831203138600861FE228E328F7280A1211
:1001C8008A11EF220A128A11F201F20A01300A1288
:1001D8008A1113210A128A1110300A128A11F32186
:1001E8000A128A110A290A128A11EF220A128A119E
:1001F800F201F20A01300A128A1113210A128A1135
:1002080013300A128A11F3210A128A11F030831668
:10021800031386000F308312031386000800F500CD
:100228007503031D182919293C2972087F3EF3001C
:100238007308F8007808F30004300310F30CFF3E4D
:10024800031D21297308F4007408F60078080F3993
:10025800F3007308F70076080A128A11A4220A121A
:100268008A1177080A128A11A4220A128A116429AB
:1002780002307506031D4129422964297208BF3ED0
:10028800F3007308F8007808F30004300310F30C47
:10029800FF3E031D4A297308F4007408F600780825
:1002A8000F39F3007308F70076080A128A11A4229E
:1002B8000A128A1177080A128A11A4220A128A11CC
:1002C800080000300A128A113A220A128A110330F1
:1002D8000A128A118E220A128A1103300A128A110E
:1002E8008E220A128A1102300A128A118E220A12EA
:1002F8008A1102300A128A118E220A128A110830D3
:100308000A128A118E220A128A1100300A128A11E0
:100318008E220A128A110C300A128A118E220A12AF
:100328008A1100300A128A118E220A128A110630A6
:100338000A128A118E220A128A110800F40074081F
:100348000F39F1007108F2007408F039F1007108F2
:10035800F3008312031308157308F1000430031027
:10036800F10CFF3E031DB32971080A128A111822E5
:100378000A128A11831203138815881172080A1247
:100388008A1118220A128A118312031388158811F8
:1003980008008316031388010A128A1165210A12BC
:1003A8008A110A128A11E2220A128A118316031785
:1003B80088018901F0308316031386000F308312F9
:1003C8000313A20022088605C03083160313960083
:1003D8000B108B158B17EF290A128A111228F700B8
:1003E800F501F6010A2A7508770784000A128A11AE
:1003F8005A220A128A110A128A11A2210A128A1191
:100408000130F5070318F60A0030F6077508770774
:1004180084000A128A115A220A128A11003A031D0C
:10042800162A172AF7290800F000701C1C2A1D2A12
:10043800212A831203130816242A8312031308128D
:10044800F01C272A282A2A2A88162B2A8812701D87
:100458002E2A2F2A312A0817322A0813F01D352A86
:10046800362A382A8817392A881308008312031372
:10047800A000201C402A412A432A0816442A0812B0
:10048800A01C472A482A4A2A88164B2A8812201D67
:100498004E2A4F2A512A0817522A0813A01D552AF6
:1004A800562A582A8817592A8813080002308A00C1
:1004B8000408840A8207003431343034003431347B
:1004C800313400343134323400343134333400348C
:1004D8003134343400343134353400343134363442
:1004E8000034393400340B1C7A2A7B2A802A0A12F9
:1004F8008A1119200A128A110B107C08831203131F
:10050800FF007B088A007A088400790E8300FE0EBB
:100518007E0E090083120313A100081121080A1294
:100528008A113A220A128A118312031388150A12B1
:100538008A11BA220A128A11831203138811080039
:10054800F10083120313081171080A128A11182284
:100558000A128A118312031388150A128A11CF22EC
:100568000A128A11831203138811080001308312BA
:100578000313A0002008831603138C056030831230
:1005880003138E00F0308F0010140C1CCC2ACD2AD7
:10059800C92A0C1008000130F000700883160313F4
:1005A8008C056030831203138E00F0308F00101416
:1005B8000C1CDF2AE02ADC2A0C10080000300A1282
:1005C8008A118E220A128A1101300A128A118E2289
:1005D8000A128A11080000300A128A11A4220A128B
:1005E8008A1101300A128A11A4220A128A110800FB
:02400E00F7EFCA
:00000001FF
