:020000040000FA
:060000000A128A11122809
:10000800FE00030E83120313A0000408A1000A08CF
:10001800A2007F08A3000A128A11C12A0A128A11B3
:10002800152883010A128A11B02983120313061FA7
:100038001E281F28A028FE308316031386000130CF
:10004800831203138600061F2A282B284C280A121D
:100058008A11E5220A128A11F401F40A01300A12FF
:100068008A1121210A128A1116300A128A110822CD
:100078000A128A110230FD000430FC00BA30FB007D
:10008800FB0B4428FC0B4428FD0B442800001829CE
:10009800FD30831603138600023083120313860093
:1000A800061F572858286C280A128A11E5220A12B6
:1000B8008A11F401F40A01300A128A1121210A1264
:1000C8008A1101300A128A1108220A128A113E285E
:1000D800FB30831603138600043083120313860053
:1000E800061F772878288C280A128A11E5220A1216
:1000F8008A11F401F40A01300A128A1121210A1224
:100108008A1104300A128A1108220A128A113E281A
:100118000A128A11E5220A128A11F401F40A01303E
:100128000A128A1121210A128A1107300A128A1129
:1001380008220A128A113E28861FA328A4281829F3
:10014800FE308316031386000130831203138600E2
:10015800861FAF28B028C4280A128A11E5220A127D
:100168008A11F401F40A01300A128A1121210A12B3
:100178008A110A300A128A1108220A128A113E28A4
:10018800FD308316031386000230831203138600A2
:10019800861FCF28D028E4280A128A11E5220A12DD
:1001A8008A11F401F40A01300A128A1121210A1273
:1001B8008A110D300A128A1108220A128A113E2861
:1001C800FB30831603138600043083120313860062
:1001D800861FEF28F02804290A128A11E5220A123C
:1001E8008A11F401F40A01300A128A1121210A1233
:1001F8008A1110300A128A1108220A128A113E281E
:100208000A128A11E5220A128A11F401F40A01304D
:100218000A128A1121210A128A1113300A128A112C
:1002280008220A128A113E28F0308316031386002A
:100238000F308312031386000800F7007703031DAD
:10024800262927294A2974087F3EF5007508FA00EF
:100258007A08F50004300310F50CFF3E031D2F2922
:100268007508F6007608F8007A080F39F500750861
:10027800F90078080A128A11A7220A128A11790845
:100288000A128A11A7220A128A11722902307706E5
:10029800031D4F29502972297408BF3EF5007508BF
:1002A800FA007A08F50004300310F50CFF3E031D30
:1002B80058297508F6007608F8007A080F39F5000D
:1002C8007508F90078080A128A11A7220A128A11F9
:1002D80079080A128A11A7220A128A110800003026
:1002E8000A128A114F220A128A1103300A128A113D
:1002F8008C220A128A1103300A128A118C220A12DD
:100308008A1102300A128A118C220A128A110230CA
:100318000A128A118C220A128A1108300A128A11CA
:100328008C220A128A1100300A128A118C220A12AF
:100338008A110C300A128A118C220A128A11003092
:100348000A128A118C220A128A1106300A128A119C
:100358008C220A128A1108008316031388010A12D4
:100368008A1173210A128A110A128A11D8220A12D2
:100378008A11831603178901F03083160313860048
:100388000F3083120313A80028088316031395055A
:100398000F3083120313A80028088605C03083167F
:1003A800031396000B108B158B17D9290A128A1183
:1003B8001228F40074080F39F1007108F20074086B
:1003C800F039F1007108F30083120313081573085C
:1003D800F10004300310F10CFF3E031DEE297108F3
:1003E8000A128A112D220A128A1183120313881500
:1003F800881172080A128A112D220A128A11831290
:100408000313881588110800F700F501F6011F2A63
:100418007508770784000A128A116F220A128A1156
:100428000A128A11DD210A128A110130F507031810
:10043800F60A0030F6077508770784000A128A1151
:100448006F220A128A11003A031D2B2A2C2A0C2A21
:100458000800F000701C312A322A362A831203134E
:100468000816392A831203130812F01C3C2A3D2A65
:100478003F2A8816402A8812701D432A442A462A91
:100488000817472A0813F01D4A2A4B2A4D2A8817AD
:100498004E2A8813080083120313A400241C552A2B
:1004A800562A582A0816592A0812A41C5C2A5D2ABA
:1004B8005F2A8816602A8812241D632A642A662AFD
:1004C8000817672A0813A41D6A2A6B2A6D2A881739
:1004D8006E2A8813080002308A000408840A8207FA
:1004E8000034313430340034313431340034313470
:1004F8003234003431343334003431343434003459
:10050800313435340034313436340034393400343D
:1005180083120313A700081127080A128A114F2211
:100528000A128A11831203138815343083120313B5
:10053800A600F130A500A50B9F2AA60B9F2A8312BF
:10054800031388110800F3008312031308117308BA
:100558000A128A112D220A128A118312031388158E
:100568003430F200F130F100F10BB82AF20BB82A5E
:10057800BD2A83120313881108000B1CC42AC52A3C
:10058800CA2A0A128A1119200A128A110B10831218
:1005980003132308FF0022088A0021088400200E84
:1005A8008300FE0E7E0E090000300A128A118C228A
:1005B8000A128A1101300A128A118C220A128A112F
:1005C800080000300A128A11A7220A128A11013083
:0C05D8000A128A11A7220A128A110800D8
:04400E00F2EFFFFFCF
:00000001FF
